:020000040800F2
:100000009849002081020008931D0008B91A0008D1
:10001000911D00080D090008D12200080000000011
:10002000000000000000000000000000C101000806
:10003000A1090008000000001D020008A11E000820
:100040009B0200089B0200089B0200089B0200081C
:100050009B0200089B0200089B0200089B0200080C
:100060009B0200089B0200089B0200089B020008FC
:100070009B0200089B0200089B0200089B020008EC
:100080009B0200089B0200089B0200089B020008DC
:100090009B0200089B0200089B0200089B020008CC
:1000A0009B0200089B0200089B0200089B020008BC
:1000B0009B0200089B0200089B0200089B020008AC
:1000C0009B0200089B0200089B0200089B0200089C
:1000D0009B0200089B0200089B0200089B0200088C
:1000E0009B0200089B0200089B0200089B0200087C
:1000F0009B0200089B0200089B0200089B0200086C
:100100009B0200089B0200089B0200089B0200085B
:100110009B0200089B0200089B0200089B0200084B
:100120009B0200089B0200089B0200089B0200083B
:100130009B0200089B0200089B0200089B0200082B
:100140009B0200089B0200089B0200089B0200081B
:100150009B0200089B0200089B0200089B0200080B
:100160009B0200089B0200089B0200089B020008FB
:100170009B0200089B0200089B0200080000000090
:100180009B0200089B0200089B0200089B020008DB
:100190009B0200089B0200089B0200089B020008CB
:1001A00000000000000000009B020008DFF80CD0F7
:1001B00000F088FB0048004765350008984900209A
:1001C0002C4B19680868B0E8F04F80F30988BFF33A
:1001D0006F8F4FF0000080F311887047000000001F
:1001E00008480068006880F308884FF0000080F33A
:1001F000148862B661B6BFF34F8FBFF36F8F00DF15
:1002000000BF00BF08ED00E0DFF80C00016841F41A
:1002100070010160704700BF88ED00E0EFF30980D6
:10022000BFF36F8F134B1A681EF0100F08BF20ED3D
:10023000108A20E9F04F106009B44FF0500080F3AD
:100240001188BFF34F8FBFF36F8F04F067F84FF043
:10025000000080F3118809BC19680868B0E8F04F05
:100260001EF0100F08BFB0EC108A80F30988BFF3AE
:100270006F8F704724000020EFF305807047000067
:100280000648804706480047FEE7FEE7FEE7FEE730
:10029000FEE7FEE7FEE7FEE7FEE7FEE7411F000898
:1002A000AD0100082DE9F05F0546002092469B460F
:1002B00088460646814640241BE02846414647467C
:1002C000224600F0F4F853465A46C01A914110D322
:1002D00011461846224600F0DBF82D1A67EB01089C
:1002E0004F4622460120002100F0D2F817EB00090A
:1002F0004E41201EA4F10104DFDC484631462A4667
:100300004346BDE8F09F40EA01039B0703D009E0A4
:1003100008C9121F08C0042AFAD203E011F8013BF1
:1003200000F8013B521EF9D27047D2B201E000F84A
:10033000012B491EFBD270470022F6E710B5134689
:100340000A4604461946FFF7F0FF204610BD2DE986
:10035000FE4F81EA030404F0004421F000410094C0
:100360004FF0000B23F0004350EA01045ED052EA44
:1003700003045BD0C3F30A54C1F30A552C44A4F21E
:10038000F3340194A0FB0254C1F3130141F4801132
:10039000C3F3130343F4801301FB024400FB034E39
:1003A000840A970A44EA815447EA8357A4FB076802
:1003B00002958D0A05FB07854FEA932C04FB0C542C
:1003C0002705029D4FEA065847EA1637B5EB0805A0
:1003D0006EEB070C870E920E47EA811742EA8312F2
:1003E000A7FB0201B6EB0B0164EB00042B0D43EA03
:1003F0000C335E1844EB1C50DA465146E7FB020111
:10040000C5F313044FEA0B3343EA14534FEA0432A3
:10041000019C43EA0603A4F10C040294009CCDE97C
:1004200000B400F09AF803B0BDE8F08F0020014658
:10043000F9E700F0004230F000400AD0C10D01F5AC
:100440006071C0F3160042EA0151C208400711432F
:10045000704700200146704701F0004330B421F09E
:10046000004150EA010206D00A0DA2F56072C1F304
:100470001301002A02DC30BC00207047440F44EA1C
:10048000C104C100E01830BC00EBC25000F01FB83E
:10049000202A04DB203A00FA02F100207047914044
:1004A000C2F1200320FA03F3194390407047202A39
:1004B00004DB203A21FA02F00021704721FA02F30E
:1004C000D040C2F1200291400843194670470029EC
:1004D000A8BF7047401C490008BF20F001007047CA
:1004E00010B4B0FA80FC00FA0CF050EA010404BF2A
:1004F00010BC704749B1CCF1200421FA04F411FA80
:100500000CF118BF012121430843A3EB0C01CB1DC3
:100510004FEA00614FEA102042BF002010BC704734
:1005200000EBC35010440029A4BF10BC7047401C0E
:10053000490008BF20F0010010BC704710B5141E20
:1005400073F1000408DA401C41F1000192185B418C
:100550001A4301D120F0010010BD2DE9F04D924663
:100560009B4611B1B1FA81F202E0B0FA80F220327A
:100570009046FFF78DFF04460F4640EA0A0041EA25
:100580000B0153465A46084313D0114653EA010063
:1005900019D0C8F140025046FFF789FF05460E46C4
:1005A000504659464246FFF773FF084305D00120E5
:1005B00004E020463946BDE8F08D0020054346EAB8
:1005C000E0762C4337430A986305E40AA0EB080061
:1005D0000022FD0A44EA47540A3002D500200146B1
:1005E000E9E7010510196941DDE90845001969418C
:1005F000BDE8F04DA2E72DE9FE4F804681EA0300F9
:10060000C00F0C46009021F0004123F00045B8EBEC
:100610000200A94105D24046214690461C460B46A1
:10062000024623F00040104347D0270DC7F30A00CD
:10063000C3F30A510290401A019040286BDAC3F3C9
:10064000130040F4801B0098924620B10023D2EBA7
:10065000030A63EB0B0B01985946C0F14002504668
:10066000FFF716FF06460D4650465946019A00F020
:100670003BF910EB08006141002487EA115284EA3B
:10068000E7731A4340D0009A62B3019A012A4FEAF5
:10069000075215DC001B61EB02014FF0004202EA39
:1006A0000752CDE90042001C41F5801132462B462D
:1006B000FFF753FF03B0BDE8F08F40462146F9E74E
:1006C000001B61EB0201001C41F5801300185B4127
:1006D0002018A2F5001747EB030140EAD570B619C0
:1006E0006D4111E06D084FEA360645EAC0754FEAE4
:1006F0000752001B61EB0201001C41F58011490803
:100700004FEA30000019514132462B4603B0BDE894
:10071000F04FFFF713BF0098012240000023D0EBF9
:10072000020263EBE073009821464FEAE074B8EBF5
:10073000000061EB0401E9E783F000435BE781F02F
:10074000004158E72DE9F04D81EA030404F0004B25
:1007500021F0004514464FF0000A23F0004150EA12
:10076000050220D054EA01021DD0C5F30A57024603
:10077000C5F31303C1F31300C1F30A5640F4801507
:1007800043F48013A7EB0608101BD64608F2FD3889
:1007900073EB050002D308F1010801E092185B41F8
:1007A000B8F1000F03DA00200146BDE8F08D00200B
:1007B0004FF48011064684460EE0171B73EB0507C5
:1007C00005D3121B63EB050306434CEA010C4908F1
:1007D0004FEA300092185B4150EA0107EDD152EA2E
:1007E000030012D082EA040083EA0501084305D021
:1007F000101BAB4106D20122002306E000224FF07D
:10080000004302E06FF0010253101AEB06004CEBBC
:10081000085110EB0A0041EB0B01BDE8F04DFFF76A
:100820008DBE2DE9F04D00231A461B1A8A4103DBC9
:1008300000200146BDE8F08DC1F30A52C1F3130157
:1008400041F480154FF0000BD10702D100186D4123
:10085000521E0027044640F2FF11384601EB620A9F
:100860003E468046024600204FF48011FFF71FFEEF
:10087000C2197141BB1846EB0100B4EB030C75EBD8
:10088000000C04D3E41A65EB000517460E46241944
:1008900008F101006D4180463428E3DDF91946EB8B
:1008A0000600091BA84103D24FF0FF32134601E0B6
:1008B000002213461BEB070046EB0A51BDE8F04D42
:1008C000FFF73CBE064C074D06E0E06840F0010330
:1008D00094E8070098471034AC42F6D3FFF76AFC5F
:1008E000DC480008FC480008202A06DBCB17203A29
:1008F00041FA02F043EAE07306E041FA02F3D04025
:10090000C2F120029140084319467047FEE70000FB
:1009100038B50E4C4FF4007525600025A560E560E4
:10092000082525610A4C050A25706070080AA07028
:10093000E170100A20716271180AA071E3716B46B0
:1009400022460249034800F02DF838BD1845002022
:100950008D000020F800002038B50E4C40F2FF1545
:1009600025600025A560E560082525610A4C050A7B
:1009700025706070080AA070E170100A2071627121
:10098000180AA071E3716B4622460249034800F041
:1009900009F838BD0045002085000020F80000203F
:1009A00070477047F0B590F820500468A468012D96
:1009B00005D0022D03D0416A41F4802153E014F0A8
:1009C000406F01D1E5004BD5C4F30164022C03D97B
:1009D000416A41F4000146E00125A5401D608D6893
:1009E0004FF4C0739DB1CE6835434E6845EAC605E5
:1009F000066803EB0417F5514FF4C275076805EB61
:100A000004150E697E51097D012905D009E00E8883
:100A1000CD6845EA4655EBE701684E5946F48076C5
:100A20004E511179D2F805504FF4C67641EA0525AA
:100A3000016806EB04168D511178D2F801204FF4AD
:100A4000C47541EA0221026805EB041551510068A2
:100A500003EB0411425842F0010242500020F0BD65
:100A6000416A41F4001141620120F0BD70B50400FB
:100A700003D094F8200010B104E0012070BD20469E
:100A800000F082F82068016821F00201016000F0A6
:100A9000B7F90546052604E000F0B2F9401B0A2824
:100AA00011D8206840688007F6D42068016841F0BA
:100AB0000101016000F0A4F905460BE000F0A0F987
:100AC000401B0A2806D9606A40F40030606284F84E
:100AD0002060D2E720684068C007EFD0207E012860
:100AE000206801683DD021F080010160607E01280E
:100AF0002068016838D021F040010160A07E012803
:100B00002068016833D021F020010160E07E0128D7
:100B1000206801682ED041F010010160207F01287B
:100B20002068016829D021F008010160607F012858
:100B30002068016824D021F004010160D4E9020199
:100B40000843D4E90412114308436168491E08436D
:100B50002168C86100206062012084F82000002024
:100B600070BD41F08001C0E741F04001C5E741F0B0
:100B70002001CAE721F01001CFE741F00801D4E7D6
:100B800041F00401D9E7000010B586B004461421F5
:100B90006846FFF7D1FB1349206888421FD11248ED
:100BA0000021026842F000720260006800F00070EC
:100BB00005900D481038026842F008020260006893
:100BC000022200F0080005900320CDE90210CDE9D3
:100BD0000002092004906946044800F01BF806B0A2
:100BE00010BD00000064004040380240000C02408C
:100BF00070B5044600F004F90546601C02D00448B4
:100C00000078044400F0FCF8401BA042FAD370BD09
:100C1000140000202DE9F84F00224FF001080325B1
:100C20004FF00F0E0B6808FA02F42340A3426ED176
:100C30004E68012E05D0022E03D0112E01D0122EA7
:100C400012D186684FEA420C05FA0CF7BE43CF6812
:100C500007FA0CF7374387604668A6430C79C4F35C
:100C60000014944034434460C668570005FA07FCFA
:100C70008C6826EA0C06BC403443C4604C68022CE5
:100C800001D0122C13D1D40800EB8404A346D4F86D
:100C9000209054074FEAD46A0EFA0AF629EA0609A8
:100CA0000E6906FA0AF646EA0906CBF820600468DF
:100CB0000E7924EA0C0406F00306BE4026430660C3
:100CC0004C68E4006FD53B4C266846F480462660AD
:100CD000246822F0030604F480440094364C344423
:100CE000A446D4F808489607360F0EFA06F7BC4318
:100CF000324FB84201D100272EE0314FB84201D126
:100D0000012729E02F4FB84202D1022724E04AE010
:100D10002D4FB84201D103271EE02C4FB84201D11C
:100D2000042719E02A4FB84201D1052714E0294FC2
:100D3000B84201D106270FE0274FB84201D107275B
:100D40000AE0264FB84201D1082705E0244FB842F7
:100D500001D1092700E00A27B7402743CCF80878DB
:100D6000204E34684F689C43FF0300D51C43346019
:100D70001C4E361D34684F689C43BF0300D51C438E
:100D80003460184E083634684F689C43FF0200D523
:100D90001C433460134E0C3634684F689C43BF02CA
:100DA00000D51C433460521C102AFFF43BAFBDE851
:100DB000F88F00004438024000300140000002403B
:100DC0000004024000080240000C024000100240F3
:100DD0000014024000180240001C024000200240A3
:100DE00000240240003C0140426931EA020200D185
:100DF0000904816170470AB1816170470904FBE70A
:100E00000148806870470000140000200248816893
:100E10000278114481607047140000200B4810B51F
:100E2000016841F400710160016841F48061016072
:100E3000016841F480710160032000F065F80F2023
:100E400000F006F800F024F8002010BD003C02403D
:100E500070B50D4D04464FF47A712878B1FBF0F06F
:100E60000A490968B1FBF0F000F061FC48B9102CA8
:100E700007D200222146501E00F026F800206C60A8
:100E800070BD012070BD0000140000202000002073
:100E90000C4882B0016841F480410160006800F4B0
:100EA000804000900748001F016841F080510160B8
:100EB0000068002200F0805000900F21901E02B0C8
:100EC00000F002B844380240F0B40E4B1B680C46E8
:100ED000C3F30223C3F10705042D00D90425191D0E
:100EE000072901D2002300E0DB1E012606FA05F1E6
:100EF000491E214099409E40761E16403143F0BC69
:100F000001F0FFB90CED00E0064900F007020868A7
:100F10004FF6FF03184040EA0220034A10430860DE
:100F2000704700000CED00E00000FA052DE9F047E5
:100F30000E46050065D0DFF81481D8F80000F7B23E
:100F400000F00F00B04207D288F80070D8F8000017
:100F500000F00F00B04254D128683D4C810712D5F3
:100F6000400703D5206840F4E0502060287800074F
:100F700003D5206840F4604020602068A96820F014
:100F8000F000084320602878C0072DD030496868F9
:100F90000839012812D0022813D0032811D009687B
:100FA000890700292DDA216821F00301014321601E
:100FB000FFF726FF814641F2883A0EE0096889036F
:100FC000EFE709688901ECE7FFF71AFFA0EB0901D9
:100FD000514502D90320BDE8F0872068696800F018
:100FE0000C00B0EB810FEFD1D8F80010404601F0B3
:100FF0000F01B14207D90770006800F00F00B0423E
:1010000001D00120E7E72878400705D52068E96886
:1010100020F4E050084320602878000706D52068B7
:10102000296920F4604040EAC100206000F038F8EF
:101030002168084AC1F30311515CC84006490860A1
:1010400006480068FFF704FF0020C4E7003C0240A8
:10105000083802407C4700082000002018000020CB
:101060000448054900680968044AC1F38221515CBB
:10107000C840704720000020083802408C47000814
:101080000448054900680968044AC1F34231515CCB
:10109000C840704720000020083802408C470008F4
:1010A000154810B5006810F00C02144813D014490C
:1010B000042A0FD0082A0ED10F4C241F226823685F
:1010C00002F03F025B0207D52068C0F38810A0FB46
:1010D000010106E0084610BD2168C1F38811A1FB9B
:1010E00000010023FFF7DEF82168C1F30141491C2C
:1010F0004900B0FBF1F010BD083802400024F400B4
:1011000040787D012DE9F84F040076D02078DFF893
:1011100038A3CE4DC00749D0DAF800105046C1F3CD
:101120008101012908D00068C0F3810002280AD19A
:10113000281D0068400206D52868800336D56068FF
:101140000028E2D032E06068B0F5803F10D0B0F502
:10115000A02F286810D020F480302860286820F460
:10116000802028606068A0B1FFF74AFE06460CE0C8
:10117000286840F48030F4E740F480202860F7E7E6
:10118000FFF73EFE801B642873D828688003F7D5DC
:101190000CE0FFF735FE064605E000BFFFF730FE26
:1011A000801B6428F0D828688003F7D42078DFF803
:1011B000A08280074FF000093ED5DAF800105046B3
:1011C00011F00C0F09D00068C0F3810002280BD188
:1011D0009D48001F0068400206D42868800715D586
:1011E000E068012809D111E0E068B8B10120C8F831
:1011F0000000FFF705FE064605E020E1FFF700FED0
:10120000801B0228C0D828688007F7D52868216984
:1012100020F0F80040EAC10028600DE0C8F8009016
:10122000FFF7EEFD064604E0FFF7EAFD801B02280B
:101230001FD828688007F7D42078000722D5824E6F
:10124000844861696C3671B101210160FFF7D8FDF6
:10125000074604E0FFF7D4FDC01B022809D8306818
:101260008007F7D50EE0C0F80090FFF7C9FD0746EC
:1012700005E082E0FFF7C4FDC01B02287DD830687E
:101280008007F7D42078400768D5DFF8BCB1002785
:101290000BF1380BDBF80000C0000BD4DBF80010BA
:1012A00041F08051CBF80010DBF80000012700F07E
:1012B00080500090684E3068C00510D4306840F40B
:1012C00080703060FFF79CFD009005E0FFF798FD0F
:1012D0000099401A022850D83068C005F6D55A4EF9
:1012E000A068683601280FD00528306810D020F09B
:1012F00001003060306820F004003060A068B8B1B0
:10130000FFF77EFD00900FE0306840F00100F4E749
:1013100040F004003060F7E7FFF772FD0099411AD2
:1013200041F28830814266D830688007F4D50EE0FB
:10133000FFF766FD009007E0FFF762FD0099411A94
:1013400041F28830814256D830688007F4D42FB1FA
:10135000DBF8001021F08051CBF80010A069D0B369
:10136000DAF800205146C2F38102022A4AD002284C
:10137000484607D0C8F8600000E03CE0FFF740FDB9
:1013800004463BE04746C8F86000FFF739FD0646D3
:1013900005E000BFFFF734FD801B02282BD828682A
:1013A0008001F7D4D4E907010843A16A2B4A490810
:1013B00002EB0141626A41EA8211084394F82C1061
:1013C00040EA01612048001F016001203866FFF7F4
:1013D00017FD044605E034E0FFF712FD001B02286C
:1013E00009D828688001F7D52BE000BFFFF708FD7A
:1013F000001B022802D90320BDE8F88F286880016D
:10140000F4D41EE00128F7D00868E26900F48001F6
:10141000914214D1226A00F03F0191420FD147F668
:10142000C071626A0140914209D1A26A00F4403160
:10143000914204D1E16A00F07060884201D001203D
:10144000DAE70020D8E70000083802400038024000
:1014500000004742800E4742007000400000FFFF3E
:1014600070B5040005D00025A56294F8510010B1B4
:1014700006E0012070BD84F85050204600F030F89E
:10148000022084F851002068016821F040010160C9
:10149000D4E901010843D4E9031211430843616907
:1014A0000843218B01F400710843E1690843216A74
:1014B0000843A16A084321680860A069042101EA81
:1014C0001040616A0843216848602068C16921F4BE
:1014D0000061C1616565012084F85100002070BD84
:1014E00010B586B0044614216846FEF725FF14495E
:1014F0002068884221D113480021026842F48012FA
:101500000260006800F4801005900E4814380268EC
:1015100042F020020260006800F0200005904FF4C5
:10152000607000900220CDE90101032003900520A6
:10153000049069460448FFF76DFB06B010BD00003B
:101540000050014044380240001402402DE9F84F99
:10155000044690F8500000270A9E1D4692468B468E
:101560004FF0010901280ED0012084F85000FFF748
:1015700047FC804694F85100616801280CD0B1F511
:10158000827F07D102E00220BDE8F88FA16809B987
:10159000042801D00227C2E0BBF1000F27D0BAF126
:1015A000000F24D01DB394F85100042802D0052068
:1015B00084F8510000206065C4F838A0E587A5874D
:1015C000C4F830B0E586A5862064606420680168B0
:1015D000490603D4016841F040010160E068B0F5BC
:1015E000006F606805D0E8B3012D46D07FE0012789
:1015F00095E008B1012D39D1206B21680088C860C1
:10160000206B801C2063E08E401EE0862EE0206868
:10161000816889070FD5E18E69B1B9F1010F0AD14F
:10162000216B0988C160206B801C2063E08E401E06
:10163000E0864FF0000920688168C9070CD0E18F6F
:1016400051B1C068A16B0880A06B801CA063E08FC3
:10165000401EE0874FF00109FFF7D2FBA0EB080026
:10166000B04200E009E001D3701C50D1E08E0028A8
:10167000CDD1E08F0028CAD13FE0206B21680078EF
:101680000873206B401C2063E08E401EE0862EE035
:101690002068816889070FD5E18E69B1B9F1010F22
:1016A0000AD1216B09780173206B401C2063E08E06
:1016B000401EE0864FF0000920688168C9070CD001
:1016C000E18F51B1C068A16B0870A06B401CA06392
:1016D000E08F401EE0874FF00109FFF791FBA0EB80
:1016E0000800B04202D3701C01D010E07EB1E08E41
:1016F0000028CDD1E08F0028CAD14246314620468D
:1017000000F054FB28B101272020606507E0032783
:1017100005E0A06818B92068C168806800900120C1
:1017200084F85100002084F8500038462CE710B5AA
:10173000401EB0F1807F01D3012010BD4FF0E024A6
:1017400060610F21601700F0DCFD0020A061072020
:101750002061002010BD10B590F83C20012A22D055
:10176000012280F83C20CA688C6822F4407222432F
:101770004C6822F4806222430C6822F40062224307
:101780000C6922F4805222434C6922F40052224315
:10179000C969002322F480420A4301684A6480F840
:1017A0003C30002010BD022010BD000070B590F844
:1017B0003C20012A32D0012480F83C40022280F8EB
:1017C0003D2003685A689D6822F070060A6832431B
:1017D0005A60134B02689A4214D0B2F1804F11D074
:1017E000104B9A420ED0104B9A420BD00F4B9A429C
:1017F00008D00F4B9A4205D00E4B9A4202D00E4BA6
:101800009A4204D1496825F080031943916080F819
:101810003D40002180F83C10084670BD022070BD9C
:10182000000001400004004000080040000C00409F
:1018300000040140004001400018004070B586B02F
:10184000044614216846FEF777FD1849206888424F
:1018500029D117480024016841F0010101600168A5
:1018600001F001010591016841F01001016000687B
:10187000022500F0100005904FF440700090CDE973
:1018800001540126CDE9034669460A48FFF7C2F92B
:101890004FF4C0400090CDE90154CDE903466946BC
:1018A0000548FFF7B7F906B070BD00000000014021
:1018B00030380240000002400010024070B504467B
:1018C00090F83C000D4601280DD0012684F83C60BC
:1018D000022084F83D0042B1042A18D0082A2AD0F8
:1018E0000C2A4DD139E0022070BD206800F09AFB2F
:1018F0002068816941F0080181612068816921F0D7
:1019000004018161206881692A69114311E020681E
:1019100000F0B8FB2068816941F4006181612068B2
:10192000816921F480618161206881692A6941EAC5
:101930000221816124E0206800F0DAFB2068C1699F
:1019400041F00801C1612068C16921F00401C16151
:101950002068C1692A69114311E0206800F0FCFB8E
:101960002068C16941F40061C1612068C16921F446
:101970008061C1612068C1692A6941EA0221C161AF
:1019800084F83D60002084F83C0070BD10B5040070
:1019900003D094F83D0010B107E0012010BD0020F5
:1019A00084F83C00204600F00DF8022084F83D0049
:1019B000211D206800F0D2FA012084F83D000020AB
:1019C00010BD000008B500680649884208D10648E5
:1019D000016841F001010160006800F00100009021
:1019E00008BD0000000001404438024070B504000A
:1019F00004D094F83900002510B106E0012070BD34
:101A000084F83850204600F023F8242084F8390068
:101A10002068C16821F40051C160204600F0C4FB79
:101A20002068016921F4904101612068416921F039
:101A30002A0141612068C16841F40051C160E56339
:101A4000202084F8390084F83A00002070BD00009E
:101A500010B586B0044614216846FEF76DFC1349A4
:101A60002068884220D11248016841F010010160CD
:101A7000006800F0100005900D481438016841F02E
:101A8000020101600068694600F002000590C02074
:101A90000090022001900120029003200390072073
:101AA00004900448FFF7B6F806B010BD00100140DE
:101AB0004438024000040240FEE700000E4810B522
:101AC0000C4901600321416000214FF43022816004
:101AD000C0E903124161017641768176C1760177D2
:101AE0004177FEF7C3FF002803D0BDE81040FEF7A2
:101AF00058BF10BD00640040F800002010B5A4B02D
:101B00001C221C496846FEF7FEFB0021684601F0D6
:101B1000C7FE194C17491C2220601C3107A8FEF78C
:101B2000F2FB002107A801F0BBFE124960601C22F5
:101B300038310EA8FEF7E7FB00210EA801F0B0FE39
:101B40000C49A0601C22543115A8FEF7DCFB0021D3
:101B500015A801F0A5FE0749E0601C2270311CA801
:101B6000FEF7D1FB00211CA801F09AFE206124B0F1
:101B700010BD0000F046000800000020F0B587B05E
:101B800014216846FEF7D8FB29480024016841F07B
:101B900001010160016801F001010591016841F056
:101BA00002010160016801F002010591016841F044
:101BB00008010160016801F008010591016841F028
:101BC00080010160016801F080010591016841F028
:101BD00020010160016801F020010591016841F0D8
:101BE000100101600068134E00F010000590002203
:101BF0003C213046FFF7FFF80F4F002240213846C6
:101C0000FFF7F9F83C2000900125CDE90154694621
:101C100030460394FEF7FEFF40200090CDE90154CA
:101C2000694638460394FEF7F5FF07B0F0BD0000A3
:101C300030380240001C024000140240104810B529
:101C40000E4901604FF48271416000218160C160E2
:101C50004FF400720161C0E905123022C0E907218A
:101C6000416281620A21C162FFF7FAFB002803D0BA
:101C7000BDE81040FEF795BE10BD000000500140C9
:101C80007403002010B592B000240F941C21684604
:101C90001094FEF751FB202107A8FEF74DFB2B48BF
:101CA0002949C0E900148460C4600461446184610E
:101CB000FFF76CFE08B1FEF774FE0F940FA92348DE
:101CC0001094FFF773FD08B1FEF76BFE6020CDE9BD
:101CD00000040294039404940594002269461B486E
:101CE0000694FFF7EBFD08B1FEF75BFE04226946A0
:101CF0001648FFF7E3FD08B1FEF753FE08226946D8
:101D00001248FFF7DBFD08B1FEF74BFE0C226946D7
:101D10000E48FFF7D3FD08B1FEF743FE0794089481
:101D200009944FF400500A94CDE90B4007A90748E5
:101D30000E94FFF710FD08B1FEF733FE0348FFF7DE
:101D40007DFD12B010BD000000000140CC0300205A
:101D50000D4810B50B4901600C49416000214FF45A
:101D600080628160C0E903120C22C0E90521C161D3
:101D7000FFF73CFE002803D0BDE81040FEF711BE7F
:101D800010BD0000001001400C040020A0860100DE
:101D9000FEE7704730B4034C4466034C846630BCA5
:101DA00001F08ABEB93A0008C73A000838B50446BF
:101DB0001248134B0068B0FBF3F04FF47A735843AA
:101DC00000906068B0F5827F0DD10B460092002232
:101DD0008021204600F016F870B1606D40F02000C0
:101DE0006065032038BD009830B1401E0090206827
:101DF0008068C0430006F6D5002038BD20000020D2
:101E000000366E012DE9F0411D4617460E46044688
:101E1000DDF8188008E0681C06D0FEF7F1FFA0EBA3
:101E20000800A8420BD255B12068806836EA00004D
:101E300030D00020B842EED10020BDE8F08120680B
:101E4000416821F0E00141606068B0F5827F0BD10C
:101E5000A068B0F5004F02D0B0F5806F04D12068C3
:101E6000016821F040010160A06AB0F5005F09D16E
:101E70002068016821F4005101602068016841F484
:101E800000510160012084F85100002084F85000C6
:101E90000320D2E70120CDE7012001F0F5FCFBE7AC
:101EA00010B5FEF7B3FF02F04FFB012803D0BDE8E9
:101EB000104002F0DBBA10BD30B593B03021684657
:101EC000FEF73AFA14210CA8FEF736FA1A48002554
:101ED000016841F080510160006800F0805011906D
:101EE0001648016841F4404101600068022400F492
:101EF0004040119001200090000401908001CDE944
:101F00000640192008904FF4A870CDE90904042078
:101F10000B906846FFF7F6F80CA90F2081E8310016
:101F20004FF4A0500F90E002109005210CA8FEF78E
:101F3000FDFF13B030BD000040380240007000408B
:101F40000548016841F47001016003494FF00060E9
:101F5000803908607047000088ED00E0F0B5026845
:101F6000254C264D264E274F274B4FF0804CA04244
:101F700009D0604507D0A84205D0B04203D0B8428E
:101F800001D0984204D122F0700E4A6842EA0E0253
:101F9000A0421BD0604519D0A84217D0B04215D03E
:101FA000B84213D0984211D0184DA8420ED0184D07
:101FB000A8420BD0174DA84208D0174DA84205D013
:101FC000164DA84202D0164DA84203D122F4407506
:101FD000CA682A434D6922F080022A4302608A6857
:101FE000C2620A688262A04201D0984201D10969A6
:101FF000016301214161F0BD000001400004004087
:1020000000080040000C0040000401400040014076
:10201000004401400048014000180040001C0040FE
:1020200000200040F0B5026A22F001020262036A59
:1020300042688469124E24F073050C682C4323F027
:1020400002058B682B430D4DA84201D0B04205D14B
:1020500023F00807CB683B4323F00403A84201D0D8
:10206000B04205D14D6922F4407215438A692A4372
:1020700042608461496841630362F0BD0000014031
:1020800000040140F0B5026A22F010020262026A06
:10209000436884690D6824F4E64444EA05248D68A5
:1020A00022F0200242EA05120F4D104EA84201D044
:1020B000B04206D1CF6822F0800242EA071222F035
:1020C0004002A84201D0B04207D14D6923F44063D9
:1020D00043EA85038D6943EA850343608461496867
:1020E00081630262F0BD0000000001400004014075
:1020F000F0B5026A22F480720262026A4368C4691F
:1021000022F4007224F073050C68124E2C438D6883
:1021100042EA05220E4DA84201D0B04206D1CF6856
:1021200022F4006242EA072222F48062A84201D02F
:10213000B04207D14D6923F4405343EA05138D693A
:1021400043EA05134360C4614968C1630262F0BD9C
:10215000000001400004014030B5026A22F48052C0
:102160000262046A4268C3690D6823F4E64343EAE5
:1021700005238D6824F4005444EA0534084DA84230
:1021800002D0084DA84204D14D6922F4804242EAAF
:1021900085124260C36149680164046230BD000079
:1021A00000000140000401402DE9F04104460068B0
:1021B0000169E26821F44051114301612169A0687D
:1021C000E26908436169114308432168CA6849F21A
:1021D0000C639A430243CA6020684169A26921F4F2
:1021E000407111434161E069192764253226B0F539
:1021F000004F354A354920684FF0000806D0884224
:1022000001D0904236D1FEF73BFF35E0884201D045
:10221000904202D1FEF734FF01E0FEF721FF616832
:102220004A18A0FB070148EB0803FEF73BF80146FC
:10223000B0FBF5F00201B1FBF5F06FF01803584365
:1022400001EB800006EBC000B0FBF5F000F0F800F9
:1022500002EB4002B1FBF5F0584301EB800006EBC6
:10226000C000B0FBF5F000F0070021681044886062
:10227000BDE8F081FEF7F4FE61688B0F8A00A0FBD9
:102280000701FEF70FF80146B0FBF5F06FF01802FA
:10229000504301EB800006EB0010B0FBF5F000F0BE
:1022A000F002B1FBF5F002EB0012B1FBF5F06FF0BC
:1022B0001803584301EB800006EB0010B0FBF5F06B
:1022C00000F00F00D1E700000014014000100140B1
:1022D000FEE703B401984100009850EAC12018BFFE
:1022E00004204A0D18BF40F0010040F2FF72B2EB2B
:1022F000515F08BF40F00200012808BF052002B06E
:1023000070470907090E002804DB00F1E02080F87F
:102310000014704700F00F0000F1E02080F8141D59
:10232000704700000000000070B5C1482DED020BA1
:102330002DED0E8B82B0119D25F000449FEDBEDB8C
:102340009FEDBFEB84423EDBA4F140511098A1F118
:102350007F6108430FD0BC48844202DC28D110982A
:1023600030B39DED100B02B0BDEC0E8B02B0BDE89A
:10237000704000F0A6BC9DED100B53EC1D2B51ECF2
:10238000100BFDF7E4FF9DED100B41EC180B53EC27
:102390001E2B51EC100BFDF7DAFF53EC182BFEF758
:1023A0002AF941EC100B02B0BDEC0E8B02B070BDEF
:1023B000012000F0CDFC02B0BDEC0E8B02B0BDE8F8
:1023C000704000F095BCA1489FEDA18B844256DA85
:1023D0009DED100BB4F1795F0ADA51EC100BFFF7A9
:1023E00078FF042808BF00F093FC9DED100BDAE79E
:1023F00053EC102B51EC100BFDF7A9FF41EC190B1E
:1024000095480621B0EE490AF0EE690A784400F0DA
:10241000DCFB53EC192B51EC100BFDF798FF41EC52
:102420001A0B8E48B0EE490AF0EE690A042178448E
:1024300000F0CBFB53EC192B51EC100BFDF787FF91
:1024400053EC182BFEF7D7F841EC100B51EC1A0B9C
:1024500053EC102BFEF776F9CDE900019DED000B52
:1024600053EC102B9DED100B51EC100BFDF76FFF93
:102470009DED101B53EC112BFEF7BDF8D2E09DED46
:10248000100B51EC100B00F043FD53EC182BFEF732
:1024900056F99FED730BCDE9000153EC102B9DED28
:1024A000000B51EC100BFDF752FF41EC190B6E487D
:1024B0000621B0EE490AF0EE690A784400F085FB87
:1024C00053EC192B51EC100BFDF741FF41EC1B0BAA
:1024D0006648B0EE490AF0EE690A0421784400F03B
:1024E00074FB53EC192B51EC100BFDF730FF53EC40
:1024F000182BFEF780F841EC1C0B51EC190B01F086
:10250000AFFD41EC180B5A489FED5BABA04222DCBB
:1025100053EC1C2B51EC1B0BFEF714F9CDE9000119
:102520009DED000B51EC180B53EC102BFDF70FFF3A
:1025300053EC182BFEF75FF853EC1A2BFDF707FF4F
:1025400053EC1D2BFEF7F8F853EC1E2BFEF7F7F8B3
:1025500041EC100B5FE08DED008B002000909DEDB5
:10256000000B51EC180B53EC102BFEF744F89DEDCB
:10257000000B41EC1E0B53EC102B51EC100BFDF734
:10258000E6FE53EC192BFEF7DAF853EC1E2BFEF7A0
:10259000D9F841EC190B53EC1C2B51EC1B0BFEF73B
:1025A000D1F841EC1B0B53EC1A2B51EC190BFDF736
:1025B000CEFE53EC1D2BFEF7C2F841EC190B53EC89
:1025C0001A2B51EC180BFDF7C2FE53EC1B2BFDF739
:1025D000BEFE53EC192BFEF7AFF89DED000B41EC5E
:1025E000180B53EC1A2B51EC100BFDF7B0FE9FEDBE
:1025F000249B53EC192BFEF7A2F841EC100B51EC85
:10260000180B53EC102BFEF797F853EC192BFEF731
:1026100096F841EC100B002D3FF7C5AE51EC100BB6
:1026200081F0004141EC100BBDE60000000000000D
:102630000000F03F00000000075C143326A6913C28
:10264000182D4454FB21F93F0000F07F0000E03FCB
:10265000000000000000F03F98230000A6230000C7
:10266000000000000000E03FEA220000F822000025
:102670003333EF3F00000000000000000000004086
:10268000182D4454FB21E93F70B59B482DED020BFA
:102690002DED068B079D25F00044A04218DC9748DD
:1026A000844202DC0AD1069840B19DED060BBDECD8
:1026B000068B02B0BDE8704000F003BB002DCCBF1C
:1026C0009FED8F0B9FED900BBDEC068B02B070BDA4
:1026D0008F48A04215DD8F48A042D8BF4FF0FF348D
:1026E00058DD9DED060B51EC100BFFF7F2FD0428B1
:1026F00008BF00F00DFB9DED060BBDEC068B02B094
:1027000070BD9DED060B51EC100B00F001FCCDE906
:10271000060181489FED828BA0423CDD8248A042A9
:102720001FDD00249FED82AB9DED060B53EC1A2BB1
:1027300051EC100BFDF75FFF9DED060B41EC190B03
:1027400053EC1A2B51EC100BFDF701FE53EC182B38
:10275000FDF7F2FF53EC192BFDF7F4FFCDE906016D
:1027600049E09DED060B012453EC182B51EC100BA6
:10277000FDF741FF9DED060B41EC190B53EC182BB7
:1027800051EC100BFDF7D8FF53EC192BFDF7DAFFD6
:10279000CDE906012FE06848A0421FDD02249FED2D
:1027A000689B9DED060B53EC192B51EC100BFDF7BC
:1027B000CEFD53EC182BFDF71EFF9DED060B41ECF3
:1027C000180B53EC192B51EC100BFDF7B5FF53EC24
:1027D000182BFDF7B7FFCDE906010CE09DED060BC8
:1027E000032453EC102B9FED580B51EC100BFDF70D
:1027F000A9FFCDE906019DED060B53EC102B51EC22
:10280000100BFDF7A4FD41EC180B53EC182BFDF752
:102810009EFD41EC190B4E480621B0EE490AF0EE40
:10282000690A784400F0D1F953EC182B51EC100BE5
:10283000FDF78DFD41EC180B4648B0EE490AF0EE6D
:10284000690A0521784400F0C0F953EC192B51ECCA
:10285000100BFDF77CFD41EC100B51EC180B53EC09
:10286000102B002C0EDAFDF7C6FE9DED061B53EC77
:10287000112BFDF76CFD9DED061B53EC112BFDF7A5
:102880005EFF35E0FDF7B7FE9DED061B53EC112B07
:10289000FDF75DFD41EC100B2F48784400EBC400C0
:1028A00090ED001B51EC100B53EC112BFDF744FF86
:1028B0009DED061B53EC112BFDF73EFF41EC100B79
:1028C0002648784400EBC40090ED001B51EC100B3F
:1028D00053EC112BFDF733FF41EC100B002DA2BF81
:1028E000BDEC068B02B070BD51EC100B81F00041C5
:1028F00041EC100B01E70000000010440000F07FE5
:10290000182D4454FB21F93F182D4454FB21F9BFE5
:102910000000DC3F0000203E0000F33F000000000C
:10292000000000000000F03F0000E63F0000000053
:102930000000000000000040008003400000000094
:10294000000000000000F83F000000000000F0BFA1
:102950003A200000F01F00007A1F0000321F000024
:1029600070B56B4E2DED040B2DED028B82B0DDF8B2
:102970001CC0DDE905235C422CF000411C4341EA08
:10298000D474049D22F00040B44205D86C422C431C
:1029900040EAD474B4420BD99DED061B9DED040BA7
:1029A00002B0BDEC028B04B0BDE8704000F093B9FA
:1029B000ACF14054A4F17F641C430BD0022404EA20
:1029C000AC7444EAD27405439FED538B9FED542BB6
:1029D00007D015E09DED040B51EC100B00F0D3F97E
:1029E00042E0002C11BF012C9DED040B02B0BDECA8
:1029F000028B04BF04B070BD022C38D0032C3BD036
:102A00000B439FED491B9FED4A0B0AD0B14218D1F1
:102A1000B04209D121F0804120F08040079105901B
:102A20000FE0002A15DA10E0434B7B44002C08BF6E
:102A300093ED000B0DD0012C10D0022C17D0032CDD
:102A40001AD0B0421DD1002A03DAB0EE410AF0EEEE
:102A5000610A02B0BDEC028B04B070BD93ED000BB7
:102A600051EC100B81F0004141EC100BF1E7B0EE9E
:102A7000480AF0EE680AECE7B0EE420AF0EE620AAD
:102A8000E7E7401A00153C28C8BF8DED000B19DCA4
:102A9000BCF1000FBEBF10F13C0F9FED290B8DED77
:102AA000000B0FDB9DED060B53EC102B9DED040B83
:102AB00051EC100BFDF746FE00F02AFA00F063F926
:102AC000CDE90001002C08BF9DED000BC1D0012C09
:102AD00010D0022C9FED1C0B53EC102B9DED000B26
:102AE00051EC100B0DD0FDF727FE53EC182BFDF722
:102AF00023FEB9E7019880F0004001909DED000BA6
:102B0000A7E7FDF719FE53EC182BFDF718FEABE70E
:102B10000000F07F00000000182D4454FB21094004
:102B2000182D4454FB2109C0182D4454FB21F9BF32
:102B3000182D4454FB21F93F621E000000000000E4
:102B40000000000000000000075C143326A6A13C32
:102B500000B52DED048BB0EE409AF0EE609A83B094
:102B600051EC190BFDF75DFE41EC180B18EE100A45
:102B700018EE901A8DED008B002818BF0120084335
:102B800020F00040C0F17F6000F1E040C00F14D0A1
:102B900019EE101A19EE900A8DED009B002918BF4E
:102BA0000121084320F00040C0F17F6000F1E040C7
:102BB000C00F04BF012000F0CBF8B0EE480A03B00C
:102BC000F0EE680ABDEC048B00BD70B504462DED37
:102BD000028B4D1E00EBC500B0EE408AF0EE608A1D
:102BE00090ED000B35F0060017D053EC182B51EC8C
:102BF000100BFDF7ACFB41EC100B6D1E04EBC50098
:102C000090ED001B51EC100B53EC112BFDF7F3FC76
:102C100041EC100B35F00600E7D1022D36D0042D23
:102C20001CD0062D1CBFBDEC028B70BD53EC182BC5
:102C300051EC100BFDF78BFB94ED0A1B53EC112BA1
:102C4000FDF7D9FC53EC182BFDF781FB94ED081B25
:102C500053EC112BFDF7CFFC41EC100B53EC182B70
:102C600051EC100BFDF773FB94ED061B53EC112B8D
:102C7000FDF7C1FC53EC182BFDF769FB94ED040B39
:102C800053EC102BFDF7B7FC41EC100B53EC182B59
:102C900051EC100BFDF75BFB94ED021B53EC112B79
:102CA000FDF7A9FC53EC182BFDF751FB94ED001B2D
:102CB00053EC112BFDF79FFCBDEC028B41EC100B8C
:102CC00070BD10B553EC102B51EC100BFDF793FCBD
:102CD00041EC100B10BD10B553EC112B51EC100B47
:102CE000FDF789FC41EC100B10BD00000000000056
:102CF0009FED050B10B553EC102B51EC100BFDF7AD
:102D000021FD41EC100B10BD000000000000000090
:102D10009FED050B10B553EC102B51EC100BFDF78C
:102D200016FB41EC100B10BD00000000000000106D
:102D300002E008C8121F08C1002AFAD17047704784
:102D4000002001E001C1121F002AFBD170470000E2
:102D50000149086070470000F4000020D0ED000A2F
:102D6000F4EEC00AF1EE10FA01DD80ED000AD0EDBC
:102D7000000AB1EE400AF4EEC00AF1EE10FA01D2F8
:102D800080ED000A704710B541EC100BFFF77CFC9A
:102D900051EC100B10BD00002DED028B84B000240F
:102DA0009FED558ADFED558A554D44F6206600BFEC
:102DB00004EBC40000EB400005EB8000B0EE481AC5
:102DC000F0EE680AB7EE080A324633460321FEF7F2
:102DD000E1FF641C042CEBDBDFF82891DFF828818D
:102DE0004FF4257A6F4600BFB9F804204FF47A708B
:102DF00012FB00F0524690FBF2F003B2B9F800006B
:102E00004FF47A7410FB04F090FBF2F004B2B9F8BE
:102E100006004FF47A7610FB06F090FBFAF0B9F852
:102E2000021000B2642611FB06F191FBFAF101F2E7
:102E300014518EB2E11A0A1800EE102AE218131A81
:102E4000B8EEC00A091A10448DED000A00EE103ADF
:102E50005FF00004B8EEC00A8DED010A00EE101A12
:102E6000B8EEC00A8DED020A00EE100AB8EEC00AF4
:102E70008DED030A07EB840004EB8401D0ED000A1A
:102E800008EB4100B0F9020000EE100A04EBC400A8
:102E900000EB4000B8EEC00A05EB800000F02AFD10
:102EA000641C042CE6DB95ED600ABDEEC00A10EE52
:102EB000100A95ED450A03B2BDEEC00A10EE100AE5
:102EC00095ED2A0A02B2BDEEC00A10EE100A95ED89
:102ED0000F0A01B2BDEEC00A10EE100A00B2FDF7F3
:102EE00017FD0A4801684E63006840F2AA518163E9
:102EF000012000F0C9FC77E700000000CDCCCC3DFC
:102F00003C410020AE440020B8440020CC03002007
:102F100082B0CDE9000121F0004001909DED000B51
:102F200002B051EC100B704700F036FB012240213B
:102F30000648FDF760FF00BF00F05EFB00F008F8F8
:102F400000F040FA012000F09FFCF5E70014024079
:102F500010B5FF4CFF482DED108B94ED010AD4ED18
:102F6000010A20EE20FA94ED010AD4ED020A20EEC7
:102F700020CA94ED010AD4ED030A60EE20BA94ED64
:102F8000010AD4ED040A60EE20CA94ED020AD4EDE1
:102F9000020A20EE20DA94ED020AD4ED030A20EEB4
:102FA000209A94ED020AD4ED040A20EE20BA94EDA2
:102FB000030AD4ED030A60EE20AA94ED030AD4EDCF
:102FC000040A20EE20AA94ED040AD4ED040A60EE6F
:102FD000209A90ED040A84ED080A90ED050A84ED2C
:102FE000090A90ED060A84ED0A0AB0F9001000EE15
:102FF000101AB8EEC00A84ED0B0AB0F9021000EE08
:10300000101AB8EEC00A84ED0C0AB0F9041000EEF4
:10301000101AB8EEC00A84ED0D0AB0F9061000EEE1
:10302000101AB8EEC00A84ED0E0AB0F9081000EECE
:10303000101AB8EEC00A84ED0F0AB0F90A0000EECB
:10304000100AB8EEC00A84ED100AFDF7D9FEA0649C
:10305000A06C616C401A00EE100AB8EE400ADFED79
:10306000BE0AA06CC0EE208A606494ED0B0AD4ED19
:103070000B0A94ED0C1A20EE200AD4ED0C0A00EE97
:10308000810AD4ED0D0A94ED0D1A00EE810A00F0CC
:1030900053FAD4ED0B0A60EE800AC4ED0B0AD4EDAE
:1030A0000C0A60EE800AC4ED0C0AD4ED0D0A20EE85
:1030B000800A84ED0D0A9FEDA90AB6EE001A84ED90
:1030C0000E0A84ED0F0A84ED100A71EE6A0A94ED7F
:1030D0000E0AB0EE008A39EE6CEA20EE080A70EEB5
:1030E000E9EA7BEE2B1A31EE4D1A60EE2E0A94EDD2
:1030F0000F0A31EE692A71EE6ADA20EE080A40EE14
:103100000E0A94ED100A20EE080A40EE210A94ED12
:103110000E0A79EE2C1A7BEE6BCA20EE080A60EEDE
:10312000A00A20EE210AD4ED0F1A61EE881A01EEF2
:10313000820AD4ED101A3AEE4C2A61EE881A01EE9A
:10314000820AD4ED0E1A3AEE0C2A61EE881A40EE8D
:10315000000A21EEAC9AD4ED0F1A10EE900A61EE3F
:10316000881A01EE829AD4ED101A61EE881A01EEE7
:10317000AD9AFDF75EF941EC100BFFF7E9FC51EC5D
:10318000100BFDF769F97FEE4D0A00EE100A7CEE98
:103190000A3A94ED104A70EEEA0A60EE081A29EE37
:1031A000080A63EE882A30EEA93A61EE8E0A21EE13
:1031B000AE1A2CEE882A40EE230A7BEE8B3A00EE04
:1031C0002C1A61EEA31AD4ED0D3A40EE2D1A94EDAF
:1031D0000C0A20EE030A03EEE20AD4ED0F3A63EE86
:1031E000A13A44EE603A94ED0B4A30EE230AD4ED56
:1031F0000D3A63EE823AB5EEC00A44EE433A94EDDE
:10320000103A94ED0E4A23EE013A04EE613A73EE61
:10321000831A94ED0B3A63EE222A94ED0C3A43EEB6
:10322000422A94ED0E2A62EE200A94ED0F2A42EE15
:10323000410A72EEA00AF1EE10FA41D0F5EEC01A82
:10324000F1EE10FA3CD0F5EEC00AF1EE10FA37D0EC
:103250009FED431A94ED052A60EE012A02EEA82A9A
:1032600061EE812A84ED052A94ED062A02EEA82A51
:1032700084ED062A20EE812A94ED071A02EE281A20
:1032800084ED071A94ED081A00EE081A94ED050A69
:1032900031EE000A84ED080A94ED090A94ED061A4D
:1032A00001EE880A30EE010A84ED090A94ED0A0A5B
:1032B00000EE880AD4ED070A30EE200A84ED0A0AEF
:1032C00094ED020AD4ED080A94ED091A94ED013A3E
:1032D00020EEC00AD4ED030AD4ED021A94ED032ABD
:1032E00000EEC10AD4ED040A94ED0A1A00EEC10AF8
:1032F000D4ED080A94ED0A1A00EE283A94ED010A7A
:1033000020EE200AD4ED030A00EE810AD4ED040A6F
:1033100094ED091A00EEC10AD4ED090A94ED0A1AD7
:1033200040EE281A94ED010A20EE200AD4ED020A9C
:1033300000EEC10AD4ED040A94ED081A00EE810AE9
:10334000D4ED0A0A00EE282A94ED010A0AE00000F2
:1033500098000020304500200000FA4400000000E2
:103360000AD7233C20EE200AD4ED020A94ED091A74
:10337000D4ED042A00EE810AD4ED030A94ED081A74
:1033800000EEC10A40EE282A23EE030A01EEA10A4C
:1033900002EE020A02EEA20A00F0CEF863EE000A84
:1033A000C4ED010A61EE800AC4ED020A62EE000A71
:1033B00022EE800AC4ED030A84ED040ABDEC108BF2
:1033C00010BD000070B5564C2DED068BF8EE008A4E
:1033D000B0EE008AB7EE00AA94ED030AD4ED030A1A
:1033E00094ED041A20EE280A20EE200AD4ED040AF7
:1033F00060EE880A00EEC10A30EE0A0A10EE100AEA
:10340000FDF717F894ED020AD4ED030A94ED041ABF
:1034100020EE080A41EC190B20EE200AD4ED010A37
:1034200060EE880A00EE810A10EE100AFDF701F83E
:1034300041EC100BB0EE491AF0EE691AFFF790FA62
:103440009FED389B51EC100B53EC192BFCF77FFFD1
:10345000FDF702F8354D286394ED020AD4ED040A15
:1034600094ED031A20EE280A20EE200AD4ED010A7A
:1034700060EE880A00EE810A10EE100AFCF7D9FF10
:1034800041EC100BFEF750FF53EC192B51EC100BD5
:10349000FCF75DFFFCF7E0FFE86294ED020AD4ED73
:1034A000020A94ED031A20EE280A20EE200AD4ED39
:1034B000030A60EE880A00EEC10A30EE0A0A10EE36
:1034C000100AFCF7B6FF94ED030AD4ED040A94ED5C
:1034D000021A20EE080A41EC190B20EE200AD4ED66
:1034E000010A60EE880A00EE810A10EE100AFCF76D
:1034F000A0FF41EC100BB0EE491AF0EE691AFFF78D
:103500002FFA9FED0B1B51EC100B53EC112BFCF71A
:103510001EFFFCF7A1FFA862BDEC068B70BD00008A
:10352000980000206666666666A64CC0304500209E
:103530006666666666A64C4010EE100AF6EE000A55
:10354000074960EE200AA1EB600000EE100A20EEB1
:10355000801AF7EE080A41EE400A20EE800A704712
:10356000DF59375FFDF75AFCFEF7A6FCFEF706FBB6
:10357000FEF7A4FAFEF762FBFEF784FBFEF7E8FB1A
:10358000FEF7BCFA00F087F9FEE701460020842927
:1035900000D0C81C7047000030B585B06420FDF72E
:1035A00027FB752000F0E6F81149002414228870EA
:1035B00010496846FCF7A7FE4FEA0D0505EB4400ED
:1035C000417815F8140000F035F90120FDF710FBE3
:1035D000641CE4B20A2CF1D3032000F026F9022087
:1035E00000F01EF900F074F805B0002030BD0000B6
:1035F000980000209447000870B50E2230493B2007
:1036000000F0E0F82E499FED2F1A088842BA01F128
:103610000E0002804A8852BA42808A8852BA82805A
:10362000CA8852BA14B200EE104A84810A89438BC8
:10363000F8EEC00A52BAD21A13B2C38180EE810AE0
:103640004A89858B52BA521B12B202828989C58B74
:1036500049BA491B09B241824238F3EE050AD0F853
:1036600042500560D0F84650456030EE200AD0F850
:103670004A50856080ED030A00EE103AF8EEC00A69
:103680009FED110A80EE801ADFED100AC1EE201ABC
:1036900001EE102AC0ED041AF8EEC11A81EE801A6C
:1036A000C1EE201A01EE101AC0ED051AF8EEC11A8B
:1036B00081EE801A81EE200A80ED060A70BD0000BE
:1036C000644500205CEFA6436F12834133336542AB
:1036D0002DE9F041264E002706F10E044FF49675B1
:1036E0000E2223493B2000F06DF83188A08A49BAA8
:1036F0000844A0827188E08A49BA0844E082B1880F
:10370000208B49BA084420833189608B49BA084428
:1037100060837189A08B49BA0844A083B189E08B8A
:1037200049BA0844E0830520FDF762FA7F1CAF42E6
:10373000D6DBB4F9140090FBF5F0A082B4F91600C2
:1037400090FBF5F0E082B4F9180090FBF5F02083CF
:10375000B4F91A0090FBF5F000B2608390FBF5F02D
:10376000A083B4F91E0090FBF5F0E083BDE8F08182
:1037700064450020F8B5104E044600224021304632
:10378000FDF739FB44F080000C4C3725621C20709B
:103790000123511E0A480095FDF7D8FE621C012343
:1037A000511E07480095FDF7D1FE01224021304609
:1037B000FDF721FB6078F8BD00140240980000205E
:1037C00074030020F8B5134F15460E460446002238
:1037D00040213846FDF70FFB0F4944F080003724A5
:1037E00008704C31A1F14B02087001234C390B4891
:1037F0000094FDF7ABFE08492B4632464C31074892
:103800000094FDF7A3FE012240213846FDF7F3FAAC
:103810000020F8BD0014024098000020740300202E
:10382000C006010E1C2000F005B8C006010E1B20CA
:10383000AFF30080F8B5114F0E4604460022402138
:103840003846FDF7D8FA04F07F000D4C3725621C8E
:1038500020700123511E0B480095FDF777FE26705E
:10386000621C0123511E07480095FDF76FFE0122DF
:1038700040213846FDF7BFFA0020F8BD0014024091
:10388000980000207403002010B500B9012000F05A
:10389000E1FC002010BD10B500F002FD002010BDBD
:1038A0007FB50D4604464169B0F9080081B1A169B0
:1038B00071B1FFF76AFED4E905128DE80700D4E97B
:1038C00000102B46226900F014FE039004B070BD76
:1038D000FFF75BFE03A9CDE90001208A2B4682B2E7
:1038E000D4E9001000F0D8FD012801D00020EDE758
:1038F0000398EBE700B530EEC01A80ED080AC0ED82
:10390000050A80ED0B1AD0ED141A01469FED692AC5
:1039100030EEC00AF5EEC01AB1EE400AF1EE10FA30
:103920000ED0B5EEC01AF1EE10FA02DDF0EE410A4B
:1039300001E0F0EE400AF4EEE10AF1EE10FA12DCDA
:10394000D1ED150AF5EEC00AF1EE10FA0ED0B5EE83
:10395000C01AF1EE10FA01DDB0EE410AB4EEE00A51
:10396000F1EE10FA02D2B0EE420A00BD886D01F10C
:103970003402032802D0042838D07AE091ED000AFE
:10398000104620EE010A81ED0C0A91ED0D0AD1EDF1
:10399000010A00EE810A81ED0D0A91ED0A0AD1EDCE
:1039A000020A31EE400A20EE200A81ED0E0A91ED66
:1039B000180AB8EE400AFFF7D1F991ED0C0AD1EDE3
:1039C0000D0A01F13C0030EE200AD1ED0E0A30EE76
:1039D000200A81ED0F0A91ED170AB8EE400AFFF7B1
:1039E000BDF991ED0F0A81ED100A42E091ED0A0A4E
:1039F000D1ED001A104671EE400A60EEA10AC1ED49
:103A00000C0AD1ED010A60EE810AC1ED0D0AF0EE5B
:103A1000000A00EE601A91ED090AD1ED020A31EEBA
:103A2000000A20EE200A81ED0E0A91ED180AB8EE88
:103A3000400AFFF793F991ED0C0AD1ED0D0A01F15F
:103A4000480030EE200AD1ED0E0A30EE200A81ED5A
:103A5000110AD1ED130A30EE800A81ED120A91EDC0
:103A6000170AB8EE400AFFF779F991ED120A81EDD5
:103A7000130A91ED0A0A81ED090A91ED0B0A81ED15
:103A80000A0A91ED070A81ED060A91ED080A81ED17
:103A9000070A91ED040A81ED030A91ED050A81ED13
:103AA000040A886D032802D091ED120A00BD91ED41
:103AB0000F0A00BD0000000000F1580C8CE80E0059
:103AC00080EC030A704780EC030A70472DE9F0414F
:103AD000184C0F46054666692068001D00F0F7FA8D
:103AE00038B9206890F82C1001208840A1698143E2
:103AF000A161681C07D137B12168BDE8F0410E48CB
:103B0000091D00F027BB20683544B5424560216897
:103B100005D2A068BDE8F041091D00F003BB606854
:103B2000091D00F0FFFA206B854200D22563BDE835
:103B3000F081000024000020280500202DE9F0413C
:103B4000054600F013FB2E4C2069401C20612068C4
:103B50002C4F10B1E06940B32DE0256020690128A9
:103B600029D1002606EB860007EB800000F0CCFA96
:103B7000761C072EF6D323488C3000F0C5FA214876
:103B8000A03000F0C1FA1F48B43000F0BDFA1D4863
:103B9000C83000F0B9FA1B48DC3000F0B5FA19481B
:103BA0008C3060601430A06005E02068E96AC06A6B
:103BB000884200D82560E06A401CE062E96A012082
:103BC000A26988401043A06101EB810007EB8000EF
:103BD000291D00F0BFFA00F0E9FAE06900280CD0D6
:103BE0002068E96AC06A884207D207494FF08050CE
:103BF0000860BFF34F8FBFF36F8FBDE8F081000007
:103C0000240000204C04002004ED00E010B5044620
:103C100090F8510058B101280CD002280FD0502044
:103C200080F31188BFF34F8FBFF36F8FFEE7206BD8
:103C300000F0D0FA2046BDE8104000F0CBBA10BD2D
:103C400010484FF47051420706D0C01D0D4920F0B6
:103C50000700411AC1F570510B4A00230144C2E923
:103C600000030839103A21F0070111604B600B6026
:103C70000B1AC0E9001393604FF000405360D0600E
:103C8000704700003C05002070000020144E154CC9
:103C9000A6F1C8074FF08058DFF84C9012E000BF43
:103CA00000F064FAF068C568281D00F010FA206979
:103CB000401E2061E068401EE06000F077FA284670
:103CC000FFF7A4FFE0680028EAD138680128F9D995
:103CD000C9F80080BFF34F8FBFF36F8FF2E700008A
:103CE000140500202400002004ED00E02DE9F04739
:103CF0009A46DDE9098481466FF00303206B03EBEC
:103D000082021044089D20F00706700707D050205B
:103D100080F31188BFF34F8FBFF36F8FFEE7231837
:103D20000A5C83F834200A5C12B1401C1028F6D3D8
:103D3000002784F84370072D00D30625E562C4E907
:103D40001157201D00F0EBF904F1180000F0E7F91D
:103D50002461C5F107006462A061E76484F85070D3
:103D600052464946304600F0BFF82060B8F1000FD7
:103D700001D0C8F80040BDE8F087000030B5114917
:103D800000E011460A688242FBD34B685C1884420B
:103D900003D1406818444860084643681C189442A0
:103DA00009D1084C103C2468A24209D052681A4438
:103DB00042600A6812680260814200D0086030BD2B
:103DC0000460F9E77000002006484168096829B1DD
:103DD0004168C968C9684968016370474FF0FF319D
:103DE000FAE700002400002008484068401C4FF01B
:103DF000500080F3118804D0BFF34F8FBFF36F8F53
:103E0000FEE7BFF34F8FBFF36F8FFEE77800002010
:103E10002DE9F0410546002700F078FA314E306870
:103E200008B9FFF70DFFF06805424BD1C5B308355F
:103E300068070ED005F00700C0F1080005446807C8
:103E400007D0502080F31188BFF34F8FBFF36F8FDF
:103E5000FEE72DB37068854234D822481030014601
:103E60000C6801E020460C466168A94202D2216834
:103E70000029F7D131688C4224D00768216801609D
:103E800060680837411B10290FD96019420708D014
:103E9000502080F31188BFF34F8FBFF36F8FFEE781
:103EA00010E041606560FFF769FF61687068401A63
:103EB0007060B268904200D2B060F06801430020A8
:103EC000C4E9000100F0B2FB780707D0502080F36E
:103ED0001188BFF34F8FBFF36F8FFEE73846BDE801
:103EE000F08100006000002010B5031F4FF08074C7
:103EF0001C601B1F21F001011960191F044B0B608E
:103F000014390A60091F6FF0020244380A6010BDBC
:103F1000E93D00080120FFF7B7FCFBE72DED048B1E
:103F2000002784B03C46DFED458A9FED458A454D2C
:103F300044F6206604EBC40000EB400005EB800073
:103F4000B0EE681AF0EE480AB0EE000A3246334688
:103F50000321FDF71FFF641C042CEBDBDFF8F4A04A
:103F60009FED398ADFED398A9FED399A3A4EDFF8B5
:103F7000EC90022150468DEC038AFCF735FF99F84E
:103F8000080001280AD000273B463A463946384601
:103F9000FCF7E2FC0120FFF777FCEAE70024E846A3
:103FA00008EB8400D0ED000A04EB840006EB40002F
:103FB000B0F92A0000EE100A04EBC40000EB400048
:103FC000B8EEC00A05EB8000FFF794FC641C042CDB
:103FD000E6DBB7B195ED450A0023BDEEC00A10EE51
:103FE000100A95ED2A0A02B2BDEEC00A10EE100AC0
:103FF00095ED0F0A01B2BDEEC00A10EE100A00B234
:10400000C6E795ED2A0A00231A46BDEEC00A10EE57
:10401000100A95ED0F0A01B2BDEEC00A10EE100AAB
:1040200000B2FCF799FCB6F92A006428B2DBB6F9B5
:10403000340010F1640FADDC0127ABE7CDCCCC3DF3
:1040400000000000EC42002000803B4500803BC5A2
:104050000000484200180240B8440020AE4400204E
:1040600000B52DED048B83B041EC190BFCF7D9FBA7
:1040700041EC180B18EE100A18EE901A8DED008B1B
:10408000002818BF0120084320F00040C0F17F60E5
:1040900000F1E040C00F14D019EE101A19EE900A8A
:1040A0008DED009B002918BF0121084320F000403E
:1040B000C0F17F6000F1E040C00F04BF0120FEF7B7
:1040C00047FE51EC180B03B0BDEC048B00BDD0E9EA
:1040D000013201699A60D0E901235A604A6882423C
:1040E00001D182684A60002202610868401E0860AF
:1040F00008687047034B036003F154000860802098
:10410000106070472001002000F108014FF0FF32DD
:10411000C0E90112C1600161002101607047002106
:104120000161704730B50B685A1C02D000F10802DB
:1041300002E0026904E02246546825689D42FAD9EB
:1041400053684B6099608A60516008610168491C3E
:10415000016030BD42684A6093688B609368596023
:10416000916008610168491C01607047502080F32C
:104170001188BFF34F8FBFF36F8F0A494868401C07
:10418000486001280CD10848006810F0FF0F07D0E4
:10419000502080F31188BFF34F8FBFF36F8FFEE77E
:1041A000704700007800002004ED00E008494868EE
:1041B00028B1401E486001D180F31188704750201B
:1041C00080F31188BFF34F8FBFF36F8FFEE70000BE
:1041D0007800002070B5002827D0144DA0F1080405
:1041E0006168E868014207D1502080F31188BFF36D
:1041F0004F8FBFF36F8FFEE722683AB1502080F3F4
:104200001188BFF34F8FBFF36F8FFEE7814361606B
:1042100000F07CF860686968084468602046FFF731
:10422000ADFDBDE8704000F001BA70BD6000002037
:104230004FF0E02000210161816105494FF47A725D
:104240000968B1FBF2F1491E416107210161704724
:104250002000002010B5020014D00F48806B38B148
:10426000502080F31188BFF34F8FBFF36F8FFEE7AD
:1042700000F04CF800211046FFF728FC00F0D6F9BA
:10428000002807D105494FF080500860BFF34F8FD9
:10429000BFF36F8F10BD00002400002004ED00E08C
:1042A00010B586B00024039405AA04A903A80494B9
:1042B000FFF720FFDDE903010094CDE901100023A1
:1042C0000EA11048059A00F014F90F490028486320
:1042D00011D0502080F31188BFF34F8FBFF36F8F41
:1042E0004FF0FF3008630120C8614C6106B0BDE8A3
:1042F000104000F041B806B010BD000049444C45E4
:10430000000000008D3C0008240000200248816B62
:10431000491C816370470000240000201448816B11
:1043200011B1012141627047002141628169B1FAF6
:1043300081F1C1F11F0101EB81020E4951F82230D8
:104340006BB101EB820101F108034A6852684A60CF
:104350009A4201D152684A60D1680160704750208A
:1043600080F31188BFF34F8FBFF36F8FFEE700001C
:10437000240000204C0400201CB537480168374A4F
:10438000914207D1502080F31188BFF34F8FBFF3C4
:104390006F8FFEE700683149491E884207D15020DF
:1043A00080F31188BFF34F8FBFF36F8FFEE72C4967
:1043B00008780190FF20087008788DF800009DF8BB
:1043C00000009DF8002000F0F000904207D050203F
:1043D00080F31188BFF34F8FBFF36F8FFEE79DF817
:1043E0000000204B00F0500018700720986005E096
:1043F0009DF8002052008DF80020401E9DF80020FE
:104400001206F5D49860032807D0502080F3118855
:10441000BFF34F8FBFF36F8FFEE74FF4407098608C
:10442000019808700C482030016841F47001016067
:10443000016841F070410160FFF7FAFE002058600A
:10444000FBF7E2FE0848016841F040410160FBF7DC
:10445000C7FE00201CBD000000ED00E071C20F414E
:1044600000E400E07800002034EF00E010B55020B8
:1044700080F31188BFF34F8FBFF36F8F00F072F896
:1044800018B104494FF080500860002080F3118873
:1044900010BD000004ED00E02DE9FF5F8346DDE97B
:1044A0000E87994616468A469000FFF7B1FC050034
:1044B0001CD05420FFF7ACFC040014D0002025636E
:1044C00084F85100CDE90240CDE900874B463246E1
:1044D00051465846FFF70AFC2046FFF72FFB012004
:1044E00004B0BDE8F09F2846FFF774FE4FF0FF30A0
:1044F000F6E7F0B585B0DDE90B640A9DA6B1DCB145
:10450000542700972663022684F85160002604AFE2
:10451000CDE90246CDE90057FFF7E8FB2046FFF75B
:104520000DFB049805B0F0BD502080F31188BFF357
:104530004F8FBFF36F8FFEE7502080F31188BFF3DA
:104540004F8FBFF36F8FFEE70548C16919B1806BCC
:1045500018B100207047012070470220704700000A
:10456000240000202DE9F0412E4C0027A06B40B123
:10457000206A401C2062606A00B101273846BDE80D
:10458000F0816669761C666113D16068006838B195
:10459000502080F31188BFF34F8FBFF36F8FFEE77A
:1045A0006068A1686160A060A06A401CA062FFF71B
:1045B0000BFC206BDFF87080864209D360680068CE
:1045C00080B16068C068C568686886420DD22063A3
:1045D0002068C06A00EB800158F821000128CAD980
:1045E0000127C8E74FF0FF30F1E7281DFFF76FFD07
:1045F000A86A18B105F11800FFF769FDE86A012102
:10460000A26981401143A16100EB800108EB8100A8
:10461000291DFFF79FFDE86A2168C96A8842CDD34A
:104620000127CBE7240000204C0400202DE9F047AF
:104630002C4D00242746A86B38B1FFF797FDA86BD7
:10464000401EA863A86B40B146E0502080F311885B
:10465000BFF34F8FBFF36F8FFEE72969224E012012
:10466000D1B3A6F1B40980463068E8B1F068C468F7
:1046700004F11800FFF72BFD201DFFF728FDE06A6D
:10468000AA6908FA00F11143A96100EB800109EB66
:104690008100211DFFF75EFDE06A2968C96A884232
:1046A000E2D3C5F82480DFE70CB1FFF78DFB2C6A5D
:1046B00044B14646FFF756FF00B16E62641EF9D161
:1046C00000202862686A38B1084901273807086065
:1046D000BFF34F8FBFF36F8FFFF768FD3846BDE81C
:1046E000F0870000240000200005002004ED00E019
:1046F000D0480008991E00080000000000000000DB
:10470000800000000000000000000000A848000831
:10471000153F00080000000000000000000100003C
:104720000000000000000000C4480008992D0008A7
:104730000000000000000000000100000000000078
:1047400000000000B84800081D3F000800000000FD
:104750000000000000010000000000000000000058
:1047600098480008292F0008000000000000000001
:104770000001000000000000000000000000000038
:104780000000000001020304060708090000000001
:10479000010203046B806B036C001A041B181C10CD
:1047A0001D026A2000000000555555555555C53F5E
:1047B0007D6FEB0312D6D4BF5544880E55C1C93F57
:1047C0003B8F68B52882A4BF88B20175E0EF493FEE
:1047D00009F7FD0DE13D023F4B2D8A1C273A03C02E
:1047E000C88A599CE52A004059018D1B6C06E6BF1A
:1047F00082922EB1C5B8B33F4FBB610567ACDD3FB8
:10480000182D4454FB21E93F9BF681D20B73EF3FF7
:10481000182D4454FB21F93FE2652F227F2B7A3C6F
:10482000075C143326A6813CBDCBF07A8807703C28
:10483000075C143326A6913CC4EB98999999C9BF9B
:10484000711623FEC671BCBF6D9A74AFF2B0B3BFD0
:104850009AFDDE522DDEADBF2F6C6A2C44B4A2BF90
:104860000D5555555555D53FFF8300922449C23FFC
:104870006E204CC5CD45B73F513DD0A0660DB13F30
:10488000EB0D76244B7BA93F11DA22E33AAD903F42
:1048900000000000000000006765737475726543D6
:1048A0006F6E74726F6C540072656D6F7465436FD8
:1048B0006E74726F6C6C650073686F6F74657254A0
:1048C00061736B00636861737369735461736B0028
:1048D00064656661756C745461736B00FC48000814
:1048E00000000020F8000000302D0008F449000806
:1048F000F8000020A0480000402D00080000000043
:1049000000000000000000000000000000000000A7
:104910000100000010000000000000000024F4006E
:104920000000000000000000000000000000000087
:104930000000000000000000000000000000000077
:104940000000000000000000000000000000000067
:104950000000000000000000000000000000000057
:104960000000000000000000000000000000000047
:104970000000000000000000AAAAAAAA000000008F
:104980000000000000000000000000000000000027
:1049900000000000000000000000803F0000000058
:1049A0000000000000000000000000000000000007
:1049B00000000000000000000000000000000000F7
:1049C00000000000000000000000000000000000E7
:1049D00000000000000000000000000000000000D7
:1049E000FF000000000000000000000000000000C8
:0449F00000000000C3
:04000005080001AD41
:00000001FF
