:020000040800F2
:10000000E84E002081020008092400087D21000834
:1000100005240008B1030008C52A000800000000FC
:10002000000000000000000000000000C101000806
:100030007F050008000000001D0200087924000868
:100040009B0200089B0200089B0200089B0200081C
:100050009B0200089B0200089B0200089B0200080C
:100060009B0200089B0200089B0200089B020008FC
:100070009B0200089B0200089B0200089B020008EC
:100080009B0200089B0200089B0200089B020008DC
:10009000B50300089B0200089B0200089B020008B1
:1000A0009B0200089B0200089B0200089B020008BC
:1000B0009B0200089B0200089B0200089B020008AC
:1000C0009B0200089B0200089B0200089B0200089C
:1000D0009B020008B12A00089B0200089B0200084E
:1000E0009B0200089B0200089B0200089B0200087C
:1000F0009B0200089B0200089B0200089B0200086C
:100100009B0200089B0200089B0200089B0200085B
:100110009B0200089B0200089B0200089B0200084B
:100120009B0200089B020008650400089B0200086F
:100130009B0200089B0200089B0200089B0200082B
:100140009B0200089B0200089B0200089B0200081B
:100150009B0200089B0200089B0200089B0200080B
:100160009B0200089B0200089B0200089B020008FB
:100170009B0200089B0200089B0200080000000090
:100180009B0200089B0200089B0200089B020008DB
:100190009B0200089B0200089B0200089B020008CB
:1001A00000000000000000009B020008DFF80CD0F7
:1001B00000F0ECF800480047E12D0008E84E002070
:1001C0002C4B19680868B0E8F04F80F30988BFF33A
:1001D0006F8F4FF0000080F311887047000000001F
:1001E00008480068006880F308884FF0000080F33A
:1001F000148862B661B6BFF34F8FBFF36F8F00DF15
:1002000000BF00BF08ED00E0DFF80C00016841F41A
:1002100070010160704700BF88ED00E0EFF30980D6
:10022000BFF36F8F134B1A681EF0100F08BF20ED3D
:10023000108A20E9F04F106009B44FF0500080F3AD
:100240001188BFF34F8FBFF36F8F04F055F94FF054
:10025000000080F3118809BC19680868B0E8F04F05
:100260001EF0100F08BFB0EC108A80F30988BFF3AE
:100270006F8F704728000020EFF305807047000063
:100280000648804706480047FEE7FEE7FEE7FEE730
:10029000FEE7FEE7FEE7FEE7FEE7FEE7492500088A
:1002A000AD0100082DE9F05F0546002092469B460F
:1002B00088460646814640241BE02846414647467C
:1002C000224600F053F853465A46C01A914110D3C3
:1002D00011461846224600F03AF82D1A67EB01083D
:1002E0004F4622460120002100F031F817EB0009AB
:1002F0004E41201EA4F10104DFDC484631462A4667
:100300004346BDE8F09F40EA01039B0703D009E0A4
:1003100008C9121F08C0042AFAD203E011F8013BF1
:1003200000F8013B521EF9D27047D2B201E000F84A
:10033000012B491EFBD270470022F6E710B5134689
:100340000A4604461946FFF7F0FF204610BD202A52
:1003500004DB203A00FA02F1002070479140C2F11C
:10036000200320FA03F3194390407047202A04DB4E
:10037000203A21FA02F00021704721FA02F3D0401E
:10038000C2F120029140084319467047064C074DC0
:1003900006E0E06840F0010394E807009847103455
:1003A000AC42F6D3FFF706FF0854000828540008B3
:1003B00000BFFEE710B5024800F0F4FA10BD0000DF
:1003C000B4000020F8B507460C4615461E464FF40B
:1003D00000700D49086000208860C860082008612E
:1003E000380A0A4908704F70200A8870CC70280AB1
:1003F00008714D71300A8871CE716B460A46024908
:10040000034800F0D3F8F8BDB04A0020A80000204F
:10041000B4000020F8B507460C4615461E4640F2CB
:10042000FF100D49086000208860C860082008613E
:10043000380A0A4908704F70200A8870CC70280A60
:1004400008714D71300A8871CE716B460A460249B7
:10045000034800F0ABF8F8BD984A0020A000002047
:10046000B400002010B5024800F082FD10BD00006D
:100470001C0100200146087810381823B0FBF3F265
:100480000848805CC865032A05D908686FF309002D
:10049000001D886503E008686FF309008865886DB2
:1004A00070470000AC530008014600208A6A8B693F
:1004B000CBB932B1012A0DD0022A03D0032A10D1C0
:1004C0000EE000BFCB6A03F08073B3F1807F00D1F0
:1004D000012007E0CB6AB3F1C07F00D1012001E029
:1004E00000E000BF34E08B69B3F5005F1AD132B190
:1004F000012A07D0022A03D0032A11D10AE000BF43
:1005000001200EE0CB6A03F08073B3F1807F00D14D
:10051000012006E0CB6AB3F1C07F00D1012000E0EA
:1005200000BF15E032B1012A05D0022A04D0032A07
:100530000CD103E000BF00BF012008E0CB6A03F04C
:100540008073B3F1807F00D1012000E000BF00BFC5
:10055000704730B50468246824F4802405682C6052
:10056000046863608468402C04D10468A260046855
:10057000E16003E00468A1600468E26030BD704798
:10058000704710B5024692F82030012B01D0022BA3
:1005900006D110684069084314686061002010BDEE
:1005A000506A40F4802050620120F8E7F0B504461C
:1005B0000D461E4694F8207020688368A86800B92C
:1005C00000E000BF012F01D0022F7CD103F080603A
:1005D00030B903F0006018B903F08050002873D0E0
:1005E000C3F30161022905D9606A40F4000060622A
:1005F0000120F0BD012088403060A86860B9B5F8DE
:1006000000C0E86840EA4C5C206800F5C07000EB70
:100610000110C0F800C00FE0D5E901C040EACC00ED
:10062000D5F80CC040EA0C00D4F800C00CF5C07C32
:100630000CEB011CCCF80000D5F810C0206800F5C8
:10064000C07000EB0110C0F804C0287D01280ED155
:10065000206800F5C07000EB0110406840F4807C19
:10066000206800F5C07000EB0110C0F804C0D0791C
:10067000000692F806C040EA0C4092F805C040EA35
:100680000C2C10794CEA000C206800F5C07000EBCF
:100690000110C0F80CC0D078000692F802C040EA01
:1006A0000C4092F801C040EA0C2092F800C040EAE9
:1006B0000C00D4F800C00CF5C07C0CEB011CCCF88D
:1006C0000800206801E016E00FE000F5C07000EBC4
:1006D0000110006840F0010C206800F5C07000EBCC
:1006E0000110C0F800C0002083E7606A40F40010E9
:1006F000606201207DE7606A40F480206062012032
:1007000077E70000F0B504460A46216894F82050C7
:10071000012D01D0022D7ED1424901F500710868FA
:1007200040F001000860086820F47C500860086808
:10073000566A40EA06200860107D00F01F0601207E
:1007400000FA06F3C8699843C861A1F50071D06941
:10075000C8B9D1F80C029843C1F80C02908880B255
:10076000968940EA064601F51070576940F83760EF
:10077000108880B2168940EA064601F51070576964
:1007800000EBC7004660D069012819D1D1F80C02EE
:100790001843C1F80C02908880B2168840EA0646D9
:1007A00001F51070576940F83760908980B216895A
:1007B00040EA064601F51070576900EBC700466035
:1007C000906928B9D1F804029843C1F8040204E002
:1007D000D1F804021843C1F80402106928B9D1F80D
:1007E00014029843C1F8140204E0D1F8140218432B
:1007F000C1F81402106A012804D1D1F81C02184370
:10080000C1F81C02D1F8000220F00100C1F800027A
:100810000020F0BDFFE7606A40F4802060620120A4
:10082000F7E7000000640040704770B5044694F894
:100830002050012D01D0022D7DD151B92068C06812
:1008400000F0030080B9606A40F40010606201208B
:1008500070BD2068006900F0030028B9606A40F4A8
:10086000001060620120F3E7206800F5D87000EB0B
:100870000110006800F004009060906840B92068A2
:1008800000F5D87000EB01100068400D106007E023
:10089000206800F5D87000EB01100068C0085060B7
:1008A000206800F5D87000EB0110006800F002002D
:1008B000D060206800F5D87000EB0110406800F0AF
:1008C0000F001061206800F5D87000EB011040683F
:1008D00000F47F40000A9061206800F5D87000EBBA
:1008E00001104068000C5061206800F5D87000EBE2
:1008F000011080681870206800F5D87000EB0110B6
:10090000806800F47F40000A5870206800F5D870B5
:1009100000EB0110806800F47F00000C98702068E4
:1009200000F5D87000EB01108068000ED8702068C8
:1009300000F5D87000E02FE000EB0110C0681871DE
:10094000206800F5D87000EB0110C06800F47F400B
:10095000000A5871206800F5D87000EB0110C068DB
:1009600000F47F00000C9871206800F5D87000EB4F
:100970000110C068000ED87131B92068C06840F01D
:1009800020002668F06005E02068006940F0200043
:100990002668306100205BE7606A40F48020606276
:1009A000012055E72DE9F05F0446002520684669DF
:1009B0002068D0F80490206887682068D0F80CA0E0
:1009C0002068D0F810B02068D0F8188006F0010038
:1009D000002855D007F00100C0B1012021688860CF
:1009E00007F0020018B1204600F0A7FA0EE007F069
:1009F000040010B145F4006508E007F0080010B1EC
:100A000045F4805502E0204600F096FA07F4807025
:100A1000C8B14FF480702168886007F4007018B185
:100A2000204600F08CFA0EE007F4806010B145F427
:100A3000005508E007F4006010B145F4804502E07D
:100A4000204600F07BFA07F48030C8B14FF48030C4
:100A50002168886007F4003018B1204600F071FA70
:100A60000EE007F4802010B145F4004508E007F4DB
:100A7000002010B145F4803502E0204600F060FA15
:100A800006F0080038B10AF0100020B145F40075F6
:100A900010202168C86006F0040040B10AF0080088
:100AA00028B108202168C860204600F0A9F906F0A6
:100AB000020038B12068C06800F0030010B1204681
:100AC00000F0A0F906F0400038B10BF0100020B1A2
:100AD00045F4806510202168086106F0200040B1CF
:100AE0000BF0080028B1082021680861204600F0BA
:100AF000F1F906F0100038B12068006900F0030039
:100B000010B1204600F0E7F906F4003040B109F0DA
:100B1000100028B1102021684860204600F0DCF960
:100B200006F4803040B109F0080028B1082021689F
:100B30004860204600F006FA06F4004088B309F049
:100B4000040078B306F4807020B108F0010008B109
:100B500045F0010506F4007020B108F0020008B16C
:100B600045F0020506F4806020B108F0040008B1E9
:100B700045F0040506F40060A0B108F0700088B1EB
:100B800008F07000402817D006DC10280BD0202871
:100B90000CD0302819D10CE0502810D0602814D186
:100BA00010E01DE019E045F008050FE045F01005E4
:100BB0000CE045F0200509E045F0400506E045F071
:100BC000800503E045F4807500E000BF00BF2068A9
:100BD000806920F0700021688861042021684860E5
:100BE0002DB1606A284360622046FFF71DFEBDE814
:100BF000F09F70B504460CB9012070BD94F8200038
:100C000010B9204600F0B0F82068006820F002001B
:100C10002168086000F094FC05460DE000F090FCAF
:100C2000401B0A2808D9606A40F400306062052041
:100C300084F820000120E0E72068406800F002000E
:100C40000028EBD12068006840F0010021680860AE
:100C500000F076FC05460DE000F072FC401B0A280F
:100C600008D9606A40F400306062052084F82000F2
:100C70000120C2E72068406800F001000028EBD0A6
:100C8000207E012806D12068006840F0800021689D
:100C9000086005E02068006820F080002168086096
:100CA000607E012806D12068006840F0400021687D
:100CB000086005E02068006820F0400021680860B6
:100CC000A07E012806D12068006840F0200021683D
:100CD000086005E02068006820F0200021680860B6
:100CE000E07E012806D12068006820F0100021680D
:100CF000086005E02068006840F010002168086086
:100D0000207F012806D12068006840F00800216893
:100D1000086005E02068006820F00800216808608D
:100D2000607F012806D12068006840F00400216837
:100D3000086005E02068006820F004002168086071
:100D4000D4E90201084321690843616908436168E5
:100D5000491E08432168C86100206062012084F8B0
:100D60002000002049E7000010B586B00446142199
:100D700001A8FFF7E1FA1F492068884237D100BF78
:100D8000002000901C48006840F000701A4908607C
:100D90000846006800F00070009000BF00BF00BF70
:100DA0000020009014481038006840F008001249F4
:100DB000103908600846006800F00800009000BF85
:100DC00000BF032001900220029000200390032026
:100DD00004900920059001A9084800F093FA002228
:100DE0000521142000F03CFC142000F029FC06B082
:100DF00010BD00000064004040380240000C02407A
:100E00007047000010B58AB0044601AB03AA002168
:100E10002046FFF70AFD0398A0F20120072851D2CF
:100E2000DFE800F00405060708090A0000BF00BF5C
:100E300000BF00BF00BF00BF0398401E23490870D9
:100E40000846007800EB8000214931F8100000B21C
:100E50001E49097801EB81011D4A02EB410108811D
:100E60009DF805009DF8041040EA01201749097813
:100E700001EB810122F811009DF807009DF8061092
:100E800040EA012000B21149097801EB810102EB2F
:100E9000410148809DF809009DF8081040EA0120B2
:100EA00000B20A49097801EB810102EB4101888017
:100EB0009DF80A000549097801EB810102EB410127
:100EC000887100E000BF00BF0AB010BDB000002074
:100ED000504A002070477047704770B5044694F838
:100EE0002000012822D1022084F820002068006818
:100EF00020F001002168086000F022FB05460DE0AB
:100F000000F01EFB401B0A2808D9606A40F400303C
:100F10006062052084F82000012070BD20684068D0
:100F200000F001000028EBD16062F6E7606A40F44F
:100F3000002060620120F0E77047704770477047FB
:100F4000704770477047014691F83500022803D07A
:100F50008020486501207047052081F83500086829
:100F6000006820F001000A6810600020F3E700002C
:100F7000F8B50446002000908C4800684FF41651E4
:100F8000B0FBF1F7A56D2E6894F85C10082088403E
:100F9000304098B12068006800F0040070B120680B
:100FA000006820F004002168086094F85C100820B4
:100FB0008840A860606D40F00100606594F85C10A6
:100FC00001208840304068B12068406900F080000E
:100FD00040B194F85C1001208840A860606D40F03A
:100FE0000200606594F85C1004208840304068B1CD
:100FF0002068006800F0020040B194F85C10042002
:101000008840A860606D40F00400606594F85C1052
:1010100010208840304078B32068006800F0080055
:1010200050B394F85C1010208840A86020680068D5
:1010300000F4802080B12068006800F4002028B906
:10104000206CC8B12046216C884715E0A06C98B18F
:101050002046A16C88470FE02068006800F480708B
:1010600028B92068006820F0080021680860206C1A
:1010700010B12046216C884794F85C1020208840ED
:101080003040002865D02068006800F0100000287B
:101090005FD094F85C1020208840A86094F8350058
:1010A000052828D12068006820F016002168086013
:1010B0002068406920F0800021684861206C08B9F0
:1010C000A06C28B12068006820F008002168086042
:1010D00094F85C103F208840A86000BF002084F88E
:1010E000340000BF012084F83500206D10B1204687
:1010F000216D8847F8BD2068006800F4802080B129
:101100002068006800F4002028B9606C10B1204607
:10111000616C88471DE0E06BD8B12046E16B8847E1
:1011200017E02068006800F4807068B920680068E3
:1011300020F010002168086000BF002084F834000F
:1011400000BF012084F83500E06B10B12046E16B50
:101150008847606D38B3606D00F00100F0B1052084
:1011600084F835002068006820F0010021680860DC
:1011700000BF0098401C0090B84200D905E02068EC
:10118000006800F001000028F3D100BF00BF00207C
:1011900084F8340000BF012084F83500E06C10B101
:1011A0002046E16C884700BFA4E70000240000202F
:1011B0002DE9F0410446002500F0C2F9074614B9B4
:1011C0000120BDE8F081606A00B100BF00BF0020CF
:1011D00084F8340000BF022084F8350020680068DD
:1011E00020F00100216808600AE000F0A9F9C01BA6
:1011F000052805D920206065032084F83500E0E744
:101200002068006800F001000028EED12068056821
:1012100021480540D4E901010843E16808432169F8
:10122000084361690843A1690843E1690843216AE9
:1012300008430543606A042803D1D4E90B0108433D
:101240000543206805602068456925F00705606A48
:101250000543606A04280DD1A06A0543E06A48B1DD
:101260002046FFF721F928B140206065012084F86D
:101270003500A6E7206845612046FFF7FBF80646E3
:1012800094F85C103F208840B06000206065012029
:1012900084F83500002094E73F8010F02DE9F041FC
:1012A00004460D4616461F464FF0000800BF94F84E
:1012B0003400012802D10220BDE8F081012084F829
:1012C000340000BF94F83500012811D1022084F8C1
:1012D0003500002060653B46324629462046FFF730
:1012E00038F92068006840F001002168086006E0D5
:1012F00000BF002084F8340000BF4FF002084046D1
:10130000DAE70000F8B502460B460025002400206D
:101310000021E6E0012606FA01F51E6806EA05044A
:10132000AC4273D15E68012E08D05E68022E05D0F3
:101330005E68112E02D05E68122E13D190684F00A5
:101340000326BE40B0434F00DE68BE40304390608D
:10135000506801268E40B0431E79C6F300168E40B9
:1013600030435060D0684F000326BE40B0434F006A
:101370009E68BE403043D0605E68022E02D05E6838
:10138000122E13D1CF0802F1200656F827004E077F
:10139000F70E0F26BE40B0434F07FF0E1E69BE403A
:1013A0003043CF0802F1200646F8270010684F00AE
:1013B0000326BE40B0431E7906F003064F00BE4030
:1013C000304310605E6806F08056B6F1805FA8D1A9
:1013D00000BF00260096454E366846F48046434FCF
:1013E0003E603E46366806F48046009600BF00BF69
:1013F0003F4E8F0856F827008E07370F0F26BE4046
:10140000B0433C4EB24202D100262EE068E03A4E94
:10141000B24201D1012628E0384EB24201D1022663
:1014200023E0374EB24201D103261EE0354EB242D0
:1014300001D1042619E0344EB24201D1052614E050
:10144000324EB24201D106260FE0314EB24201D1F6
:1014500007260AE02F4EB24201D1082605E02E4EA3
:10146000B24201D1092600E00A268F073F0FBE4095
:1014700030431F4E8F0846F82700284E3068A0439F
:101480005E6806F48036B6F5803F00D12043234ED7
:101490003060361D3068A0435E6806F40036B6F54D
:1014A000003F00D120431D4E361D3060361D306890
:1014B000A0435E6806F48016B6F5801F00D1204375
:1014C000164E08363060361D3068A0435E6806F45C
:1014D0000016B6F5001F00D12043104E0C363060C8
:1014E000491C1029FFF416AFF8BD00004438024033
:1014F0000838014000000240000402400008024099
:10150000000C02400010024000140240001802408B
:10151000001C02400020024000240240003C014028
:1015200042690A408A4202D10A04826100E0816174
:1015300070470AB1816101E00B04836170470000CC
:101540000148006870470000180000200348006848
:1015500003490978084401490860704718000020D1
:101560002000002010B50D48006840F400700B49C1
:1015700008600846006840F480600860084600681B
:1015800040F480700860032000F0A8F80F2000F0FD
:1015900007F800F02BF8002010BD0000003C0240CE
:1015A00070B504460E4800784FF47A71B1FBF0F044
:1015B0000C490968B1FBF0F5284600F06DFC08B154
:1015C000012070BD102C07D200222146501E00F0D1
:1015D00047F80548046001E00120F2E70020F0E749
:1015E00020000020240000201C00002008B500BFBF
:1015F000002000901148006840F480400F490860C6
:101600000846006800F48040009000BF00BF00BFA3
:1016100000200090081F006840F08050091F0860FB
:101620000846006800F08050009000BF00BF002214
:101630000F21901E00F014F808BD0000443802404D
:1016400001460846002809DB00F01F0301229A40EA
:1016500043099B0003F1E023C3F8002100BF70475A
:101660002DE9F05F80460D461646002701F02CFA62
:10167000074639462A46334601F00700C0F1070AFB
:10168000BAF1040F02D94FF0040A01E0C0F1070AD1
:10169000D14600F1040ABAF1070F02D24FF0000A56
:1016A00001E0A0F1030AD4464FF0010A0AFA09FA50
:1016B000AAF1010A0AEA020A0AFA0CFA4FF0010B2F
:1016C0000BFA0CFBABF1010B0BEA030B4AEA0B0420
:1016D0002146404601F000FABDE8F09F00BF00F04F
:1016E0000702064B19684FF6FF031940044B0B43E2
:1016F00043EA0221014B196000BF70470CED00E086
:101700000000FA0538B5002400BF002000901D48F5
:10171000006840F080501B4908600846006800F0EF
:101720008050009000BF00BF012017490864FFF7F8
:1017300007FF044607E0FFF703FF001BB0F57A7FC1
:1017400001D9032038BD1148406800F48030B0F55D
:10175000803FF0D101200C494864FFF7F1FE0446B8
:1017600007E0FFF7EDFE001BB0F57A7F01D90320FB
:10177000E8E70648406800F40030B0F5003FF0D1DB
:101780000020DFE74038024000000E4200700040B9
:1017900070B504460D460CB9012070BD584800686C
:1017A00000F00F00A84209D255490D7008460068A4
:1017B00000F00F00A84201D00120EEE7207800F0F1
:1017C000020002281DD1207800F00400042805D171
:1017D0004C48006840F4E0504A490860207800F026
:1017E0000800082805D14748006840F46040454992
:1017F00008604448006820F0F000A16808434149AF
:101800000860207800F00100A8B36068012807D1C3
:101810003C4808380068C0F34040B8B90120BCE734
:101820006068022802D06068032807D1354808386C
:101830000068C0F3406048B90120AEE7314808387D
:101840000068C0F3400008B90120A6E72D480068F1
:1018500020F00300616808432A490860FFF770FE22
:10186000064609E0FFF76CFE801B41F28831884292
:1018700002D9032091E707E02248006800F00C003D
:101880006168B0EB810FEDD11D48006800F00F00DA
:10189000A84209D91A490D700846006800F00F00E7
:1018A000A84201D0012078E7207800F00400042845
:1018B00007D11448006820F4E050E168084311495A
:1018C0000860207800F00800082808D10D4800685A
:1018D00020F46040216940EAC1000A49086000F034
:1018E0003FF808490968C1F30311074A515CC84031
:1018F0000649086006480068FFF752FE00204CE7E2
:10190000003C024008380240B45300082400002084
:101910001C000020014800687047000024000020DF
:1019200000B5FFF7F7FF04490968C1F38221034AB4
:10193000515CC84000BD000008380240C453000894
:1019400000B5FFF7E7FF04490968C1F34231034AD4
:10195000515CC84000BD000008380240C453000874
:101960002DE9F047002400250026A14625480068FF
:1019700000F00C0020B1042805D008283AD105E079
:10198000DFF8849039E0DFF8849036E01D48001FCE
:10199000006800F03F041B48001F006800F480004E
:1019A00078B11A481749091F0968C1F38811A0FBCB
:1019B00001700146224600233846FEF773FC0546B7
:1019C0000EE011480F49091F0968C1F38811A0FBF7
:1019D00001700146224600233846FEF763FC0546A7
:1019E0000848001F0068C0F30140401C4600B5FBDA
:1019F000F6F902E0DFF8109000BF00BF4846BDE8EE
:101A0000F0870000083802400024F400001BB700F3
:101A1000F8B504460CB90120F8BD207800F00100AB
:101A2000002874D0F948006800F00C0004280DD09C
:101A3000F648006800F00C00082813D1F348001F96
:101A4000006800F48000B0F5800F0BD1EF48083833
:101A50000068C0F34040002859D06068002856D183
:101A60000120D9E700BF6068B0F5803F08D1E748A2
:101A70000838006840F48030E449083908601EE006
:101A80006068B0F5A02F0DD1E0480838006840F438
:101A90008020DE49083908600846006840F480303C
:101AA00008600CE0D9480838006820F48030D74935
:101AB000083908600846006820F48020086000BFEC
:101AC000606890B1FFF73CFD054606E0FFF738FD82
:101AD000401B642801D903209EE7CC4808380068E1
:101AE000C0F340400028F1D011E0FFF729FD054682
:101AF00006E0FFF725FD401B642801D903208BE792
:101B0000C24808380068C0F340400028F1D120786E
:101B100000F0020002285FD1BC48006800F00C0011
:101B200058B1BA48006800F00C0008281CD1B7482A
:101B3000001F006800F48000B0B9B448083800689D
:101B4000C0F3400020B1E068012801D0012063E724
:101B5000AE480838006820F0F800216940EAC1006A
:101B6000AA490839086037E0E06800B30120A849B5
:101B70000860FFF7E5FC054606E0FFF7E1FC401BC7
:101B8000022801D9032047E7A04808380068C0F3BD
:101B900040000028F1D09D480838006820F0F80087
:101BA000216940EAC10099490839086014E0002021
:101BB00097490860FFF7C4FC054606E0FFF7C0FC44
:101BC000401B022801D9032026E790480838006806
:101BD000C0F340000028F1D1207800F00800082868
:101BE0002CD16069A8B101208A490860FFF7A8FCE0
:101BF000054606E0FFF7A4FC401B022801D903209C
:101C00000AE782486C300068C0F340000028F1D039
:101C100014E000207F490860FFF792FC054606E0CB
:101C2000FFF78EFC401B022801D90320F4E6774819
:101C30006C300068C0F340000028F1D1207800F03B
:101C40000400042870D1002770483830006800F084
:101C5000805090B900BF002000906C483830006878
:101C600040F080506949383108600846006800F04B
:101C70008050009000BF00BF01276748006800F453
:101C80008070B0B96448006840F4807062490860B0
:101C9000FFF756FC054606E0FFF752FC401B022802
:101CA00001D90320B8E65C48006800F48070002881
:101CB000F2D000BFA068012808D1544868300068FD
:101CC00040F001005149683108601DE0A068052816
:101CD0000DD14E486830006840F004004B4968312F
:101CE00008600846006840F0010008600CE04748C2
:101CF0006830006820F001004449683108600846F7
:101D0000006820F00400086000BFA068A8B1FFF7D9
:101D100017FC054609E0FFF713FC401B41F2883130
:101D2000884202D9032077E626E038486830006808
:101D3000C0F340000028EED013E0FFF701FC054699
:101D400008E0FFF7FDFB401B41F28831884201D9D2
:101D5000032061E62D4868300068C0F34000002889
:101D6000EFD1012F07D129483830006820F080508A
:101D700026493831086000BFA069002845D02348B3
:101D8000006800F00C0008285DD0A069022845D149
:101D900000201F490866FFF7D3FB054606E0FFF762
:101DA000CFFB401B022801D9032035E6174808382D
:101DB0000068C0F340600028F1D1D4E9070108436E
:101DC000616A40EA81110122A06AC2EB500041EA37
:101DD00000412C20005D41EA00600C49091F0860A9
:101DE00001200B490866FFF7ABFB054606E0FFF74D
:101DF000A7FB401B022801D903200DE60348083841
:101E00000068C0F340600028F1D03FE0083802408D
:101E100000004742800E47420070004000201C49ED
:101E20000866FFF78DFB054606E0FFF789FB401BC0
:101E3000022801D90320EFE516480068C0F340608E
:101E40000028F2D122E0A069012800D1E4E5114880
:101E50000830066806F48001E069814214D106F07A
:101E60003F01206A81420FD147F6C0703040616A5D
:101E7000884209D106F44031A06A814204D106F0BB
:101E80007061E06A814201D00120C5E50020C3E510
:101E9000000047420038024070B504462546681EDF
:101EA000B0F1807F01D301200FE0681E4FF0E021E8
:101EB00048610F214FF0FF3000F00EFE00204FF080
:101EC000E021886107200861002070BD7047000094
:101ED0002DE9F0470446206805682068C668206838
:101EE00047694FF00008C14605F00F08B8F1000F30
:101EF0000AD105F0200038B106F0200020B12046BC
:101F000000F05AFBBDE8F087B8F1000F72D007F07F
:101F1000010018B906F4907000286BD005F001009C
:101F200030B106F4807018B1E06B40F00100E0635E
:101F300005F0040030B107F0010018B1E06B40F08B
:101F40000200E06305F0020030B107F0010018B1B3
:101F5000E06B40F00400E06305F0080048B106F0D3
:101F6000200010B907F0010018B1E06B40F0080044
:101F7000E063E06B70B305F0200028B106F02000AC
:101F800010B1204600F018FB20684069C0F38019AA
:101F9000E06B00F0080010B9B9F1000F23D0204623
:101FA00000F0EAFA2068406900F04000402816D1AD
:101FB0002068406920F0400021684861606B50B1A2
:101FC0001748616B0865606BFEF7BDFF10B1606B71
:101FD000016D88470CE02046FFF778FF08E02046B7
:101FE000FFF774FF04E02046FFF770FF0020E06376
:101FF00088E7FFE705F0800030B106F0800018B1F7
:10200000204600F021FD7DE705F0400030B106F0EC
:10201000400018B1204600F0BFFA73E700BF71E737
:102020006525000810B504460CB9012010BDA06953
:1020300000B100E000BF94F8390028B9002084F80E
:102040003800204600F028F8242084F83900206861
:10205000C06820F400502168C860204600F000FBF2
:102060002068006920F49040216808612068406978
:1020700020F02A00216848612068C06840F40050C0
:102080002168C8600020E063202084F8390084F8CB
:102090003A000020CAE7000010B586B004461421BB
:1020A00001A8FEF749F92F492068884257D100BF9F
:1020B000002000902C48006840F010002A49086079
:1020C0000846006800F01000009000BF00BF00BF8D
:1020D0000020009024481438006840F00200224993
:1020E000143908600846006800F00200009000BF44
:1020F00000BFC02001900220029001200390032025
:1021000004900720059001A91848FFF7FBF818482C
:10211000184908604FF00060486000211548816050
:10212000C1604FF4806101610021416181614FF420
:102130008071C161002101624162FFF739F808B185
:10214000FEF71EFA00BF0B486063846300BF0022E5
:1021500005212520FFF784FA2520FFF771FA06B044
:1021600010BD00000010014044380240000402404D
:10217000406402401C0100207047704700BFFEE72A
:10218000012204210548FFF7D4F900BF02210348CA
:10219000FFF7C6F9642000F039FEF7E700180240A7
:1021A00010B50E480E4908600520486000210C4813
:1021B0008160C1604FF4003101614901416100213A
:1021C00001760121417600218176C1760177417740
:1021D000FEF70FFD08B1FEF7D3F910BD0064004013
:1021E000B400002008B500BF002000900A48006835
:1021F00040F48000084908600846006800F4800048
:10220000009000BF00BF002205213A20FFF728FA06
:102210003A20FFF715FA08BD3038024000B5ADB0DE
:1022200000F010FE2422204924A8FEF76CF824AA0E
:1022300000211E4800F048FE1D49086024221A496A
:1022400024311BA8FEF75FF81BAA0021194800F0F3
:102250003BFE1949086024221349483112A8FEF7B1
:1022600052F812AA0021154800F02EFE1449086009
:1022700024220D496C3109A8FEF745F809AA00216E
:10228000104800F021FE10490860242206499031D0
:102290006846FEF738F86A4600210C4800F014FE44
:1022A0000B4908602DB000BDF8520008813D0008C0
:1022B000040000206D2B000808000020553F000896
:1022C0000C00002081210008100000200D240008CF
:1022D0001400002000B587B0142102A8FEF72CF8E6
:1022E00000BF002001903548006840F001003349EC
:1022F00008600846006800F00100019000BF00BFC0
:1023000000BF002001900846006840F0020008600D
:102310000846006800F00200019000BF00BF00BF47
:10232000002001900846006840F008000860084658
:10233000006800F00800019000BF00BF00BF00204F
:1023400001900846006840F0800008600846006878
:1023500000F08000019000BF00BF00BF002001908E
:102360000846006840F0400008600846006800F039
:102370004000019000BF00BF00223C211048FFF741
:10238000D8F8002206210F48FFF7D3F83C2002902E
:102390000120039000200490059002A90848FEF750
:1023A000B1FF0620029001200390002004900590C8
:1023B00002A90448FEF7A6FF07B000BD303802406E
:1023C000001C02400018024010B50B480B49086081
:1023D0000B484860002109488160C1604FF480616A
:1023E00001610C21416100218161C161FFF71AFE89
:1023F00008B1FEF7C5F810BD00100140DC00002058
:10240000A086010000BFFEE77047000018260024E8
:1024100000BF002500241AE004EB8400134901EBFF
:102420004000B0F90400002807DB04EB840001EB56
:1024300040008088284405B207E004EB84000B4983
:1024400001EB40008088281A05B2601C84B2072C7A
:10245000E2DD06FB05F000B20549088004210548CD
:10246000FFF75EF8322000F0D1FCD2E7504A00209E
:10247000000000200018024010B5FFF767F802F0D6
:10248000E5FC012801D002F033F910BD00B593B08E
:10249000302107A8FDF750FF142102A8FDF74CFFDB
:1024A00000BF002001902648006840F08050244979
:1024B00008600846006800F08050019000BF00BF2F
:1024C00000BF002001901F48006840F440401D49B3
:1024D00008600846006800F44040019000BF00BF5B
:1024E000012007900004089002200D9041050E91F4
:1024F00006210F91B4211091022111910421129112
:1025000007A8FFF785FA08B1FEF73AF8FFF7FAF8DF
:1025100008B1FEF735F80F2002900220039000204A
:1025200004904FF4A05005904FF480500690052180
:1025300002A8FFF72DF908B1FEF722F813B000BD8D
:1025400040380240007000400548006840F47000C8
:10255000034908604FF00060014980390860704706
:1025600088ED00E070B50546AC6B0020E085E084A6
:102570002046FFF7ABFC70BD0168C96821F490717B
:102580000268D1600168496921F001010268516166
:10259000202180F83A10704710B504462068C068C2
:1025A00020F040002168C860202084F839002046CF
:1025B000FFF7E3FD002010BD70B5044694F83A0023
:1025C00022284AD1A068B0F5805F13D1A56A20699E
:1025D00040B920684068C0F308002880A06A801CC9
:1025E000A06219E020684068C0B22880A06A401C40
:1025F000A06211E0206938B920684068C1B2A26ABF
:10260000501CA062117007E02068406800F07F0154
:10261000A26A501CA0621170E08D401E80B2E0855D
:10262000C8B92068C06820F020002168C860206810
:10263000C06820F480702168C8602068406920F07C
:10264000010021684861202084F83A002046FFF705
:1026500093FD002070BD0020FCE70220FAE7000097
:102660002DE9F84F04462068006920F44050E168E5
:102670000843216808612169A0680843616908432B
:10268000E169084300902068C06849F20C61884302
:10269000009908432168C8602068406920F44070B0
:1026A000A169084321684861E069B0F5004F75D120
:1026B000E3492068884203D0E249206888426FD10C
:1026C000FFF73EF9814602206168A0FB01510B46ED
:1026D0001920A9FB00712A463846FDF7E3FD642165
:1026E000B0FBF1F04FEA001A02206168A0FB015133
:1026F0000B461920A9FB00712A463846FDF7D2FD8A
:10270000074602206168A0FB01510B461920A9FB76
:1027100000B12A465846FDF7C5FD6421B0FBF1F033
:1027200000EBC00101EB0010A7EB8000322101EBB0
:10273000C0006421B0FBF1F000F0F8000AEB400AA1
:1027400002206168A0FB01510B461920A9FB007112
:102750002A463846FDF7A6FD074602206168A0FB21
:1027600001510B461920A9FB00B12A465846FDF736
:1027700099FD6421B0FBF1F000EBC00101EB00100A
:10278000A7EB8000322101EBC0006421B0FBF1F027
:1027900000F007005044216888604FE16EE0FFE7D9
:1027A000FFF7BEF8814602206168A0FB01510B468D
:1027B0001920A9FB00712A463846FDF773FD6421F4
:1027C000B0FBF1F04FEA001A02206168A0FB015152
:1027D0000B461920A9FB00712A463846FDF762FD19
:1027E000074602206168A0FB01510B461920A9FB96
:1027F00000B12A465846FDF755FD6421B0FBF1F0C3
:1028000000EBC00101EB0010A7EB8000322101EBCF
:10281000C0006421B0FBF1F000F0F8000AEB400AC0
:1028200002206168A0FB01510B461920A9FB007131
:102830002A463846FDF736FD074602206168A0FBB0
:10284000015003461920A9FB00B12A465846FDF75E
:1028500029FD6421B0FBF1F000EBC00101EB001099
:10286000A7EB8000322101EBC0006421B0FBF1F046
:1028700000F00700504421688860DFE0704920685C
:10288000884203D06F49206888426BD1FFF758F81F
:10289000814604206168A0FB01510B461920A9FB69
:1028A00000712A463846FDF7FDFC82460420616827
:1028B000A0FB01510B461920A9FB00712A4638469E
:1028C000FDF7F0FC6421B0FBF1F000EBC00101EB7F
:1028D0000010AAEB8000322101EB00106421B0FB54
:1028E000F1F000F0F00A04206168A0FB01500346FB
:1028F0001920A9FB00712A463846FDF7D3FC642154
:10290000B0FBF1F00AEB001A04206168A0FB015152
:102910000B461920A9FB00712A463846FDF7C2FC78
:10292000074604206168A0FB015003461920A9FB5B
:1029300000B12A465846FDF7B5FC6421B0FBF1F022
:1029400000EBC00101EB0010A7EB8000322101EB8E
:1029500000106421B0FBF1F000F00F00504421683A
:1029600088606BE0FEF7DCFF814604206168A0FB15
:10297000015003461920A9FB00712A463846FDF78D
:1029800091FC824604206168A0FB01500346192097
:10299000A9FB00712A463846FDF784FC6421B0FB90
:1029A000F1F000EBC00101EB0010AAEB8000322136
:1029B00001EB00106421B0FBF1F000F0F00A0420FC
:1029C0006168A0FB015003461920A9FB00712A464B
:1029D0003846FDF767FC6421B0FBF1F00AEB001A02
:1029E00004206168A0FB017003461920A9FB005078
:1029F00001463A462846FDF755FC07460420616823
:102A0000A0FB015003461920A9FB00B12A465846F5
:102A1000FDF748FC6421B0FBF1F000EBC00101EBD5
:102A20000010A7EB8000322101EB00106421B0FB05
:102A3000F1F000F00F00504421688860BDE8F88F85
:102A40000010014000140140014691F8390021288E
:102A50002CD18868B0F5805F0FD10A6A1088C0F366
:102A600008000B685860086918B9086A801C086279
:102A700009E0086A401C086205E00B6A581C0862FD
:102A800018780B685860C88C401E80B2C88458B94A
:102A90000868C06820F080000B68D8600868C068CB
:102AA00040F040000B68D860002070470220FCE72F
:102AB00010B5034801F077FA0148FFF709FA10BD95
:102AC000DC00002000BFFEE702480068C0F30220DF
:102AD000704700000CED00E010B5002804DB0A0789
:102AE000130E054A135406E00A07140E034A00F0B9
:102AF0000F031B1FD45410BD00E400E018ED00E0EC
:102B0000EFF311807047EFF305807047EFF310800B
:102B1000704702E008C8121F08C1002AFAD17047A6
:102B20007047002001E001C1121F002AFBD170474D
:102B300000B58BB00120099000200790012008907B
:102B4000002001900290039004900690059001A946
:102B50000548FDF7D7FD0448FEF7BFF902210248FA
:102B6000FDF70FFD0BB000BDB4000020E8B000BFC2
:102B700000BF00BF012204218248FEF7DAFC0122D7
:102B800008218048FEF7D5FC012210217D48FEF780
:102B9000D0FC012220217B48FEF7CBFC4FA800F09F
:102BA000A5FA36A800F0A2FA1DA800F09FFA04A822
:102BB00000F09CFA00204FF4FA51CDE90001029098
:102BC000DFED711A9FED711AF0EE000AB2EE040A01
:102BD00044F620631A4601214FA8659FB84700209C
:102BE0004FF4FA51CDE900010290DFED671A9FED35
:102BF000671AF0EE000AB2EE040A44F620631A46A1
:102C0000012136A84C9FB84700204FF4FA51CDE976
:102C100000010290DFED5C1A9FED5C1AF0EE000AF5
:102C2000B2EE040A44F620631A4601211DA8339F20
:102C3000B84700204FF4FA51CDE900010290DFEDD2
:102C4000521A9FED521AF0EE000AB2EE040A44F650
:102C500020631A46012104A81A9FB84700BF4C48B8
:102C600080884FF47A7110FB01F04FF4257190FBCE
:102C7000F1F004B2464800884FF47A7110FB01F07D
:102C80004FF4257190FBF1F005B24148C0884FF434
:102C90007A7110FB01F04FF4257190FBF1F006B250
:102CA000281B304400EE100AB8EEC00A8DED500A21
:102CB0002819801B00EE100AB8EEC00A8DED370A05
:102CC000281B801B00EE100AB8EEC00A8DED1E0A0C
:102CD0002819304400EE100AB8EEC00A8DED050A3E
:102CE0002C48B0F9020000EE900AF8EEE00AB0EECF
:102CF000600A4FA8679988472648B0F90C0000EE93
:102D0000900AF8EEE00AB0EE600A36A84E998847BD
:102D10002048B0F9160000EE900AF8EEE00AB0EE96
:102D2000600A1DA8359988471A48B0F9200000EEBE
:102D3000900AF8EEE00AB0EE600A04A81C998847F1
:102D40009DED100ABDEEC00A10EE107A3BB29DED6B
:102D5000290ABDEEC00A10EE107A3AB29DED420A81
:102D6000BDEEC00A10EE107A39B29DED5B0ABDEEE1
:102D7000C00A10EE107A38B2FDF724FB012000F0F3
:102D800045F86CE7001C0240CDCCCC3D00000000B3
:102D9000DA4A0020504A002008B500BF0020009009
:102DA0000B4800680068009009480068406800907F
:102DB00000BF00BF06480068C06840F0100004492A
:102DC0000968C86032220349014801F0C8F808BD0B
:102DD000DC000020C84A00200146486880B27047E5
:102DE000FEF7C0FBFFF752FBFFF774FAFFF7D8F9C5
:102DF000FFF7F8F9FFF7E8FAFFF79AFEFFF7CCFFC5
:102E0000FFF70CFA00F03EF800BFFEE770B505468C
:102E1000FFF779FE48B9FFF779FE30B90848006836
:102E2000022805D1FFF76CFE10B16FF0050404E035
:102E3000002415B1284601F07FFA204670BD00003D
:102E40007800002010B5FFF75EFE48B9FFF75EFE80
:102E500030B90B480068022805D1FFF751FE10B1C8
:102E60006FF0050409E00648006820B90120044914
:102E70000860002401E04FF0FF34204610BD000040
:102E80007800002010B5FFF73EFE48B9FFF73EFE80
:102E900030B90C480068022805D1FFF731FE10B1A7
:102EA0006FF005040CE007480068012806D10220F5
:102EB0000449086001F0BCFA002401E04FF0FF343F
:102EC000204610BD780000202DE9F04786B08046EE
:102ED0008946144600200490FFF715FE00285DD1B6
:102EE000FFF714FE002859D12D480068022803D1AD
:102EF000FFF706FE002851D1B8F1000F4ED0802612
:102F00001825002005900DF1140A471E44B32068CF
:102F100008B1D4F800A0A06900B1A5692DB1382D81
:102F200003D8207900F0010018B1002006B0BDE8F8
:102F3000F087606908B160698608A06840B1E06800
:102F40005C2805D3206918B1606908B1012708E041
:102F5000A06830B9E06820B9206910B9002700E006
:102F60000027012F0CD12169A0684B463246CDE9DC
:102F7000005102905146404601F00CFF04900DE0D4
:102F800067B904A8B2B24B465146CDE9005040465D
:102F900001F0CEFE012801D0002004900498C5E77E
:102FA0007800002010B52DED028B0446B0EE408A6B
:102FB00054F84C0F6060FEF7C3FA20602078217946
:102FC000401A207204ED0D8A14ED0C0A04ED0B0A70
:102FD00014ED070A04ED060A14ED120A54ED0D0A69
:102FE00030EE600A04ED0C0A14ED0C0A4C3CB5EE10
:102FF000C00AF1EE10FA02DD94ED070A03E094ED49
:10300000070AB1EE400AD4ED100AB4EEE00AF1EE80
:1030100010FA65DD94ED030AD4ED070A20EE200ACC
:1030200084ED090A94ED0A0AD4ED040A94ED071A16
:1030300000EE810A84ED0A0A94ED070AD4ED080A2D
:1030400030EE600AD4ED050A20EE200A84ED0B0A6A
:1030500094ED0A0AD4ED0F0AB4EEE00AF1EE10FA8C
:1030600003DD94ED0F0A84ED0A0A94ED0A0AD4ED0B
:103070000F0AF1EE600AB4EEE00AF1EE10FA05D2A2
:1030800094ED0F0AB1EE400A84ED0A0A94ED090AA4
:10309000D4ED0A0A30EE200AD4ED0B0A30EE200AF5
:1030A00084ED0C0A94ED0C0AD4ED0E0AB4EEE00A9D
:1030B000F1EE10FA03DD94ED0E0A84ED0C0A94EDA6
:1030C0000C0AD4ED0E0AF1EE600AB4EEE00AF1EE5D
:1030D00010FA05D294ED0E0AB1EE400A84ED0C0A06
:1030E00094ED0C0ABDEC028B10BD00000349816514
:1030F0000349C165034901667047000009310008B2
:1031000065310008A52F00089DED002ADDED012A9C
:103110009DED023A0170F8EE423AC0ED113A80EDB1
:10312000100A03EE903AF8EE633AC0ED0F3A03EE60
:10313000902AF8EE633AC0ED0E3AF8EEE23AC0EDAE
:10314000123AF8EEC33AC0ED013AC0ED030A80ED41
:10315000041AC0ED051ADFED023AC0ED0C3A7047D3
:103160000000000080ED030AC0ED040A80ED051A9E
:10317000704700002DE9F04105460E4616480768E5
:1031800016480068001D00F057FF681C38B936B1BA
:1031900012480168091D124800F0A4FF1AE07C19CA
:1031A0000E4800684460BC4207D20C480168091D03
:1031B0000C48006800F07CFF0CE008480168091D1D
:1031C0000948006800F074FF08480068844201D292
:1031D00006480460BDE8F0813C0000202800002083
:1031E0006C060020300000202C0000205800002039
:1031F00010B5044600F082FF24480068401C2349B3
:1032000008602348006840B9214804600846006807
:1032100001280DD100F0F8F90AE01E48006838B91D
:103220001B480068C06AE16A884201D818480460F7
:1032300019480068401C1849086008460068606426
:103240001649E06A0968884202D91449E06A0860B0
:10325000E16A01EB8101124A02EB8100211D00F0BD
:1032600041FF00F075FF0B48006868B1084800682E
:10327000C06AE16A884207D24FF08050094908606D
:10328000BFF34F8FBFF36F8F10BD000038000020D9
:1032900028000020440000205400002040000020AE
:1032A000BC01002004ED00E008B500F027FF124843
:1032B0000068E8B9114800F0EBFE114800F0E8FEA4
:1032C0000E48104908600E480F49086000200F4B57
:1032D0000F4A102100900A2001F024FA06490860E4
:1032E0000846006820B10BA10348006800F0E8FF21
:1032F00000F02EFF08BD00006C00002080060020BA
:10330000940600206400002068000020A806002029
:10331000F8060020546D72510000000010B516E050
:1033200000F0ECFE0C48C068C468201D00F084FE6C
:103330000A480068401E0949086009480068401EA4
:103340000749086000F004FF204600F05EF80448DA
:1033500000680028E4D110BD580600203800002085
:103360003400002070B504460D46206C70B1216C0D
:10337000E0680844E0606168E068884201D3206842
:10338000E0602846226CE168FCF7BDFF70BD2DE9C6
:10339000F04104460F4615464FF00008A66B206C1E
:1033A00040B9206860BB606801F008FE80460020DC
:1033B000606025E07DB93946226CA068FCF7A3FF68
:1033C000216CA0680844A060D4E90110884217D39A
:1033D0002068A06014E03946226CE068FCF793FF97
:1033E000216CE068401AE0602168E068884203D2FE
:1033F000216C6068401AE060022D01D106B1761E92
:10340000701CA0634046BDE8F08110B5044694F8F6
:10341000590030B9206B00F0B9FE204600F0B6FE2E
:103420001AE094F85900012803D1204600F0AEFEBE
:1034300012E094F85900022801D1012000E0002098
:1034400050B900BF502080F31188BFF34F8FBFF3F6
:103450006F8F00BF00BFFEE710BD00000146084AA5
:10346000126812680AB9012200E000220A600A68A4
:1034700022B9034A1268D268106800E00020704741
:103480006400002030B54FF47053174800F0070473
:103490002CB1C01D20F00700134C041B1B1B02465F
:1034A000124C22600024114D6C60D018083820F0B6
:1034B00007000F4C206000240D4D2D686C600C4DF2
:1034C0002D682C601146441A4C60094C24680C602D
:1034D000084D4C682C60084D4C682C604FF000443F
:1034E000064D2C6030BD0000500E00207C000020F6
:1034F000840000208C000020880000209000002024
:1035000000BFFFF70BFF064800680128F9D94FF00C
:10351000805004490860BFF34F8FBFF36F8FF0E70F
:10352000BC01002004ED00E02DE9F04106460D4607
:1035300017469846069C0DB9246000E02760E663B4
:1035400025640121204601F05DF984F84C80BDE836
:10355000F0812DE9F05F82460F4690469B460A9E19
:103560000C9C4FEA8801A522206BFCF7DEFEA8F137
:103570000100216B01EB800929F0070909F0070020
:1035800008B9012000E0002050B900BF502080F3AE
:103590001188BFF34F8FBFF36F8F00BF00BFFEE7EF
:1035A000002507E0795D04F134004155785D00B9EC
:1035B00002E06D1C102DF5D300BF00214320015502
:1035C000382E00D33726E662E66400202065201DF1
:1035D00000F06BFD04F1180000F067FD2461C6F1F6
:1035E0003800A06164620020606584F858005A4683
:1035F0005146484600F042FB20600B9808B10B98FA
:103600000460BDE8F09F000010B5002407E004EB63
:1036100084010F4A02EB810000F03AFD641C382C53
:10362000F5D30C4800F034FD0B4800F031FD0B4899
:1036300000F02EFD0A4800F02BFD0A4800F028FD9E
:1036400004480949086004480849086010BD0000A2
:10365000BC0100201C06002030060020440600208B
:10366000580600206C0600202C00002030000020AE
:1036700010B50146164800E0006803688B42FBD392
:103680000246436813448B4204D143684C68234488
:10369000436001460A464B6813440468A34211D1B3
:1036A0000C4C03682468A34208D04B680468646823
:1036B00023444B6003681B680B6005E0054B1B68E7
:1036C0000B6001E003680B60884200D0016010BD10
:1036D0007C000020840000202DE9F04104460D46C6
:1036E00016461F464FF0000865602461B5420CD8AD
:1036F000F01BA169884202D34FF0010811E0211D9F
:103700000948006800F0D4FC0BE0BE4204D2BD4280
:1037100002D34FF0010804E0211D0448006800F0C6
:10372000C7FC4046BDE8F08168000020640000202E
:1037300070B5054600F0E2FCA86B08B9012400E072
:10374000002400F005FD204670BD70B5054600F070
:10375000D5FCA86BE96B884201D1012400E000246C
:1037600000F0F6FC204670BDF8B505460F46164839
:103770000068C068C468201D00F05EFCE069012894
:103780001DD1A06941192B463A462046FFF7A4FFF8
:10379000A8B1002003462A4601460090204601F0C9
:1037A00069FD064656B900BF502080F31188BFF36B
:1037B0004F8FBFF36F8F00BF00BFFEE700BF2046F3
:1037C000616A8847F8BD000064000020F0B587B04A
:1037D00082E00398002811DA04AE56B900BF5020E9
:1037E00080F31188BFF34F8FBFF36F8F00BF00BF0F
:1037F000FEE7D6E90020B168904700BF0398002893
:103800006ADB059C606908B9012000E0002010B95E
:10381000201D00F011FC02A800F0C0F80546039836
:103820000A2857D2DFE800F009050731334F0608B0
:10383000323400BF00BF00BF00BF0498A2698118E6
:1038400003462A462046FFF747FFE8B12046616A53
:103850008847E069012817D1002000900498A169E9
:10386000421800231946204601F004FD074657B9C7
:1038700000BF502080F31188BFF34F8FBFF36F8FCD
:1038800000BF00BFFEE700BF25E000BF23E000BF90
:103890000498A061A06908B1012000E0002050B99F
:1038A00000BF502080F31188BFF34F8FBFF36F8F9D
:1038B00000BF00BFFEE7A06941192B462A462046FB
:1038C000FFF70AFF07E094F82C0010B9204600F03B
:1038D0005DFC00E000BF00BF002203A904480068AF
:1038E00001F02CF900287FF474AF07B0F0BD0000A0
:1038F0006C000020F8B505460C4600F0F5FD684662
:1039000000F04CF80646009820BB44B9B54206D8F2
:1039100001F0F2FB31462846FFF726FF1CE03CB1E0
:103920000E480068006808B9012000E00020044645
:10393000A91B22460A48006800F0D8FC01F0DCFB15
:1039400050B94FF0805007490860BFF34F8FBFF365
:103950006F8F01E001F0D0FBF8BD0000680000208F
:103960006C00002004ED00E00A490968096809B903
:10397000012100E0002121B14FF0FF31064A116022
:1039800006E004490968C968C868034A41681160CB
:10399000704700002C0000205800002070B504463D
:1039A00001F064FA054607480068854204D200F039
:1039B0000BF80120206001E0002020600148056034
:1039C000284670BD740000202DE9F84332E02448F9
:1039D0000068C068056822480068C068C468201D87
:1039E00000F02AFB2046616A8847E069012821D15E
:1039F000A0694619AE4207D966602461211D1848A6
:103A0000006800F055FB15E0002003462A460146F9
:103A10000090204601F02EFC074657B900BF502009
:103A200080F31188BFF34F8FBFF36F8F00BF00BFCC
:103A3000FEE700BF0A480068006808B9012000E0FE
:103A400000200028C3D00648D0F800800548006850
:103A5000034908600348C0F80080BDE8F88300000F
:103A600064000020680000200E480068401C08B96F
:103A7000012000E0002050B900BF502080F31188E1
:103A8000BFF34F8FBFF36F8F00BF00BFFEE700BFD4
:103A9000502080F31188BFF34F8FBFF36F8F00BFAB
:103AA00000BFFEE79400002008B500BF6846FFF79E
:103AB000D5FC044620460099FFF71CFFFFF786FE61
:103AC000F4E770B5044600F019FB94F9455010E096
:103AD000606A08B9012000E0002038B904F1240030
:103AE00001F0BEFA18B100F061FC00E003E0681ECE
:103AF00045B2002DECDC00BFFF2084F8450000F04B
:103B000027FB00F0FBFA94F9445010E0206908B953
:103B1000012000E0002048B904F1100001F0A0FAF3
:103B200008B100F043FC681E45B200E001E0002D42
:103B3000ECDC00BFFF2084F8440000F009FB70BDFE
:103B40002DE9F04104464FF0000800F0CDFC464856
:103B5000006808B9FFF796FC444800682040002838
:103B60006BD1D4B1083404F00700B0B104F0070001
:103B7000C0F10800044404F0070008B9012000E087
:103B8000002050B900BF502080F31188BFF34F8F41
:103B9000BFF36F8F00BF00BFFEE7002C4DD034484D
:103BA0000068844249D8334E3046056801E02E460D
:103BB0002D686868A04202D228680028F7D12A48F8
:103BC0000068854239D0306800F108082868306004
:103BD0006868001B102819D92F1907F0070008B9C9
:103BE000012000E0002050B900BF502080F3118870
:103BF000BFF34F8FBFF36F8F00BF00BFFEE7686852
:103C0000001B78606C603846FFF732FD1849686821
:103C10000968081A164908600846006816490968C4
:103C2000884203D212480068134908600F49686847
:103C30000968084368600020286001F05DFA08F018
:103C4000070008B9012000E0002050B900BF502053
:103C500080F31188BFF34F8FBFF36F8F00BF00BF9A
:103C6000FEE74046BDE8F08184000020900000207F
:103C7000880000207C0000208C000020001F4FF0F6
:103C800080730360001F21F001030360001F054BD8
:103C9000036014380260001F6FF0020303602038D5
:103CA00070470000693A000870B50A784B7842EA1C
:103CB0000322C2F30A0202800288A2F5806212B2D5
:103CC00002804A78D2108B7842EA4312C2F30A0289
:103CD00042804288A2F5806212B242808A789211B4
:103CE000CB7842EA83020B7942EA8322C2F30A02CA
:103CF00082808288A2F5806212B282800A79521094
:103D00004B7942EAC312C2F30A02C280C288A2F50A
:103D1000806212B2C2804A791211920802724A7904
:103D2000C2F301124272B0F90050002D01DB2E46A1
:103D300000E06E42B6F5257F1DDCB0F90240002C94
:103D400001DB264600E06642B6F5257F13DCB0F9BC
:103D50000430002B01DB1E4600E05E42B6F5257FF5
:103D600009DCB0F90620002A01DB164600E05642C5
:103D7000B6F5257F03DD002202604260028170BD3E
:103D8000CEB0002435A8FFF7B1F91CA8FFF7AEF9B3
:103D900003A8FFF7ABF900204FF4FA51CDE9000179
:103DA0000290DFED651A9FED651AF7EE080AB2EE94
:103DB000040A41F288334FF48042012135A84B9D1B
:103DC000A84700204FF4FA51CDE900010290DFED41
:103DD0005A1A9FED591AF1EE000AB2EE040A44F69F
:103DE00020631A4601211CA8329DA84700204FF4E9
:103DF000FA51CDE900010290DFED4F1A9FED4E1A06
:103E0000F1EE000AB2EE040A44F620631A460121DC
:103E100003A8199DA84700BF4948007A012804D08B
:103E200002281CD0032827D10CE09FED430A8DED1A
:103E3000360A9FED410A8DED1D0A9FED3F0A8DED7B
:103E4000040A19E09FED3F0A8DED360A9FED3D0A09
:103E50008DED1D0A9FED3C0A8DED040A0CE09FEDEF
:103E60003B0A8DED360A9FED370A8DED1D0A9FED59
:103E7000360A8DED040A00BF00BF3548B0F92A00AC
:103E800000EE900AF8EEE00AB0EE600A35A84D990F
:103E900088472F48B0F9340000EE900AF8EEE00AA7
:103EA000B0EE600A1CA8349988472948B0F93E0052
:103EB00000EE900AF8EEE00AB0EE600A03A81B9943
:103EC000884741F28830844214DC9DED0F0ABDEE34
:103ED000C00A10EE100A02B29DED280ABDEEC00A1B
:103EE00010EE100A01B200231846FCF793FA601C8A
:103EF00084B21CE09DED0F0ABDEEC00A10EE103A30
:103F00001AB29DED280ABDEEC00A10EE103A19B2A1
:103F10009DED410ABDEEC00A10EE103A18B2002322
:103F2000FCF778FA0648007A012800D10024012025
:103F3000FEF76CFF70E7000000000000CDCCCC3D28
:103F4000DA4A002000803BC500803B4500409CC50C
:103F5000504A002000BF0120FEF758FFFBE72DE983
:103F6000F04104460D461646002794F83A70202F7B
:103F700017D105B116B90120BDE8F081A562A6856B
:103F80000020E0632268111D33462A46606BFDF76E
:103F900085F92068406940F04000216848610020B0
:103FA000EAE70220E8E710B504462068006800F060
:103FB0001000102807D12068C06800F0100010B170
:103FC000204600F001F810BD18B5044600BF0020DF
:103FD000009020680068009020684068009000BF52
:103FE00000BF124884421FD1606B0068006820F057
:103FF0000100616B09680860616B0868FEF7ECFE00
:10400000C0F13200122803D109490A48FFF74CFEDB
:104010003220616B09684860606B0068006840F09E
:104020000100616B0968086018BD0000DC00002019
:10403000C84A0020DA4A002001460A69D1E9013065
:104040009860D1E9010358605068884201D18868BE
:104050005060002008611068401E106010687047B2
:10406000034B0360034B0B60802313607047000019
:1040700098070020F4070020034B0360034B0B60FC
:104080004FF4807313607047F4090020500A002039
:1040900000F1080141604FF0FF31816000F108013B
:1040A000C16001610021016070470021016170471A
:1040B00010B502460B685C1C0CB9106907E002F1F0
:1040C000080000E04068446824689C42FAD94468CB
:1040D0004C604C68A160886041600A611468641C8F
:1040E000146010BD42684A6093688B6093685960A1
:1040F0009160086103685B1C0360704700BF50203B
:1041000080F31188BFF34F8FBFF36F8F00BF0E484E
:104110000068401C0C49086008460068012812D15C
:104120000A480068C0B208B9012000E0002050B978
:1041300000BF502080F31188BFF34F8FBFF36F8F04
:1041400000BF00BFFEE770479400002004ED00E0D0
:104150000D48006850B900BF502080F31188BFF3AC
:104160004F8FBFF36F8F00BF00BFFEE706480068A8
:10417000401E054908600846006820B9002080F309
:10418000118800BF00BF70479400002070B506463C
:104190003546002E3FD0083D2C461F49606809680F
:1041A000084008B1012000E0002050B900BF5020B5
:1041B00080F31188BFF34F8FBFF36F8F00BF00BF35
:1041C000FEE7206808B9012000E0002050B900BFD8
:1041D000502080F31188BFF34F8FBFF36F8F00BF64
:1041E00000BFFEE70C4960680968084098B1206884
:1041F00088B90949606809688843606000F074F90B
:104200000649606809680844044908602046FFF7C9
:104210002FFA00F071FF70BD900000208800002090
:1042200000204FF0E02108618861064800684FF4E3
:104230007A71B0FBF1F0401E4FF0E0214861072099
:10424000086170472400002070B5FCF715F804469B
:10425000102C16D304F1E02090F8F05315480078A4
:10426000854201DB012000E0002050B900BF502052
:1042700080F31188BFF34F8FBFF36F8F00BF00BF74
:10428000FEE70D48006800F4E0600C4909688842C8
:1042900001D8012000E0002050B900BF502080F379
:1042A0001188BFF34F8FBFF36F8F00BF00BFFEE7D2
:1042B00070BD0000980000200CED00E09C00002084
:1042C000024600200BE0084B53F8303033B9064B60
:1042D00043F8301003EBC0035A6002E0401C08288A
:1042E000F1D300BF704700007C0100202DE9F041B0
:1042F00005460E4617462C46FFF700FF94F944008A
:10430000401C10B9002084F8440094F94500401C7A
:1043100010B9002084F84500FFF71AFFA06B28B9F8
:104320003A46314604F1240000F062F82046FFF7D7
:10433000C8FBBDE8F081000070B504460025D4B18B
:104340001248006808B9012000E0002050B900BF01
:10435000502080F31188BFF34F8FBFF36F8F00BFE2
:1043600000BFFEE700F0C0F800212046FEF702FF84
:1043700000F0C2FE05463DB94FF080500449086088
:10438000BFF34F8FBFF36F8F70BD00006000002040
:1043900004ED00E0034909680160034909684160D0
:1043A00070470000500000203C000020012001491F
:1043B000086070474C00002070B504460D4654B9A3
:1043C00000BF502080F31188BFF34F8FBFF36F8F72
:1043D00000BF00BFFEE70548016818312046FFF71F
:1043E00067FE01212846FEF7C5FE70BD28000020AB
:1043F00070B505460E46144655B900BF502080F3EF
:104400001188BFF34F8FBFF36F8F00BF00BFFEE770
:104410000648016818312846FFF764FE0CB14FF0DA
:10442000FF3621463046FEF7A5FE70BD280000206D
:1044300010B586B000200590049003AA04A905A831
:10444000FFF70EFE0022DDE904101346CDE900213E
:1044500002901EA11F48039A00F09CFC1E490860B0
:104460000846006808B1012400E00024012C02D1B4
:1044700000F0C4FE0446012C15D100BF502080F38B
:104480001188BFF34F8FBFF36F8F00BF4FF0FF3026
:104490001249086001201249086000201149086093
:1044A00000F072F810E0601C08B1012000E000206C
:1044B00050B900BF502080F31188BFF34F8FBFF376
:1044C0006F8F00BF00BFFEE706B010BD49444C45EA
:1044D00000000000013500085C00002058000020AA
:1044E000440000203C00002002480068401C0149B4
:1044F00008607047600000201E48006818B1012065
:104500001D49086034E000201B4908601B48016811
:104510000CE051B900BF502080F31188BFF34F8FDA
:10452000BFF36F8F00BF00BFFEE7491E01EB8100A4
:10453000134A52F8200008B9012000E000200028AA
:10454000E7D101EB81020E4B03EB82004268526817
:10455000426000F108024368934202D14268526807
:1045600042604268D268074B1A600448016000BF8D
:1045700070470000600000204C0000204000002038
:10458000BC010020280000201CB552480068524998
:10459000884201D0012000E0002050B900BF502027
:1045A00080F31188BFF34F8FBFF36F8F00BF00BF41
:1045B000FEE7484800684849491E884201D001206A
:1045C00000E0002050B900BF502080F31188BFF3F5
:1045D0004F8FBFF36F8F00BF00BFFEE73F49084614
:1045E00000780190FF200A4610700846007800907D
:1045F0009DF8000000F0F0009DF80020904201D1ED
:10460000012000E0002050B900BF502080F3118845
:10461000BFF34F8FBFF36F8F00BF00BFFEE79DF862
:10462000000000F050002E4A107007202D4A106044
:1046300009E02C480068401E2A4A10609DF80000DE
:104640004006000E00909DF8000000F080008028D9
:10465000EFD024480068C0F10700042801D10120F0
:1046600000E0002050B900BF502080F31188BFF354
:104670004F8FBFF36F8F00BF00BFFEE71948006880
:104680000002184A10601046008800F4E0601060D4
:10469000124A019810700F482030006840F47000F2
:1046A0000C49203108600846006840F070400860FE
:1046B000FFF7B6FD00200C490860FBF7A5FD0B488D
:1046C000006840F0404009490860FBF789FD002080
:1046D0001CBD000000ED00E071C20F4100E400E0ED
:1046E000980000209C0000209400002034EF00E09F
:1046F00010B500BF502080F31188BFF34F8FBFF378
:104700006F8F00BF00F0B8FB18B14FF08050044924
:10471000086000BF002080F3118800BF10BD0000BA
:1047200004ED00E02DE9F84380460E4617461D468D
:10473000DDF82090B8F1000F01D0012000E000204A
:1047400050B900BF502080F31188BFF34F8FBFF3E3
:104750006F8F00BF00BFFEE70DB1012000E0002019
:1047600050B900BF502080F31188BFF34F8FBFF3C3
:104770006F8F00BF00BFFEE707B10EB1012000E060
:10478000002050B900BF502080F31188BFF34F8F35
:10479000BFF36F8F00BF00BFFEE707B90EB901205E
:1047A00000E0002050B900BF502080F31188BFF313
:1047B0004F8FBFF36F8F00BF00BFFEE75020009008
:1047C0000098502801D1012000E0002050B900BF1E
:1047D000502080F31188BFF34F8FBFF36F8F00BF5E
:1047E00000BFFEE72C464CB1012084F846004B4642
:1047F0003A46314640460094FEF796FE2046BDE814
:10480000F883000070B505460E462C4654B900BF2B
:10481000502080F31188BFF34F8FBFF36F8F00BF1D
:1048200000BFFEE7FFF76AFCD4E90F12206801FB26
:10483000020060600020A0632068A060E06B401E62
:10484000226C216800FB0210E060FF2084F8440025
:1048500084F845009EB9206908B9012000E00020D5
:10486000A8B904F1100000F0FBFB80B14FF08050BC
:1048700009490860BFF34F8FBFF36F8F07E004F162
:104880001000FFF705FC04F12400FFF701FCFFF71F
:104890005FFC012070BD000004ED00E02DE9FF4346
:1048A00083B0064688461D464FF00009344654B989
:1048B00000BF502080F31188BFF34F8FBFF36F8F7D
:1048C00000BF00BFFEE7B8F1000F01D1206C08B9AE
:1048D000012000E0002050B900BF502080F3118873
:1048E000BFF34F8FBFF36F8F00BF00BFFEE7022DF6
:1048F00002D1E06B012801D1012000E0002050B975
:1049000000BF502080F31188BFF34F8FBFF36F8F2C
:1049100000BF00BFFEE700F099FA08B9059808B992
:10492000012000E0002050B900BF502080F3118822
:10493000BFF34F8FBFF36F8F00BF00BFFEE700BF15
:10494000FFF7DCFBA06BE16B884201D3022D28D17D
:104950002A4641462046FEF71AFD0746606A08B916
:10496000012000E0002068B904F1240000F078FB89
:1049700088B14FF0805032490860BFF34F8FBFF3CA
:104980006F8F08E03FB14FF080502D490860BFF3B2
:104990004F8FBFF36F8FFFF7DBFB012007B0BDE840
:1049A000F083059818B9FFF7D3FB0020F6E7B9F1BB
:1049B000000F04D101A8FFF7EDFC4FF00109FFF74C
:1049C000C7FBFFF791FDFFF799FB94F94400401CEA
:1049D00010B9002084F8440094F94500401C10B937
:1049E000002084F84500FFF7B3FB05A901A800F0FB
:1049F00059F9F0B92046FEF7A8FEA0B104F1100065
:104A00000599FFF7D9FC2046FFF75BF800F074FB2F
:104A1000002895D14FF0805009490860BFF34F8FAF
:104A2000BFF36F8F8CE72046FFF74BF800F064FB75
:104A300086E72046FFF745F800F05EFB0020ADE773
:104A400004ED00E02DE9F05F07468A4690461E46D9
:104A50003C4654B900BF502080F31188BFF34F8FFC
:104A6000BFF36F8F00BF00BFFEE7BAF1000F01D1A7
:104A7000206C08B9012000E0002050B900BF502090
:104A800080F31188BFF34F8FBFF36F8F00BF00BF5C
:104A9000FEE7022E02D1E06B012801D1012000E0E7
:104AA000002050B900BF502080F31188BFF34F8F12
:104AB000BFF36F8F00BF00BFFEE7FFF7C5FB00BF6E
:104AC0005021EFF3118081F31188BFF34F8FBFF3B3
:104AD0006F8F00BF0546A06BE16B884201D3022EA9
:104AE00023D194F945B0324651462046FEF74FFC9B
:104AF0000BF1010088B9606A08B9012000E00020CC
:104B000080B904F1240000F0ABFA58B1B8F1000FFD
:104B100008D00120C8F8000004E00BF1010040B209
:104B200084F845004FF0010901E04FF0000900BF93
:104B300085F3118800BF4846BDE8F09F2DE9F74195
:104B400083B005460E464FF000082C4654B900BF0E
:104B5000502080F31188BFF34F8FBFF36F8F00BFDA
:104B600000BFFEE70EB9206C08B9012000E000206C
:104B700050B900BF502080F31188BFF34F8FBFF3AF
:104B80006F8F00BF00BFFEE700F060F908B905981D
:104B900008B9012000E0002050B900BF502080F388
:104BA0001188BFF34F8FBFF36F8F00BF00BFFEE7C9
:104BB00000BFFFF7A3FAA76BF7B131462046FEF717
:104BC000D1FB781EA063206908B9012000E0002015
:104BD00060B904F1100000F043FA38B14FF0805092
:104BE0002F490860BFF34F8FBFF36F8FFFF7B0FA05
:104BF000012006B0BDE8F081059818B9FFF7A8FAC2
:104C00000020F6E7B8F1000F04D101A8FFF7C2FBBE
:104C10004FF00108FFF79CFAFFF766FCFFF76EFA0A
:104C200094F94400401C10B9002084F8440094F921
:104C30004500401C10B9002084F84500FFF788FAB1
:104C400005A901A800F02EF8F0B92046FEF770FD86
:104C5000A0B104F124000599FFF7AEFB2046FEF752
:104C600030FF00F049FA0028A3D14FF080500C49E2
:104C70000860BFF34F8FBFF36F8F9AE72046FEF7B0
:104C800020FF00F039FA94E72046FEF71AFF00F003
:104C900033FA2046FEF74CFD00288AD00020A8E712
:104CA00004ED00E070B505460C4655B900BF502034
:104CB00080F31188BFF34F8FBFF36F8F00BF00BF2A
:104CC000FEE754B900BF502080F31188BFF34F8F27
:104CD000BFF36F8F00BF00BFFEE7FFF70FFA124868
:104CE00002686868131A2068401C08B9002617E09B
:104CF0000E4928680968884204D06868904201D843
:104D000001260DE02068984207D92068C01A20606B
:104D10002846FFF73FFB002602E000202060012626
:104D2000FFF716FA304670BD3C000020500000200E
:104D30002DE9FF4F85B0804689461746DDE912AB65
:104D4000B800FEF7FDFE064656B15C20FEF7F8FE01
:104D500004460CB1266304E03046FFF717FA00E082
:104D600000248CB1002084F85900CDE900ABCDE9D6
:104D700002403A4649464046089BFEF7EAFB204679
:104D8000FEF736FA012501E04FF0FF35284609B05D
:104D9000BDE8F08F2DE9F04F85B007468846914673
:104DA0009A46DDE90EB6109C0EB1012000E000200D
:104DB00050B900BF502080F31188BFF34F8FBFF36D
:104DC0006F8F00BF00BFFEE70CB1012000E00020A4
:104DD00050B900BF502080F31188BFF34F8FBFF34D
:104DE0006F8F00BF00BFFEE75C20039003985C2834
:104DF00001D1012000E0002050B900BF502080F315
:104E00001188BFF34F8FBFF36F8F00BF00BFFEE766
:104E1000B4B1AEB125462C462E63022085F8590068
:104E2000002004A953464A46CDE900B1CDE902501D
:104E300041463846FEF78DFB2846FEF7D9F901E0DA
:104E400000200490049805B0BDE8F08F054909687A
:104E500009B9012005E00449096809B9022000E008
:104E600000207047440000206000002001490868CD
:104E7000704700003C0000202DE9F0414FF0000891
:104E800043480068002876D142480068451C4148E4
:104E9000056015BB40480068006808B9012000E0C3
:104EA000002050B900BF502080F31188BFF34F8F0E
:104EB000BFF36F8F00BF00BFFEE737480768374872
:104EC0000068354908603548076035480068401C6F
:104ED00033490860FEF748FD00BF3248006885424C
:104EE0003BD300BF2C480068006808B9012000E0EF
:104EF000002020B14FF0FF302A4908602CE02648FE
:104F00000068C068C4686668B54202D22548066079
:104F100022E0201DFFF790F8A06A18B104F11800F4
:104F2000FFF78AF82049E06A0968884202D91E49D9
:104F3000E06A0860E16A01EB81011C4A02EB810032
:104F4000211DFFF7CFF81A49E06A0968C96A88424B
:104F5000C8D34FF00108C5E700BF15480068C06A14
:104F600000EB8000114951F82000012801D94FF0D1
:104F7000010805E0FFE70F480068401C0D49086084
:104F80000D48006808B14FF001084046BDE8F081C7
:104F9000600000203C0000202C0000203000002099
:104FA000500000205800002040000020BC010020DC
:104FB00028000020480000204C00002070B5054665
:104FC0002C460026002D43D022480068844201D19F
:104FD000012000E0002050B900BF502080F311886C
:104FE000BFF34F8FBFF36F8F00BF00BFFEE7206D91
:104FF00050B900BF502080F31188BFF34F8FBFF32B
:105000006F8F00BF00BFFEE7206D401E2065E16C82
:10501000E06A88421CD0206DD0B9201DFFF70CF843
:10502000E06CE062E06AC0F13800A0610A49E06A21
:105030000968884202D90849E06A0860E16A01EB20
:105040008101064A02EB8100211DFFF74BF8012682
:10505000304670BD2800002040000020BC01002028
:1050600070B50646F068C46854B900BF502080F39C
:105070001188BFF34F8FBFF36F8F00BF00BFFEE7F4
:1050800004F11800FEF7D8FF15480068A0B9201DEC
:10509000FEF7D2FF1349E06A0968884202D9114934
:1050A000E06A0860E16A01EB81010F4A02EB8100CE
:1050B000211DFFF717F804E004F118010B48FFF772
:1050C00011F80B49E06A0968C96A884204D90125C8
:1050D00001200849086000E00025284670BD000056
:1050E0006000002040000020BC0100204406002099
:1050F000280000204C00002070B50024002636480F
:10510000006850B900BF502080F31188BFF34F8F63
:10511000BFF36F8F00BF00BFFEE7FEF7EFFF2E4823
:105120000068401E2C4908600846006800284ED1DF
:105130002A48006800284AD023E02948C068C4688B
:1051400004F11800FEF778FF201DFEF775FF2549D2
:10515000E06A0968884202D92249E06A0860E16A87
:1051600001EB8101204A02EB8100211DFEF7BAFF0D
:105170001E49E06A0968C96A884202D301201C49B5
:1051800008601748006808B9012000E000200028E6
:10519000D3D00CB1FEF7E8FB1648056865B100BF37
:1051A000FFF76AFE10B10120114908606D1E002D45
:1051B000F6D100200F4908600D48006838B101267B
:1051C00030070D490860BFF34F8FBFF36F8FFEF7B5
:1051D000BFFF304670BD0000600000203800002096
:1051E0004406002040000020BC01002028000020D0
:1051F0004C0000204800002004ED00E010B586B00F
:105200000024FEF751F816480068D0B10020059040
:10521000049003AA04A905A8FEF72EFF0222DDE9E7
:1052200004100023CDE9002102900EA10F48039A3B
:10523000FFF7B0FD0E4908600846006800B1012480
:1052400000BF54B900BF502080F31188BFF34F8FC7
:10525000BFF36F8F00BF00BFFEE7204606B010BD52
:105260006C000020546D722053766300A93A000848
:10527000700000202DE9FF4704460D4616461F46E4
:10528000DDF830804FF0000954B900BF502080F3A2
:105290001188BFF34F8FBFF36F8F00BF00BFFEE7D2
:1052A0001448006810B3009501960294062D15DA93
:1052B000FFF7CCFD022808D10023424669460D487D
:1052C0000068FFF7EBFA814610E000231A466946B2
:1052D00008480068FFF7E2FA814607E000233A46F3
:1052E000694604480068FFF7ADFB8146484604B0B4
:1052F000BDE8F0876C000020F053000800000000BB
:105300000000000000000000000000000004000099
:10531000180000000000000000000000FC5300081E
:10532000000000000000000000000000000000007D
:105330000004000018000000000000000000000051
:10534000D45300080000000000000000000000002E
:105350000000000000010000180000000000000034
:1053600000000000CC530008000000000000000016
:105370000000000000000000000100001800000014
:105380000000000000000000E053000800000000E2
:10539000000000000000000000000000000100000C
:1053A00008000000000000000000000000061016C9
:1053B00000061016000000000000000001020304B7
:1053C0000607080900000000010203044C4544548C
:1053D00061736B00747269706F645461736B000069
:1053E000706F776572646973705461736B0000004D
:1053F00073686F6F7465725461736B006368617377
:1054000069735461736B0000285400080000002089
:10541000B4000000122B0008DC540008B400002087
:10542000344E0000222B00080000000000000000A5
:10543000000000000000000000000000000000006C
:105440000000000010000000010000000024F40033
:10545000000000000000000000000000000000004C
:10546000000000000000000000000000000000003C
:10547000000000000000000000000000000000002C
:10548000000000000000000000000000000000001C
:10549000000000000000000000000000000000000C
:1054A00000000000000000000000000000000000FC
:1054B000000000000000000000000000AAAAAAAA44
:1054C00000000000000000000000000000000000DC
:0C54D000000000000000000000000000D0
:04000005080001AD41
:00000001FF
