:020000040800F2
:1000000048060020C1010008CB1700087915000838
:10001000C9170008CD020008151B000800000000E9
:10002000000000000000000000000000CF170008E2
:10003000E902000800000000CD170008D1170008F1
:10004000DB010008DB010008DB010008DB01000820
:10005000DB010008DB010008DB010008DB01000810
:10006000DB010008DB010008DB010008DB01000800
:10007000DB010008DB010008DB010008DB010008F0
:10008000DB010008DB010008DB010008DD020008DD
:10009000D1020008DB010008DB010008DB010008D9
:1000A000DB010008DB010008DB010008DB010008C0
:1000B000DB010008DB010008DB010008DB010008B0
:1000C000DB010008DB010008DB010008DB010008A0
:1000D000DB010008DB010008DB010008DB01000890
:1000E000DB010008DB010008DB010008DB01000880
:1000F000DB010008DB010008DB010008DB01000870
:10010000DB010008DB010008DB010008DB0100085F
:10011000DB010008DB010008DB010008DB0100084F
:10012000DB010008DB010008DB010008DB0100083F
:10013000DB010008DB010008DB010008DB0100082F
:10014000DB010008DB010008DB010008DB0100081F
:10015000DB010008DB010008DB010008DB0100080F
:10016000DB010008DB010008DB010008DB010008FF
:10017000DB010008DB010008DB01000800000000D3
:10018000DB010008DB010008DB010008DB010008DF
:10019000DB010008DB010008DB010008DB010008CF
:1001A0000000000000000000DB010008DFF80CD0B8
:1001B00000F07AF800480047B91B00084806002004
:1001C0000648804706480047FEE7FEE7FEE7FEE7F1
:1001D000FEE7FEE7FEE7FEE7FEE7FEE75918000848
:1001E000AD0100082DE9F05F0546002092469B46D0
:1001F00088460646814640241BE02846414647463D
:10020000224600F041F853465A46C01A914110D395
:1002100011461846224600F028F82D1A67EB01080F
:100220004F4622460120002100F01FF817EB00097D
:100230004E41201EA4F10104DFDC484631462A4627
:100240004346BDE8F09FD2B201E000F8012B491E01
:10025000FBD270470022F6E710B513460A46044663
:100260001946FFF7F0FF204610BD202A04DB203A94
:1002700000FA02F1002070479140C2F1200320FAF9
:1002800003F3194390407047202A04DB203A21FAF7
:1002900002F00021704721FA02F3D040C2F120029F
:1002A0009140084319467047064C074D06E0E06848
:1002B00040F0010394E8070098471034AC42F6D3AD
:1002C000FFF778FF6C1E00088C1E0008FEE7000098
:1002D000014800F07CB9000088010020014800F0CE
:1002E00076B90000880100207047704790F8202000
:1002F000012A07D0022A05D0416A41F480214162D7
:1003000001207047006842690A434261002070473B
:10031000F0B590F820500468A468012D05D0022D96
:1003200003D0416A41F4802153E014F0406F01D1C1
:10033000E5004BD5C4F30164022C03D9416A41F4B2
:10034000000146E00125A5401D608D684FF4C07393
:100350009DB1CE6835434E6845EAC605066803EB95
:100360000417F5514FF4C275076805EB04150E69C3
:100370007E51097D012905D009E00E88CD6845EA46
:100380004655EBE701684E5946F480764E51117997
:10039000D2F805504FF4C67641EA0525016806EB10
:1003A00004168D511178D2F801204FF4C47541EA3A
:1003B0000221026805EB04155151006803EB04119A
:1003C000425842F0010242500020F0BD416A41F41F
:1003D000001141620120F0BD10B590F82020012AE3
:1003E00007D0022A05D0416A41F4802141620120F0
:1003F00010BD3B48D0F8002242F00102C0F80022B4
:10040000D0F8002222F47C52C0F80022D0F800225A
:100410004B6A42EA0322C0F800220A7D02F01F0361
:1004200001229A40D0F81C329343C0F81C32CB69A9
:10043000B3B9D0F80C329343C0F80C328C894B68B6
:1004400064F31F434C6900EBC404C4F840320C89C8
:100450000B6864F31F434C6900EBC404C4F84432D6
:10046000CB69012B16D1D0F80C321343C0F80C32F3
:100470000C884B6864F31F434C6900EBC404C4F858
:1004800040320C89CB6864F31F434C6900EBC40411
:10049000C4F844328B69002BD0F804320ED01343D9
:1004A000C0F804320B69002BD0F8143208D0134383
:1004B000C0F81432096A012904D008E09343EFE739
:1004C0009343F5E7D0F81C121143C0F81C12D0F882
:1004D000001221F00101C0F80012002010BD000040
:1004E00000640040704730B590F82040012C05D0E2
:1004F000022C03D0416A41F480215DE004680029A8
:1005000055D02469A40754D04FF4D874056804EB7F
:1005100001142D5915F00405956005682D594ED02C
:10052000ED08556005682C5904F00204D4604FF4BE
:10053000DA74056804EB01142D5905F00F051561F7
:1005400005682D59C5F30725956105682C59240CBC
:1005500054614FF4DC72046802EB0112A4581C7061
:100560000468A458240A5C700468A458240C9C7085
:100570000468A258120EDA704FF4DE72046802EBBF
:100580000112A4581C710468A458240A5C71046800
:10059000A458240C9C710468A258120EDA710068E9
:1005A00081B1016941F020010161002030BDE468A2
:1005B000A8E7416A41F400114162012030BD6D0D90
:1005C0001560AFE7C16841F02001C160EDE72DE99A
:1005D000F05F0546006800244669D0F804908768FB
:1005E000D0F80CB0D0F810A0D0F81880F10748D09F
:1005F000F90714D001218160B80703D5284600F01F
:1006000026FA0CE0780702D54FF4006407E03807BB
:1006100002D54FF4805402E0284600F017FAF8059E
:1006200016D529684FF480708860B80503D5284630
:1006300000F00FFA0CE0780502D544F4005407E00E
:10064000380502D544F4804402E0284600F000FA60
:10065000F80316D529684FF480308860B80303D5B5
:10066000284600F0F8F90CE0780302D544F4004481
:1006700007E0380302D544F4803402E0284600F055
:10068000E9F9300707D55FEACB6004D52968102067
:1006900044F40074C86070074FF0080707D55FEA9C
:1006A0000B7004D52868C760284600F05FF9B007D2
:1006B00006D52868C068800702D0284600F058F99F
:1006C000700607D55FEACA6004D52968102044F493
:1006D00080640861B00607D55FEA0A7004D528680F
:1006E0000761284600F082F9F00606D528680069FF
:1006F000800702D0284600F07AF9B00308D55FEAF7
:10070000C96005D5296810204860284600F070F9B6
:10071000F00307D55FEA097004D5286847602846CA
:1007200000F09AF9300446D55FEA497040D5F005EB
:1007300004D55FEAC87001D044F00104B00504D5C7
:100740005FEA887001D544F00204700504D55FEAC1
:10075000487001D544F00404300529D518F0700F15
:1007600026D008F07000402815D006DC102809D0EB
:1007700020280AD0302816D10AE050280ED0602850
:1007800011D10EE044F008040DE044F010040AE03A
:1007900044F0200407E044F0400404E044F0800406
:1007A00001E044F480742868816921F0700181615E
:1007B000296804204860002C05D0686A20436862DC
:1007C0002846FFF78FFEBDE8F09F70B5040003D008
:1007D00094F8200010B104E0012070BD204600F024
:1007E00081F82068016821F00201016000F02AFA16
:1007F0000546052604E000F025FA401B0A2811D81A
:10080000206840688007F6D42068016841F0010143
:10081000016000F017FA05460BE000F013FA401BE8
:100820000A2806D9606A40F40030606284F82060CB
:10083000D2E720684068C007EFD0207E01282068FA
:1008400001683DD021F080010160607E01282068B0
:10085000016838D021F040010160A07E01282068A5
:10086000016833D021F020010160E07E012820687A
:1008700001682ED041F010010160207F012820681E
:10088000016829D021F008010160607F01282068FB
:10089000016824D021F004010160D4E90201084379
:1008A000D4E90412114308436168491E08432168D2
:1008B000C86100206062012084F82000002070BD23
:1008C00041F08001C0E741F04001C5E741F020015F
:1008D000CAE721F01001CFE741F00801D4E741F069
:1008E0000401D9E710B586B0044614216846FFF725
:1008F000B1FC1B49206888422FD11A4800210268A8
:1009000042F000720260006800F000700590154827
:100910001038026842F0080202600068022200F00B
:10092000080005900320CDE90210CDE9000209205E
:10093000049069460C4800F091F8002211461320FB
:1009400000F0EEF9132000F0DDF90022114614202A
:1009500000F0E6F9142000F0D5F906B010BD000053
:100960000064004040380240000C02407047000024
:1009700000B51A4A016889B0914204D107AB6A46B2
:100980000021FFF7B0FD00991548A1F205210729C4
:1009900017D20288C9B2521C01EB410302801149EF
:1009A000BDF81C2001EB830152BA8A80BDF81E20DD
:1009B00052BACA80BDF8202052BA0A819DF822207E
:1009C0008A720188B1F5FA7F06D1002101800648BC
:1009D000016881F08001016009B000BD0064004041
:1009E0000E000020F00100201418024070477047EC
:1009F0007047000070B5044690F82000012804D02C
:100A0000606A40F40020606218E0022084F8200050
:100A10002068016821F00101016000F013F905462A
:100A20000EE000BF00F00EF9401B0A2808D9606AEA
:100A300040F400306062052084F82000012070BD81
:100A400020684068C007EDD1606270BD7047704794
:100A50007047704770477047704700002DE9F84FA6
:100A600000224FF0010803254FF00F0E0B6808FA23
:100A700002F42340A3426ED14E68012E05D0022E0F
:100A800003D0112E01D0122E12D186684FEA420CEB
:100A900005FA0CF7BE43CF6807FA0CF737438760B7
:100AA0004668A6430C79C4F3001494403443446070
:100AB000C668570005FA07FC8C6826EA0C06BC409D
:100AC0003443C4604C68022C01D0122C13D1D408DA
:100AD00000EB8404A346D4F8209054074FEAD46A6C
:100AE0000EFA0AF629EA06090E6906FA0AF646EA35
:100AF0000906CBF8206004680E7924EA0C0406F09D
:100B00000306BE40264306604C68E4006FD53B4CAC
:100B1000266846F480462660246822F0030604F422
:100B200080440094364C3444A446D4F808489607D0
:100B3000360F0EFA06F7BC43324FB84201D10027F8
:100B40002EE0314FB84201D1012729E02F4FB842A2
:100B500002D1022724E04AE02D4FB84201D10327F9
:100B60001EE02C4FB84201D1042719E02A4FB842A9
:100B700001D1052714E0294FB84201D106270FE023
:100B8000274FB84201D107270AE0264FB84201D1CA
:100B9000082705E0244FB84201D1092700E00A27C1
:100BA000B7402743CCF80878204E34684F689C4300
:100BB000FF0300D51C4334601C4E361D34684F685B
:100BC0009C43BF0300D51C433460184E083634687C
:100BD0004F689C43FF0200D51C433460134E0C3613
:100BE00034684F689C43BF0200D51C433460521CDC
:100BF000102AFFF43BAFBDE8F88F000044380240F4
:100C000000300140000002400004024000080240A1
:100C1000000C024000100240001402400018024084
:100C2000001C02400020024000240240003C014021
:100C30000069084000D0012070470AB18161704707
:100C40000904FBE70148806870470000100000209D
:100C500002488168027811448160704710000020CA
:100C60000B4810B5016841F400710160016841F45E
:100C700080610160016841F480710160032000F02F
:100C80006FF8002000F006F800F024F8002010BDF6
:100C9000003C024070B50D4D04464FF47A7128783F
:100CA000B1FBF0F00A490968B1FBF0F000F0E4FA9A
:100CB00048B9102C07D200222146501E00F030F80F
:100CC00000206C6070BD012070BD0000100000208D
:100CD000080000200A4808B5016841F4804101601D
:100CE000006800F4804000900548001F016841F052
:100CF00080510160006800F08050009008BD000045
:100D000044380240002809DB00F01F020121914015
:100D10004009800000F1E020C0F800117047000099
:100D2000F0B40E4B1B680C46C3F30223C3F1070556
:100D3000042D00D90425191D072901D2002300E044
:100D4000DB1E012606FA05F1491E214099409E400E
:100D5000761E16403143F0BC00F0DDBE0CED00E025
:100D6000064900F0070208684FF6FF03184040EA02
:100D70000220034A10430860704700000CED00E0B9
:100D80000000FA052DE9F0470E46050065D0DFF8B2
:100D90001481D8F80000F7B200F00F00B04207D27B
:100DA00088F80070D8F8000000F00F00B04254D16D
:100DB00028683D4C810712D5400703D5206840F4D0
:100DC000E05020602878000703D5206840F4604098
:100DD00020602068A96820F0F0000843206028788F
:100DE000C0072DD0304968680839012812D0022880
:100DF00013D0032811D00968890700292DDA21684A
:100E000021F0030101432160FFF71CFF814641F2FD
:100E1000883A0EE009688903EFE709688901ECE781
:100E2000FFF710FFA0EB0901514502D90320BDE8EF
:100E3000F0872068696800F00C00B0EB810FEFD1FB
:100E4000D8F80010404601F00F01B14207D90770F1
:100E5000006800F00F00B04201D00120E7E72878D9
:100E6000400705D52068E96820F4E0500843206079
:100E70002878000706D52068296920F4604040EAF8
:100E8000C100206000F018F82168084AC1F303117E
:100E9000515CC8400649086006480068FFF7FAFE42
:100EA0000020C4E7003C0240083802405C1E0008F5
:100EB0000800002014000020154810B5006810F04C
:100EC0000C02144813D01449042A0FD0082A0ED15A
:100ED0000F4C241F2268236802F03F025B0207D5F3
:100EE0002068C0F38810A0FB010106E0084610BD91
:100EF0002168C1F38811A1FB00010023FFF772F9FB
:100F00002168C1F30141491C4900B0FBF1F010BD5B
:100F1000083802400024F400001BB7002DE9F84F08
:100F2000040076D02078DFF838A3CE4DC00749D032
:100F3000DAF800105046C1F38101012908D0006899
:100F4000C0F3810002280AD1281D0068400206D59E
:100F50002868800336D560680028E2D032E06068F7
:100F6000B0F5803F10D0B0F5A02F286810D020F445
:100F700080302860286820F4802028606068A0B154
:100F8000FFF760FE06460CE0286840F48030F4E786
:100F900040F480202860F7E7FFF754FE801B6428A8
:100FA00073D828688003F7D50CE0FFF74BFE0646A0
:100FB00005E000BFFFF746FE801B6428F0D82868D4
:100FC0008003F7D42078DFF8A08280074FF0000973
:100FD0003ED5DAF80010504611F00C0F09D0006829
:100FE000C0F3810002280BD19D48001F0068400219
:100FF00006D42868800715D5E068012809D111E0DA
:10100000E068B8B10120C8F80000FFF71BFE0646F3
:1010100005E020E1FFF716FE801B0228C0D82868F3
:101020008007F7D52868216920F0F80040EAC10060
:1010300028600DE0C8F80090FFF704FE064604E0C3
:10104000FFF700FE801B02281FD828688007F7D40E
:101050002078000722D5824E844861696C3671B1D0
:1010600001210160FFF7EEFD074604E0FFF7EAFD0E
:10107000C01B022809D830688007F7D50EE0C0F8F9
:101080000090FFF7DFFD074605E082E0FFF7DAFD9D
:10109000C01B02287DD830688007F7D4207840072D
:1010A00068D5DFF8BCB100270BF1380BDBF8000086
:1010B000C0000BD4DBF8001041F08051CBF80010D9
:1010C000DBF80000012700F080500090684E306887
:1010D000C00510D4306840F480703060FFF7B2FD76
:1010E000009005E0FFF7AEFD0099401A022850D8A5
:1010F0003068C005F6D55A4EA068683601280FD072
:101100000528306810D020F001003060306820F0F1
:1011100004003060A068B8B1FFF794FD00900FE0C4
:10112000306840F00100F4E740F004003060F7E779
:10113000FFF788FD0099411A41F28830814266D854
:1011400030688007F4D50EE0FFF77CFD009007E0E3
:10115000FFF778FD0099411A41F28830814256D854
:1011600030688007F4D42FB1DBF8001021F08051F3
:10117000CBF80010A069D0B3DAF800205146C2F3D2
:101180008102022A4AD00228484607D0C8F86000E7
:1011900000E03CE0FFF756FD04463BE04746C8F858
:1011A0006000FFF74FFD064605E000BFFFF74AFD70
:1011B000801B02282BD828688001F7D4D4E90701C6
:1011C0000843A16A2B4A490802EB0141626A41EADD
:1011D0008211084394F82C1040EA01612048001F56
:1011E000016001203866FFF72DFD044605E034E07C
:1011F000FFF728FD001B022809D828688001F7D5D1
:101200002BE000BFFFF71EFD001B022802D90320C0
:10121000BDE8F88F28688001F4D41EE00128F7D0DB
:101220000868E26900F48001914214D1226A00F05A
:101230003F0191420FD147F6C071626A014091426D
:1012400009D1A26A00F44031914204D1E16A00F070
:101250007060884201D00120DAE70020D8E7000062
:10126000083802400038024000004742800E4742E2
:10127000007000400000FFFF10B5401EB0F1807FFD
:1012800001D3012010BD4FF0E02460610F216017F1
:1012900000F041FC0020A06107202061002010BD6B
:1012A00010B590F83C20012A22D0012280F83C2081
:1012B000CA688C6822F4407222434C6822F480622F
:1012C00022430C6822F4006222430C6922F480520B
:1012D00022434C6922F400522243C969002322F4BC
:1012E00080420A4301684A6480F83C30002010BD07
:1012F000022010BD70B590F83C20012A32D00124A4
:1013000080F83C40022280F83D2003685A689D68BE
:1013100022F070060A6832435A60134B02689A4200
:1013200014D0B2F1804F11D0104B9A420ED0104B16
:101330009A420BD00F4B9A4208D00F4B9A4205D0DD
:101340000E4B9A4202D00E4B9A4204D1496825F0C6
:1013500080031943916080F83D40002180F83C10E3
:10136000084670BD022070BD00000140000400402E
:1013700000080040000C0040000401400040014013
:101380000018004070B586B0044614216846FEF788
:1013900061FF18492068884229D117480024016854
:1013A00041F001010160016801F00101059101684E
:1013B00041F0100101600068022500F01000059066
:1013C0004FF440700090CDE901540126CDE9034669
:1013D00069460A48FFF742FB4FF4C0400090CDE950
:1013E0000154CDE9034669460548FFF737FB06B0CF
:1013F00070BD000000000140303802400000024093
:101400000010024070B5044690F83C000D460128DB
:101410000DD0012684F83C60022084F83D0042B1E2
:10142000042A18D0082A2AD00C2A4DD139E00220EB
:1014300070BD206800F0ACFA2068816941F00801B5
:1014400081612068816921F00401816120688169DE
:101450002A69114311E0206800F0CAFA2068816906
:1014600041F4006181612068816921F480618161BA
:10147000206881692A6941EA0221816124E02068AB
:1014800000F0ECFA2068C16941F00801C1612068F0
:10149000C16921F00401C1612068C1692A69114351
:1014A00011E0206800F00EFB2068C16941F4006182
:1014B000C1612068C16921F48061C1612068C1698E
:1014C0002A6941EA0221C16184F83D60002084F864
:1014D0003C0070BD10B5040003D094F83D0010B17D
:1014E00007E0012010BD002084F83C00204600F0F9
:1014F0000DF8022084F83D00211D206800F0D6F987
:10150000012084F83D00002010BD000008B50068EF
:101510000649884208D10648016841F0010101608E
:10152000006800F00100009008BD000000000140CC
:101530004438024010B504460068012200F01AFA4F
:101540000B492068884202D00A49884203D1416C85
:1015500041F4004141642068816801F007010629D7
:1015600003D0016841F001010160002010BD0000BE
:101570000000014000040140FEE70000104810B5E3
:101580000E4901600321416000214FF40022816077
:10159000C0E903124FF44012426101760122427603
:1015A0008176C17601774177FFF70FF9002803D0E4
:1015B000BDE81040FEF799BE10BD00000064004079
:1015C000880100202DE9F04786B014216846FEF717
:1015D00041FE43480024016841F0080101600168B0
:1015E00001F008010591016841F001010160016805
:1015F00001F001010591016841F08001016001687D
:1016000001F080010591016841F04001016001682D
:1016100001F040010591016841F00201016001689B
:1016200001F002010591016841F0100101600168BB
:1016300001F010010591016841F02001016000688E
:10164000DFF8A08000F02000059000223C214046F9
:10165000FFF7F3FADFF890A04FF4C076002231468E
:101660005046FFF7EAFADFF884904FF40067002253
:1016700039464846FFF7E1FA002280215046FFF73D
:10168000DCFA3C2000900125CDE901546946404632
:101690000394FFF7E3F90096CDE9015469465046FB
:1016A0000394FFF7DBF90420CDE9000469461048F4
:1016B0000294FFF7D3F90097CDE9015469464846F3
:1016C0000394FFF7CBF980200090CDE901546946DF
:1016D00050460394FFF7C2F906B0BDE8F08700005A
:1016E00030380240001C0240001802400010024046
:1016F0000004024010B592B000240F941C216846EB
:101700001094FEF7A7FD202107A8FEF7A3FD2D48A2
:101710002B490160A721C0E9011444F62061C0E90A
:10172000031444618461FFF7D5FE08B1FEF7DDFDC7
:101730000F940FA923481094FFF7DCFD08B1FEF7C2
:10174000D4FD602000904FF47A70CDE90104039439
:1017500004940594002269461A480694FFF752FE45
:1017600008B1FEF7C2FD042269461648FFF74AFE9B
:1017700008B1FEF7BAFD082269461248FFF742FE9B
:1017800008B1FEF7B2FD0C2269460E48FFF73AFE9B
:1017900008B1FEF7AAFD0794089409944FF400508D
:1017A0000A94CDE90B4007A906480E94FFF778FD8F
:1017B00008B1FEF79AFD0348FFF7E4FD12B010BD33
:1017C00000000140B0010020FEE7704770477047FD
:1017D000FFF73EBA30B593B030216846FEF73AFDC8
:1017E00014210CA8FEF736FD19480025016841F0C8
:1017F00080510160006800F0805011901548016828
:1018000041F4404101600068022400F4404011901E
:1018100001200090000401908001CDE906400620DF
:101820000890A820CDE9090404200B906846FFF732
:1018300075FB0CA90F2081E831004FF4A0500F90E8
:10184000E002109005210CA8FFF79CFA13B030BD00
:1018500040380240007000401048016841F47001B7
:1018600001600F48016841F0010101600C4A00214C
:101870000832116002680B4B1A400260031D0A4ACD
:101880001A60026822F48022026005480C30016070
:1018900002495806803908607047000088ED00E072
:1018A00000380240FFFFF6FE10300024F0B5026859
:1018B000254C264D264E274F274B4FF0804CA042FB
:1018C00009D0604507D0A84205D0B04203D0B84245
:1018D00001D0984204D122F0700E4A6842EA0E020A
:1018E000A0421BD0604519D0A84217D0B04215D0F5
:1018F000B84213D0984211D0184DA8420ED0184DBE
:10190000A8420BD0174DA84208D0174DA84205D0C9
:10191000164DA84202D0164DA84203D122F44075BC
:10192000CA682A434D6922F080022A4302608A680D
:10193000C2620A688262A04201D0984201D109695C
:10194000016301214161F0BD00000140000400403D
:1019500000080040000C004000040140004001402D
:10196000004401400048014000180040001C0040B5
:101970000020004010B501F01F030121046A9940C6
:101980008C430462016A9A401143016210BD000059
:10199000F0B5026A22F001020262036A42688469B9
:1019A000124E24F073050C682C4323F002058B685B
:1019B0002B430D4DA84201D0B04205D123F00807BA
:1019C000CB683B4323F00403A84201D0B04205D1C9
:1019D0004D6922F4407215438A692A43426084614A
:1019E000496841630362F0BD00000140000401400A
:1019F000F0B5026A22F010020262026A436884694A
:101A00000D6824F4E64444EA05248D6822F020029F
:101A100042EA05120F4D104EA84201D0B04206D145
:101A2000CF6822F0800242EA071222F04002A84268
:101A300001D0B04207D14D6923F4406343EA8503E6
:101A40008D6943EA8503436084614968816302626A
:101A5000F0BD00000000014000040140F0B5026A42
:101A600022F480720262026A4368C46922F400723E
:101A700024F073050C68124E2C438D6842EA05224F
:101A80000E4DA84201D0B04206D1CF6822F40062C8
:101A900042EA072222F48062A84201D0B04207D174
:101AA0004D6923F4405343EA05138D6943EA051356
:101AB0004360C4614968C1630262F0BD0000014037
:101AC0000004014030B5026A22F480520262046AC6
:101AD0004268C3690D6823F4E64343EA05238D6831
:101AE00024F4005444EA0534084DA84202D0084DBD
:101AF000A84204D14D6922F4804242EA8512426034
:101B0000C36149680164046230BD00000000014007
:101B100000040140FEE70907090E002804DB00F17C
:101B2000E02080F80014704700F00F0000F1E02082
:101B300080F8141D704702E008C8121F08C1002A6F
:101B4000FAD170477047002001E001C1121F002A3E
:101B5000FBD1704700B58BB000210122CDE9061200
:101B60000591009101910291039104910E21CDE91B
:101B700008216946FEF730FC0448FEF73BFF0221CE
:101B80000248FEF7B3FB0BB000BD00008801002047
:101B900010B5074C0421607820700648FFF748F81C
:101BA000607010B92078012800D0002010BD00001E
:101BB0000C000020000402402DED048B82B0FFF7E2
:101BC0004FF8FFF707FEFFF7FDFCFFF7D7FCFFF725
:101BD00091FD01223C214948FFF72FF800F0FAF867
:101BE0004748FFF7B7FF0024DFED468A9FED469A8E
:101BF0009FED468A464D00BF04EB8400F0EE681A64
:101C000000EBC40005EB8000B0EE612AB0EE481A8C
:101C1000F0EE080AB0EE490A00F0D9F8641CE4B20C
:101C2000072CE9D3A8463B4D3B4E4FF0000968888E
:101C3000401C00B26880FA2806D13848A5F8029006
:101C4000416981F400614161FFF7A2FFA0B195ED08
:101C5000010ADFED330A334930EE200A85ED010A2F
:101C60002888D230288010EE100A884204DD85EDE5
:101C7000018A4FF4876028805FF0000404EB440081
:101C800006EB8007B7F9060000EE100A04EB8400AB
:101C900000EBC401F8EEC00A08EB810095ED010AE3
:101CA00000F044F8BDEEC00A641CE4B210EE100A65
:101CB000072C7880E2D3B6F926000090B6F91A30E6
:101CC000B6F90E20B6F90210002000F099F8CDF810
:101CD0000090B6F94A30B6F93E20B6F9321001202C
:101CE00000F08EF8104928880A6850630A689063EB
:101CF0000A68D0630968086499E70000001C024084
:101D0000880100200060EA46000020420000000038
:101D10001C00002000000020F00100200010024004
:101D20000000704200003443B001002080ED050A3D
:101D3000C0ED060A90ED071A70EE600A80ED081AF1
:101D4000C0ED070A90ED000A20EE202A80ED092A56
:101D500090ED0A0AD0ED011A01EEA00A80ED0A0A00
:101D6000D0ED021A11EEA01A80ED0B1AD0ED030A85
:101D7000F1EE601AB4EEE10AF1EE10FA02D8B0EE1C
:101D8000610A06E0B4EEE00AF1EE10FA01DBB0EE13
:101D9000600A80ED0A0A32EE000A30EE010A80ED98
:101DA0000C0AD0ED040AB1EE601AB4EEC10AF1EEED
:101DB00010FA02D8B0EE410A06E0B4EEE00AF1EE05
:101DC00010FA01DBB0EE600A80ED0C0A704780EC7F
:101DD000050A704710B500210848FFF7ABFB042146
:101DE0000648FFF7A7FB08210448FFF7A3FBBDE85F
:101DF00010400C210148FFF79DBB0000B0010020FE
:101E000010B588B00A9C18B340F2FF200290002061
:101E10000490059008200690080A8DF800008DF8BF
:101E20000110100A8DF80200180A8DF804008DF8D0
:101E30000530200A8DF806008DF803208DF8074044
:101E400001236A4602A90448FEF762FA08B010BDF1
:101E500040F2FF10DAE700008801002000000000D7
:101E60000000000001020304060708098C1E000898
:101E7000000000201C000000361B0008A81E0008FF
:101E80001C0000202C060000461B0008380400003F
:101E9000000000000024F400000000000100000029
:081EA00010000000000000002A
:04000005080001AD41
:00000001FF
