:020000040800F2
:10000000804E002081020008B71500083B1400084C
:10001000B51500080D0900089D1700080000000034
:10002000000000000000000000000000C101000806
:100030000F090008000000001D020008AD160008AE
:100040009B0200089B0200089B0200089B0200081C
:100050009B0200089B0200089B0200089B0200080C
:100060009B0200089B0200089B0200089B020008FC
:100070009B0200089B0200089B0200089B020008EC
:100080009B0200089B0200089B0200089B020008DC
:100090009B0200089B0200089B0200089B020008CC
:1000A0009B0200089B0200089B0200089B020008BC
:1000B0009B0200089B0200089B0200089B020008AC
:1000C0009B0200089B0200089B0200089B0200089C
:1000D0009B0200089B0200089B0200089B0200088C
:1000E0009B0200089B0200089B0200089B0200087C
:1000F0009B0200089B0200089B0200089B0200086C
:100100009B0200089B0200089B0200089B0200085B
:100110009B0200089B0200089B0200089B0200084B
:100120009B0200089B0200089B0200089B0200083B
:100130009B0200089B0200089B0200089B0200082B
:100140009B0200089B0200089B0200089B0200081B
:100150009B0200089B0200089B0200089B0200080B
:100160009B0200089B0200089B0200089B020008FB
:100170009B0200089B0200089B0200080000000090
:100180009B0200089B0200089B0200089B020008DB
:100190009B0200089B0200089B0200089B020008CB
:1001A00000000000000000009B020008DFF80CD0F7
:1001B00000F088FB0048004761280008804E0020BE
:1001C0002C4B19680868B0E8F04F80F30988BFF33A
:1001D0006F8F4FF0000080F311887047000000001F
:1001E00008480068006880F308884FF0000080F33A
:1001F000148862B661B6BFF34F8FBFF36F8F00DF15
:1002000000BF00BF08ED00E0DFF80C00016841F41A
:1002100070010160704700BF88ED00E0EFF30980D6
:10022000BFF36F8F134B1A681EF0100F08BF20ED3D
:10023000108A20E9F04F106009B44FF0500080F3AD
:100240001188BFF34F8FBFF36F8F03F075FB4FF033
:10025000000080F3118809BC19680868B0E8F04F05
:100260001EF0100F08BFB0EC108A80F30988BFF3AE
:100270006F8F704714000020EFF305807047000077
:100280000648804706480047FEE7FEE7FEE7FEE730
:10029000FEE7FEE7FEE7FEE7FEE7FEE74917000898
:1002A000AD0100082DE9F05F0546002092469B460F
:1002B00088460646814640241BE02846414647467C
:1002C000224600F0F4F853465A46C01A914110D322
:1002D00011461846224600F0DBF82D1A67EB01089C
:1002E0004F4622460120002100F0D2F817EB00090A
:1002F0004E41201EA4F10104DFDC484631462A4667
:100300004346BDE8F09F40EA01039B0703D009E0A4
:1003100008C9121F08C0042AFAD203E011F8013BF1
:1003200000F8013B521EF9D27047D2B201E000F84A
:10033000012B491EFBD270470022F6E710B5134689
:100340000A4604461946FFF7F0FF204610BD2DE986
:10035000FE4F81EA030404F0004421F000410094C0
:100360004FF0000B23F0004350EA01045ED052EA44
:1003700003045BD0C3F30A54C1F30A552C44A4F21E
:10038000F3340194A0FB0254C1F3130141F4801132
:10039000C3F3130343F4801301FB024400FB034E39
:1003A000840A970A44EA815447EA8357A4FB076802
:1003B00002958D0A05FB07854FEA932C04FB0C542C
:1003C0002705029D4FEA065847EA1637B5EB0805A0
:1003D0006EEB070C870E920E47EA811742EA8312F2
:1003E000A7FB0201B6EB0B0164EB00042B0D43EA03
:1003F0000C335E1844EB1C50DA465146E7FB020111
:10040000C5F313044FEA0B3343EA14534FEA0432A3
:10041000019C43EA0603A4F10C040294009CCDE97C
:1004200000B400F09AF803B0BDE8F08F0020014658
:10043000F9E700F0004230F000400AD0C10D01F5AC
:100440006071C0F3160042EA0151C208400711432F
:10045000704700200146704701F0004330B421F09E
:10046000004150EA010206D00A0DA2F56072C1F304
:100470001301002A02DC30BC00207047440F44EA1C
:10048000C104C100E01830BC00EBC25000F01FB83E
:10049000202A04DB203A00FA02F100207047914044
:1004A000C2F1200320FA03F3194390407047202A39
:1004B00004DB203A21FA02F00021704721FA02F30E
:1004C000D040C2F1200291400843194670470029EC
:1004D000A8BF7047401C490008BF20F001007047CA
:1004E00010B4B0FA80FC00FA0CF050EA010404BF2A
:1004F00010BC704749B1CCF1200421FA04F411FA80
:100500000CF118BF012121430843A3EB0C01CB1DC3
:100510004FEA00614FEA102042BF002010BC704734
:1005200000EBC35010440029A4BF10BC7047401C0E
:10053000490008BF20F0010010BC704710B5141E20
:1005400073F1000408DA401C41F1000192185B418C
:100550001A4301D120F0010010BD2DE9F04D924663
:100560009B4611B1B1FA81F202E0B0FA80F220327A
:100570009046FFF78DFF04460F4640EA0A0041EA25
:100580000B0153465A46084313D0114653EA010063
:1005900019D0C8F140025046FFF789FF05460E46C4
:1005A000504659464246FFF773FF084305D00120E5
:1005B00004E020463946BDE8F08D0020054346EAB8
:1005C000E0762C4337430A986305E40AA0EB080061
:1005D0000022FD0A44EA47540A3002D500200146B1
:1005E000E9E7010510196941DDE90845001969418C
:1005F000BDE8F04DA2E72DE9FE4F804681EA0300F9
:10060000C00F0C46009021F0004123F00045B8EBEC
:100610000200A94105D24046214690461C460B46A1
:10062000024623F00040104347D0270DC7F30A00CD
:10063000C3F30A510290401A019040286BDAC3F3C9
:10064000130040F4801B0098924620B10023D2EBA7
:10065000030A63EB0B0B01985946C0F14002504668
:10066000FFF716FF06460D4650465946019A00F020
:100670003BF910EB08006141002487EA115284EA3B
:10068000E7731A4340D0009A62B3019A012A4FEAF5
:10069000075215DC001B61EB02014FF0004202EA39
:1006A0000752CDE90042001C41F5801132462B462D
:1006B000FFF753FF03B0BDE8F08F40462146F9E74E
:1006C000001B61EB0201001C41F5801300185B4127
:1006D0002018A2F5001747EB030140EAD570B619C0
:1006E0006D4111E06D084FEA360645EAC0754FEAE4
:1006F0000752001B61EB0201001C41F58011490803
:100700004FEA30000019514132462B4603B0BDE894
:10071000F04FFFF713BF0098012240000023D0EBF9
:10072000020263EBE073009821464FEAE074B8EBF5
:10073000000061EB0401E9E783F000435BE781F02F
:10074000004158E72DE9F04D81EA030404F0004B25
:1007500021F0004514464FF0000A23F0004150EA12
:10076000050220D054EA01021DD0C5F30A57024603
:10077000C5F31303C1F31300C1F30A5640F4801507
:1007800043F48013A7EB0608101BD64608F2FD3889
:1007900073EB050002D308F1010801E092185B41F8
:1007A000B8F1000F03DA00200146BDE8F08D00200B
:1007B0004FF48011064684460EE0171B73EB0507C5
:1007C00005D3121B63EB050306434CEA010C4908F1
:1007D0004FEA300092185B4150EA0107EDD152EA2E
:1007E000030012D082EA040083EA0501084305D021
:1007F000101BAB4106D20122002306E000224FF07D
:10080000004302E06FF0010253101AEB06004CEBBC
:10081000085110EB0A0041EB0B01BDE8F04DFFF76A
:100820008DBE2DE9F04D00231A461B1A8A4103DBC9
:1008300000200146BDE8F08DC1F30A52C1F3130157
:1008400041F480154FF0000BD10702D100186D4123
:10085000521E0027044640F2FF11384601EB620A9F
:100860003E468046024600204FF48011FFF71FFEEF
:10087000C2197141BB1846EB0100B4EB030C75EBD8
:10088000000C04D3E41A65EB000517460E46241944
:1008900008F101006D4180463428E3DDF91946EB8B
:1008A0000600091BA84103D24FF0FF32134601E0B6
:1008B000002213461BEB070046EB0A51BDE8F04D42
:1008C000FFF73CBE064C074D06E0E06840F0010330
:1008D00094E8070098471034AC42F6D3FFF76AFC5F
:1008E0000445000824450008202A06DBCB17203ADF
:1008F00041FA02F043EAE07306E041FA02F3D04025
:10090000C2F120029140084319467047FEE7704744
:100910007047000070B5044600F004F90546601CFD
:1009200002D004480078044400F0FCF8401BA042C8
:10093000FAD370BD080000202DE9F84F00224FF0D7
:10094000010803254FF00F0E0B6808FA02F423404C
:10095000A3426ED14E68012E05D0022E03D0112E77
:1009600001D0122E12D186684FEA420C05FA0CF71C
:10097000BE43CF6807FA0CF7374387604668A64343
:100980000C79C4F30014944034434460C6685700A3
:1009900005FA07FC8C6826EA0C06BC403443C460A8
:1009A0004C68022C01D0122C13D1D40800EB840423
:1009B000A346D4F8209054074FEAD46A0EFA0AF6F8
:1009C00029EA06090E6906FA0AF646EA0906CBF88C
:1009D000206004680E7924EA0C0406F00306BE4089
:1009E000264306604C68E4006FD53B4C266846F40D
:1009F00080462660246822F0030604F480440094B4
:100A0000364C3444A446D4F808489607360F0EFAFC
:100A100006F7BC43324FB84201D100272EE0314FD8
:100A2000B84201D1012729E02F4FB84202D1022755
:100A300024E04AE02D4FB84201D103271EE02C4F9D
:100A4000B84201D1042719E02A4FB84201D1052745
:100A500014E0294FB84201D106270FE0274FB842D2
:100A600001D107270AE0264FB84201D1082705E047
:100A7000244FB84201D1092700E00A27B740274395
:100A8000CCF80878204E34684F689C43FF0300D5AB
:100A90001C4334601C4E361D34684F689C43BF03B2
:100AA00000D51C433460184E083634684F689C43A8
:100AB000FF0200D51C433460134E0C3634684F6877
:100AC0009C43BF0200D51C433460521C102AFFF423
:100AD0003BAFBDE8F88F00004438024000300140D1
:100AE000000002400004024000080240000C0240E6
:100AF000001002400014024000180240001C024096
:100B00000020024000240240003C0140426931EADA
:100B1000020200D10904816170470AB18161704706
:100B20000904FBE7014880687047000008000020C6
:100B300002488168027811448160704708000020F3
:100B40000B4810B5016841F400710160016841F47F
:100B500080610160016841F480710160032000F050
:100B600065F80F2000F006F800F024F8002010BD12
:100B7000003C024070B50D4D04464FF47A71287860
:100B8000B1FBF0F00A490968B1FBF0F000F041FC5C
:100B900048B9102C07D200222146501E00F026F83A
:100BA00000206C6070BD012070BD000008000020B6
:100BB000E80000200C4882B0016841F480410160E7
:100BC000006800F4804000900748001F016841F071
:100BD000805101600068002200F0805000900F21D9
:100BE000901E02B000F002B844380240F0B40E4B40
:100BF0001B680C46C3F30223C3F10705042D00D97B
:100C00000425191D072901D2002300E0DB1E01265F
:100C100006FA05F1491E214099409E40761E164075
:100C20003143F0BC00F0D3BD0CED00E0064900F00C
:100C3000070208684FF6FF03184040EA0220034A03
:100C400010430860704700000CED00E00000FA055A
:100C50002DE9F0470E46050065D0DFF81481D8F87D
:100C60000000F7B200F00F00B04207D288F8007021
:100C7000D8F8000000F00F00B04254D128683D4C75
:100C8000810712D5400703D5206840F4E05020606A
:100C90002878000703D5206840F460402060206871
:100CA000A96820F0F000084320602878C0072DD004
:100CB000304968680839012812D0022813D0032867
:100CC00011D00968890700292DDA216821F0030174
:100CD00001432160FFF726FF814641F2883A0EE08A
:100CE00009688903EFE709688901ECE7FFF71AFF54
:100CF000A0EB0901514502D90320BDE8F087206827
:100D0000696800F00C00B0EB810FEFD1D8F800104B
:100D1000404601F00F01B14207D90770006800F0AA
:100D20000F00B04201D00120E7E72878400705D541
:100D30002068E96820F4E050084320602878000724
:100D400006D52068296920F4604040EAC10020608F
:100D500000F018F82168084AC1F30311515CC8403B
:100D60000649086006480068FFF704FF0020C4E752
:100D7000003C024008380240EC430008E800002034
:100D80000C000020154810B5006810F00C02144843
:100D900013D01449042A0FD0082A0ED10F4C241F57
:100DA0002268236802F03F025B0207D52068C0F387
:100DB0008810A0FB010106E0084610BD2168C1F3C0
:100DC0008811A1FB00010023FFF76CFA2168C1F331
:100DD0000141491C4900B0FBF1F010BD0838024048
:100DE0000024F400001BB7002DE9F84F040076D072
:100DF0002078DFF838A3CE4DC00749D0DAF80010CC
:100E00005046C1F38101012908D00068C0F3810078
:100E100002280AD1281D0068400206D528688003F0
:100E200036D560680028E2D032E06068B0F5803FD7
:100E300010D0B0F5A02F286810D020F480302860A2
:100E4000286820F4802028606068A0B1FFF76AFE5F
:100E500006460CE0286840F48030F4E740F4802037
:100E60002860F7E7FFF75EFE801B642873D82868C8
:100E70008003F7D50CE0FFF755FE064605E000BFFE
:100E8000FFF750FE801B6428F0D828688003F7D451
:100E90002078DFF8A08280074FF000093ED5DAF80D
:100EA0000010504611F00C0F09D00068C0F381000B
:100EB00002280BD19D48001F0068400206D4286814
:100EC000800715D5E068012809D111E0E068B8B1C4
:100ED0000120C8F80000FFF725FE064605E020E1E6
:100EE000FFF720FE801B0228C0D828688007F7D5AE
:100EF0002868216920F0F80040EAC10028600DE070
:100F0000C8F80090FFF70EFE064604E0FFF70AFE61
:100F1000801B02281FD828688007F7D42078000794
:100F200022D5824E844861696C3671B1012101601D
:100F3000FFF7F8FD074604E0FFF7F4FDC01B0228A9
:100F400009D830688007F7D50EE0C0F80090FFF7A9
:100F5000E9FD074605E082E0FFF7E4FDC01B02283B
:100F60007DD830688007F7D42078400768D5DFF84F
:100F7000BCB100270BF1380BDBF80000C0000BD42C
:100F8000DBF8001041F08051CBF80010DBF80000D6
:100F9000012700F080500090684E3068C00510D4E2
:100FA000306840F480703060FFF7BCFD009005E0D1
:100FB000FFF7B8FD0099401A022850D83068C005E4
:100FC000F6D55A4EA068683601280FD0052830683B
:100FD00010D020F001003060306820F00400306054
:100FE000A068B8B1FFF79EFD00900FE0306840F0B8
:100FF0000100F4E740F004003060F7E7FFF792FDEE
:101000000099411A41F28830814266D830688007E1
:10101000F4D50EE0FFF786FD009007E0FFF782FDB4
:101020000099411A41F28830814256D830688007D1
:10103000F4D42FB1DBF8001021F08051CBF8001070
:10104000A069D0B3DAF800205146C2F38102022A27
:101050004AD00228484607D0C8F8600000E03CE0CB
:10106000FFF760FD04463BE04746C8F86000FFF725
:1010700059FD064605E000BFFFF754FD801B02281E
:101080002BD828688001F7D4D4E907010843A16A66
:101090002B4A490802EB0141626A41EA8211084386
:1010A00094F82C1040EA01612048001F01600120E3
:1010B0003866FFF737FD044605E034E0FFF732FD00
:1010C000001B022809D828688001F7D52BE000BF53
:1010D000FFF728FD001B022802D90320BDE8F88F86
:1010E00028688001F4D41EE00128F7D00868E2697E
:1010F00000F48001914214D1226A00F03F01914234
:101100000FD147F6C071626A0140914209D1A26ACB
:1011100000F44031914204D1E16A00F070608842ED
:1011200001D00120DAE70020D8E7000008380240AB
:101130000038024000004742800E474200700040E5
:101140000000FFFF70B5040005D00025A56294F8EB
:10115000510010B106E0012070BD84F850502046C7
:1011600000F030F8022084F851002068016821F076
:1011700040010160D4E901010843D4E9031211439D
:10118000084361690843218B01F400710843E16958
:101190000843216A0843A16A084321680860A069DE
:1011A000042101EA1040616A084321684860206810
:1011B000C16921F40061C1616565012084F85100B5
:1011C000002070BD10B586B0044614216846FFF7B4
:1011D000B3F814492068884221D1134800210268DD
:1011E00042F480120260006800F4801005900E48FE
:1011F0001438026842F020020260006800F020000B
:1012000005904FF4607000900220CDE901010320A9
:1012100003900520049069460448FFF78DFB06B053
:1012200010BD00000050014044380240001402404C
:101230002DE9F84F044690F8500000270A9E1D46FD
:1012400092468B464FF0010901280ED0012084F808
:101250005000FFF767FC804694F851006168012850
:101260000CD0B1F5827F07D102E00220BDE8F88FF3
:10127000A16809B9042801D00227C2E0BBF1000F20
:1012800027D0BAF1000F24D01DB394F851000428E0
:1012900002D0052084F8510000206065C4F838A011
:1012A000E587A587C4F830B0E586A586206460642C
:1012B00020680168490603D4016841F040010160DB
:1012C000E068B0F5006F606805D0E8B3012D46D046
:1012D0007FE0012795E008B1012D39D1206B21680D
:1012E0000088C860206B801C2063E08E401EE08672
:1012F0002EE02068816889070FD5E18E69B1B9F1C8
:10130000010F0AD1216B0988C160206B801C20630A
:10131000E08E401EE0864FF0000920688168C90712
:101320000CD0E18F51B1C068A16B0880A06B801C0C
:10133000A063E08F401EE0874FF00109FFF7F2FB4A
:10134000A0EB0800B04200E009E001D3701C50D1CE
:10135000E08E0028CDD1E08F0028CAD13FE0206B7D
:10136000216800780873206B401C2063E08E401ECB
:10137000E0862EE02068816889070FD5E18E69B18B
:10138000B9F1010F0AD1216B09780173206B401C60
:101390002063E08E401EE0864FF0000920688168DF
:1013A000C9070CD0E18F51B1C068A16B0870A06B68
:1013B000401CA063E08F401EE0874FF00109FFF75B
:1013C000B1FBA0EB0800B04202D3701C01D010E0CA
:1013D0007EB1E08E0028CDD1E08F0028CAD14246F0
:1013E0003146204600F0E8F828B10127202060654A
:1013F00007E0032705E0A06818B92068C168806885
:101400000090012084F85100002084F850003846F4
:101410002CE710B5401EB0F1807F01D3012010BD34
:101420004FF0E02460610F21601700F0D0F9002038
:10143000A06107202061002010BDFEE701F01EFA28
:10144000012240210B48FFF768FB4FF400640A4D6E
:1014500001F044FA00F0FAFE01F032F9322001F016
:1014600085FB21462846FFF751FB012001F07EFB5A
:10147000EEE70000001402400010024010B592B0E8
:1014800001F08EFB24220C496846FEF73CFF6A46B9
:1014900000210A4801F0C0FB094C074924222060C2
:1014A000243109A8FEF72FFF09AA0021054801F001
:1014B000B3FB606012B010BD90430008A516000891
:1014C000000000203D1400082DE9F04186B01421F1
:1014D0006846FEF731FF22480024016841F001010F
:1014E0000160016801F001010591016841F080018E
:1014F0000160016801F080010591016841F020015F
:101500000160016801F020010591016841F01001BE
:1015100001600068134F00F0100005900022402188
:101520003846FFF7FAFADFF84080FE140022314611
:101530004046FFF7F2FA402000900125CDE9015422
:10154000694638460394FFF7F7F90096CDE9015450
:10155000694640460394FFF7EFF906B0BDE8F08115
:10156000303802400014024000100240104810B50C
:101570000E4901604FF48271416000218160C160B9
:101580004FF400720161C0E905123022C0E9072161
:10159000416281620A21C162FFF7D4FD002803D0B5
:1015A000BDE81040FFF7B4B910BD00000050014085
:1015B000F0000020FEE7704738B504461248134B90
:1015C0000068B0FBF3F04FF47A7358430090606802
:1015D000B0F5827F0DD10B4600920022802120467B
:1015E00000F016F870B1606D40F0200060650320D7
:1015F00038BD009830B1401E009020688068C0431C
:101600000006F6D5002038BDE800002000366E0147
:101610002DE9F0411D4617460E460446DDF81880B8
:1016200008E0681C06D0FFF77DFAA0EB0800A8428E
:101630000BD255B12068806836EA000030D0002017
:10164000B842EED10020BDE8F0812068416821F069
:10165000E00141606068B0F5827F0BD1A068B0F511
:10166000004F02D0B0F5806F04D12068016821F0EE
:1016700040010160A06AB0F5005F09D120680168EF
:1016800021F4005101602068016841F400510160BB
:10169000012084F85100002084F850000320D2E794
:1016A0000120CDE7012001F061FAFBE710B5FFF75B
:1016B0003FFA02F0B7FC012803D0BDE8104002F069
:1016C000E7B910BD30B593B030216846FEF734FE5F
:1016D00014210CA8FEF730FE19480025016841F0DE
:1016E00080510160006800F0805011901548016839
:1016F00041F4404101600068022400F44040119030
:1017000001200090000401908001CDE906400620F0
:101710000890A820CDE9090404200B906846FFF743
:1017200063FB0CA90F2081E831004FF4A0500F900B
:10173000E002109005210CA8FFF78AFA13B030BD23
:1017400040380240007000401048016841F47001C8
:1017500001600F48016841F0010101600C4A00215D
:101760000832116002680B4B1A400260031D0A4ADE
:101770001A60026822F48022026005480C30016081
:1017800002495806803908607047000088ED00E083
:1017900000380240FFFFF6FE10300024FEE703B4DD
:1017A00001984100009850EAC12018BF04204A0D5A
:1017B00018BF40F0010040F2FF72B2EB515F08BF6A
:1017C00040F00200012808BF052002B07047090759
:1017D000090E002804DB00F1E02080F800147047B7
:1017E00000F00F0000F1E02080F8141D70470000A9
:1017F00070B5C1482DED020B2DED0E8B82B0119D01
:1018000025F000449FEDBEDB9FEDBFEB84423EDB45
:10181000A4F140511098A1F17F6108430FD0BC485A
:10182000844202DC28D1109830B39DED100B02B039
:10183000BDEC0E8B02B0BDE8704000F0A6BC9DED83
:10184000100B53EC1D2B51EC100BFEF780FD9DEDA2
:10185000100B41EC180B53EC1E2B51EC100BFEF748
:1018600076FD53EC182BFEF7C6FE41EC100B02B0D0
:10187000BDEC0E8B02B070BD012000F0CDFC02B0BB
:10188000BDEC0E8B02B0BDE8704000F095BCA148E5
:101890009FEDA18B844256DA9DED100BB4F1795F78
:1018A0000ADA51EC100BFFF77AFF042808BF00F0AA
:1018B00093FC9DED100BDAE753EC102B51EC100B61
:1018C000FEF745FD41EC190B95480621B0EE490A9B
:1018D000F0EE690A784400F0DCFB53EC192B51EC74
:1018E000100BFEF734FD41EC1A0B8E48B0EE490A9E
:1018F000F0EE690A0421784400F0CBFB53EC192B7D
:1019000051EC100BFEF723FD53EC182BFEF773FE82
:1019100041EC100B51EC1A0B53EC102BFEF712FF9D
:10192000CDE900019DED000B53EC102B9DED100B4C
:1019300051EC100BFEF70BFD9DED101B53EC112B22
:10194000FEF759FED2E09DED100B51EC100B00F0AC
:1019500071FC53EC182BFEF7F2FE9FED730BCDE9F3
:10196000000153EC102B9DED000B51EC100BFEF71A
:10197000EEFC41EC190B6E480621B0EE490AF0EE80
:10198000690A784400F085FB53EC192B51EC100BDD
:10199000FEF7DDFC41EC1B0B6648B0EE490AF0EEA9
:1019A000690A0421784400F074FB53EC192B51ECC4
:1019B000100BFEF7CCFC53EC182BFEF71CFE41EC91
:1019C0001C0B51EC190B01F09DFD41EC180B5A4812
:1019D0009FED5BABA04222DC53EC1C2B51EC1B0BAC
:1019E000FEF7B0FECDE900019DED000B51EC180BA8
:1019F00053EC102BFEF7ABFC53EC182BFEF7FBFD62
:101A000053EC1A2BFEF7A3FC53EC1D2BFEF794FEB0
:101A100053EC1E2BFEF793FE41EC100B5FE08DEDB7
:101A2000008B002000909DED000B51EC180B53EC47
:101A3000102BFEF7E0FD9DED000B41EC1E0B53EC6F
:101A4000102B51EC100BFEF782FC53EC192BFEF718
:101A500076FE53EC1E2BFEF775FE41EC190B53EC92
:101A60001C2B51EC1B0BFEF76DFE41EC1B0B53ECDA
:101A70001A2B51EC190BFEF76AFC53EC1D2BFEF7E9
:101A80005EFE41EC190B53EC1A2B51EC180BFEF7D0
:101A90005EFC53EC1B2BFEF75AFC53EC192BFEF7A4
:101AA0004BFE9DED000B41EC180B53EC1A2B51EC47
:101AB000100BFEF74CFC9FED249B53EC192BFEF70B
:101AC0003EFE41EC100B51EC180B53EC102BFEF7C3
:101AD00033FE53EC192BFEF732FE41EC100B002DB8
:101AE0003FF7C5AE51EC100B81F0004141EC100BFB
:101AF000BDE60000000000000000F03F0000000014
:101B0000075C143326A6913C182D4454FB21F93F61
:101B10000000F07F0000E03F000000000000F03F08
:101B2000282B0000362B0000000000000000E03FE2
:101B30007A2A0000882A00003333EF3F00000000BB
:101B40000000000000000040182D4454FB21E93F34
:101B500070B59B482DED020B2DED068B079D25F0F2
:101B60000044A04218DC9748844202DC0AD106985F
:101B700040B19DED060BBDEC068B02B0BDE8704098
:101B800000F003BB002DCCBF9FED8F0B9FED900BA2
:101B9000BDEC068B02B070BD8F48A04215DD8F48AA
:101BA000A042D8BF4FF0FF3458DD9DED060B51EC3D
:101BB000100BFFF7F4FD042808BF00F00DFB9DEDAE
:101BC000060BBDEC068B02B070BD9DED060B51EC13
:101BD000100B00F02FFBCDE9060181489FED828BB1
:101BE000A0423CDD8248A0421FDD00249FED82AB75
:101BF0009DED060B53EC1A2B51EC100BFEF7FBFC82
:101C00009DED060B41EC190B53EC1A2B51EC100B0C
:101C1000FEF79DFB53EC182BFEF78EFD53EC192BB2
:101C2000FEF790FDCDE9060149E09DED060B01248C
:101C300053EC182B51EC100BFEF7DDFC9DED060B61
:101C400041EC190B53EC182B51EC100BFEF774FD03
:101C500053EC192BFEF776FDCDE906012FE068481D
:101C6000A0421FDD02249FED689B9DED060B53EC07
:101C7000192B51EC100BFEF76AFB53EC182BFEF7F7
:101C8000BAFC9DED060B41EC180B53EC192B51ECF3
:101C9000100BFEF751FD53EC182BFEF753FDCDE969
:101CA00006010CE09DED060B032453EC102B9FED79
:101CB000580B51EC100BFEF745FDCDE906019DEDEB
:101CC000060B53EC102B51EC100BFEF740FB41ECD4
:101CD000180B53EC182BFEF73AFB41EC190B4E484E
:101CE0000621B0EE490AF0EE690A784400F0D1F915
:101CF00053EC182B51EC100BFEF729FB41EC180BA1
:101D00004648B0EE490AF0EE690A0521784400F031
:101D1000C0F953EC192B51EC100BFEF718FB41ECFA
:101D2000100B51EC180B53EC102B002C0EDAFEF7B5
:101D300062FC9DED061B53EC112BFEF708FB9DED9D
:101D4000061B53EC112BFEF7FAFC35E0FEF753FCB3
:101D50009DED061B53EC112BFEF7F9FA41EC100B2D
:101D60002F48784400EBC40090ED001B51EC100BA1
:101D700053EC112BFEF7E0FC9DED061B53EC112BF1
:101D8000FEF7DAFC41EC100B2648784400EBC40067
:101D900090ED001B51EC100B53EC112BFEF7CFFC18
:101DA00041EC100B002DA2BFBDEC068B02B070BD44
:101DB00051EC100B81F0004141EC100B01E70000E9
:101DC000000010440000F07F182D4454FB21F93F1F
:101DD000182D4454FB21F9BF0000DC3F0000203ED9
:101DE0000000F33F00000000000000000000F03F92
:101DF0000000E63F0000000000000000000000407E
:101E00000080034000000000000000000000F83FD8
:101E1000000000000000F0BFCA270000802700007B
:101E20000A270000C226000070B56B4E2DED040B92
:101E30002DED028B82B0DDF81CC0DDE905235C428C
:101E40002CF000411C4341EAD474049D22F0004070
:101E5000B44205D86C422C4340EAD474B4420BD946
:101E60009DED061B9DED040B02B0BDEC028B04B092
:101E7000BDE8704000F093B9ACF14054A4F17F6428
:101E80001C430BD0022404EAAC7444EAD274054328
:101E90009FED538B9FED542B07D015E09DED040B68
:101EA00051EC100B00F0BEF942E0002C11BF012CE8
:101EB0009DED040B02B0BDEC028B04BF04B070BDFD
:101EC000022C38D0032C3BD00B439FED491B9FEDD8
:101ED0004A0B0AD0B14218D1B04209D121F0804159
:101EE00020F08040079105900FE0002A15DA10E0FD
:101EF000434B7B44002C08BF93ED000B0DD0012C0D
:101F000010D0022C17D0032C1AD0B0421DD1002AB9
:101F100003DAB0EE410AF0EE610A02B0BDEC028BCA
:101F200004B070BD93ED000B51EC100B81F000413B
:101F300041EC100BF1E7B0EE480AF0EE680AECE76E
:101F4000B0EE420AF0EE620AE7E7401A00153C28BC
:101F5000C8BF8DED000B19DCBCF1000FBEBF10F146
:101F60003C0F9FED290B8DED000B0FDB9DED060B5C
:101F700053EC102B9DED040B51EC100BFEF7E2FB24
:101F800000F058F900F04EF9CDE90001002C08BF2F
:101F90009DED000BC1D0012C10D0022C9FED1C0B2D
:101FA00053EC102B9DED000B51EC100B0DD0FEF7F8
:101FB000C3FB53EC182BFEF7BFFBB9E7019880F089
:101FC000004001909DED000BA7E7FEF7B5FB53EC39
:101FD000182BFEF7B4FBABE70000F07F0000000019
:101FE000182D4454FB210940182D4454FB2109C0ED
:101FF000182D4454FB21F9BF182D4454FB21F93FFF
:10200000F2250000000000000000000000000000B9
:10201000075C143326A6A13C00B52DED048BB0EE71
:10202000409AF0EE609A83B051EC190BFEF7F9FB81
:1020300041EC180B18EE100A18EE901A8DED008B7B
:10204000002818BF0120084320F00040C0F17F6045
:1020500000F1E040C00F14D019EE101A19EE900AEA
:102060008DED009B002918BF0121084320F000409E
:10207000C0F17F6000F1E040C00F04BF012000F01C
:10208000CBF8B0EE480A03B0F0EE680ABDEC048B62
:1020900000BD70B504462DED028B4D1E00EBC50052
:1020A000B0EE408AF0EE608A90ED000B35F006004D
:1020B00017D053EC182B51EC100BFEF748F941ECFC
:1020C000100B6D1E04EBC50090ED001B51EC100BC6
:1020D00053EC112BFEF78FFA41EC100B35F0060094
:1020E000E7D1022D36D0042D1CD0062D1CBFBDEC2F
:1020F000028B70BD53EC182B51EC100BFEF727F937
:1021000094ED0A1B53EC112BFEF775FA53EC182BC8
:10211000FEF71DF994ED081B53EC112BFEF76BFA3B
:1021200041EC100B53EC182B51EC100BFEF70FF990
:1021300094ED061B53EC112BFEF75DFA53EC182BB4
:10214000FEF705F994ED040B53EC102BFEF753FA50
:1021500041EC100B53EC182B51EC100BFEF7F7F879
:1021600094ED021B53EC112BFEF745FA53EC182BA0
:10217000FEF7EDF894ED001B53EC112BFEF73BFA44
:10218000BDEC028B41EC100B70BD10B553EC102B65
:1021900051EC100BFEF72FFA41EC100B10BD10B5EF
:1021A00053EC112B51EC100BFEF725FA41EC100B00
:1021B00010BD0000000000009FED050B10B553ECB2
:1021C000102B51EC100BFEF7BDFA41EC100B10BDBB
:1021D00000000000000000009FED050B10B553EC5F
:1021E000102B51EC100BFEF7B2F841EC100B10BDA8
:1021F000000000000000001002E008C8121F08C123
:10220000002AFAD170477047002001E001C1121F77
:10221000002AFBD1704700000149086070470000A8
:10222000EC00002010B541EC100BFFF791FC51ECD5
:10223000100B10BD82B0CDE9000121F000400190EB
:102240009DED000B02B051EC100B704710B5FF4C28
:10225000FF482DED108B94ED010AD4ED010A20EE1C
:1022600020FA94ED010AD4ED020A20EE20CA94ED82
:10227000010AD4ED030A60EE20BA94ED010AD4ED10
:10228000040A60EE20CA94ED020AD4ED020A20EEA0
:1022900020DA94ED020AD4ED030A20EE209A94EDA0
:1022A000020AD4ED040A20EE20BA94ED030AD4ED1C
:1022B000030A60EE20AA94ED030AD4ED040A20EE8E
:1022C00020AA94ED040AD4ED040A60EE209A90ED61
:1022D000040A84ED080A90ED050A84ED090A90EDE0
:1022E000060A84ED0A0AB0F9001000EE101AB8EEE2
:1022F000C00A84ED0B0AB0F9021000EE101AB8EE15
:10230000C00A84ED0C0AB0F9041000EE101AB8EE01
:10231000C00A84ED0D0AB0F9061000EE101AB8EEEE
:10232000C00A84ED0E0AB0F9081000EE101AB8EEDB
:10233000C00A84ED0F0AB0F90A0000EE100AB8EEE8
:10234000C00A84ED100AFEF7EDFBA064A06C616C7E
:10235000401A00EE100AB8EE400ADFEDBE0AA06C8B
:10236000C0EE208A606494ED0B0AD4ED0B0A94ED64
:102370000C1A20EE200AD4ED0C0A00EE810AD4EDEE
:102380000D0A94ED0D1A00EE810A00F053FAD4ED17
:102390000B0A60EE800AC4ED0B0AD4ED0C0A60EE65
:1023A000800AC4ED0C0AD4ED0D0A20EE800A84EDFB
:1023B0000D0A9FEDA90AB6EE001A84ED0E0A84ED0F
:1023C0000F0A84ED100A71EE6A0A94ED0E0AB0EE5F
:1023D000008A39EE6CEA20EE080A70EEE9EA7BEE3C
:1023E0002B1A31EE4D1A60EE2E0A94ED0F0A31EEE3
:1023F000692A71EE6ADA20EE080A40EE0E0A94EDC0
:10240000100A20EE080A40EE210A94ED0E0A79EE39
:102410002C1A7BEE6BCA20EE080A60EEA00A20EEB2
:10242000210AD4ED0F1A61EE881A01EE820AD4ED6A
:10243000101A3AEE4C2A61EE881A01EE820AD4EDA7
:102440000E1A3AEE0C2A61EE881A40EE000A21EECE
:10245000AC9AD4ED0F1A10EE900A61EE881A01EED4
:10246000829AD4ED101A61EE881A01EEAD9AFDF74A
:10247000E0FF41EC100BFFF7CFFD51EC100BFDF727
:10248000EBFF7FEE4D0A00EE100A7CEE0A3A94ED67
:10249000104A70EEEA0A60EE081A29EE080A63EEA6
:1024A000882A30EEA93A61EE8E0A21EEAE1A2CEEA1
:1024B000882A40EE230A7BEE8B3A00EE2C1A61EE5E
:1024C000A31AD4ED0D3A40EE2D1A94ED0C0A20EE2D
:1024D000030A03EEE20AD4ED0F3A63EEA13A44EEAA
:1024E000603A94ED0B4A30EE230AD4ED0D3A63EED8
:1024F000823AB5EEC00A44EE433A94ED103A94EDB8
:102500000E4A23EE013A04EE613A73EE831A94ED1B
:102510000B3A63EE222A94ED0C3A43EE422A94EDF4
:102520000E2A62EE200A94ED0F2A42EE410A72EE64
:10253000A00AF1EE10FA41D0F5EEC01AF1EE10FA51
:102540003CD0F5EEC00AF1EE10FA37D09FED431AF9
:1025500094ED052A60EE012A02EEA82A61EE812A96
:1025600084ED052A94ED062A02EEA82A84ED062AB7
:1025700020EE812A94ED071A02EE281A84ED071A3C
:1025800094ED081A00EE081A94ED050A31EE000ADF
:1025900084ED080A94ED090A94ED061A01EE880A02
:1025A00030EE010A84ED090A94ED0A0A00EE880A69
:1025B000D4ED070A30EE200A84ED0A0A94ED020AEF
:1025C000D4ED080A94ED091A94ED013A20EEC00A00
:1025D000D4ED030AD4ED021A94ED032A00EEC10AE9
:1025E000D4ED040A94ED0A1A00EEC10AD4ED080AEB
:1025F00094ED0A1A00EE283A94ED010A20EE200A22
:10260000D4ED030A00EE810AD4ED040A94ED091A10
:1026100000EEC10AD4ED090A94ED0A1A40EE281A18
:1026200094ED010A20EE200AD4ED020A00EEC10A60
:10263000D4ED040A94ED081A00EE810AD4ED0A0ADA
:1026400000EE282A94ED010A0AE000008C00002028
:102650001C4A00200000FA44000000000AD7233C76
:1026600020EE200AD4ED020A94ED091AD4ED042AD2
:1026700000EE810AD4ED030A94ED081A00EEC10AB7
:1026800040EE282A23EE030A01EEA10A02EE020A16
:1026900002EEA20A00F0CEF863EE000AC4ED010AD1
:1026A00061EE800AC4ED020A62EE000A22EE800AA0
:1026B000C4ED030A84ED040ABDEC108B10BD0000CC
:1026C00070B5564C2DED068BF8EE008AB0EE008A00
:1026D000B7EE00AA94ED030AD4ED030A94ED041AB0
:1026E00020EE280A20EE200AD4ED040A60EE880AC3
:1026F00000EEC10A30EE0A0A10EE100AFDF799FE4C
:1027000094ED020AD4ED030A94ED041A20EE080AAF
:1027100041EC190B20EE200AD4ED010A60EE880A84
:1027200000EE810A10EE100AFDF783FE41EC100B5B
:10273000B0EE491AF0EE691AFFF776FB9FED389B71
:1027400051EC100B53EC192BFDF701FEFDF784FE45
:10275000354D286394ED020AD4ED040A94ED031A72
:1027600020EE280A20EE200AD4ED010A60EE880A45
:1027700000EE810A10EE100AFDF75BFE41EC100B33
:10278000FFF736F853EC192B51EC100BFDF7DFFD7A
:10279000FDF762FEE86294ED020AD4ED020A94EDC0
:1027A000031A20EE280A20EE200AD4ED030A60EE78
:1027B000880A00EEC10A30EE0A0A10EE100AFDF790
:1027C00038FE94ED030AD4ED040A94ED021A20EECB
:1027D000080A41EC190B20EE200AD4ED010A60EE44
:1027E000880A00EE810A10EE100AFDF722FE41EC85
:1027F000100BB0EE491AF0EE691AFFF715FB9FEDCA
:102800000B1B51EC100B53EC112BFDF7A0FDFDF74A
:1028100023FEA862BDEC068B70BD00008C0000207A
:102820006666666666A64CC01C4A002066666666DA
:1028300066A64C4010EE100AF6EE000A074960EE5C
:10284000200AA1EB600000EE100A20EE801AF7EEDD
:10285000080A41EE400A20EE800A7047DF59375FD0
:10286000FEF76EF9FEF72EFFFEF72EFEFEF77EFE58
:10287000FEF704FE00F0B0F9FEE7000030B585B0C9
:102880006420FEF747F8752000F0E6F811490024AF
:102890001422887010496846FDF735FD4FEA0D0592
:1028A00005EB4400417815F8140000F035F90120DB
:1028B000FEF730F8641CE4B20A2CF1D3032000F0D8
:1028C00026F9022000F01EF900F074F805B000208F
:1028D00030BD00008C000020D843000870B50E22E7
:1028E00030493B2000F0E0F82E499FED2F1A088870
:1028F00042BA01F10E0002804A8852BA42808A88A8
:1029000052BA8280CA8852BA14B200EE104A848148
:102910000A89438BF8EEC00A52BAD21A13B2C381A5
:1029200080EE810A4A89858B52BA521B12B202820A
:102930008989C58B49BA491B09B241824238F3EEF5
:10294000050AD0F842500560D0F84650456030EE98
:10295000200AD0F84A50856080ED030A00EE103A54
:10296000F8EEC00A9FED110A80EE801ADFED100A22
:10297000C1EE201A01EE102AC0ED041AF8EEC11AB9
:1029800081EE801AC1EE201A01EE101AC0ED051A70
:10299000F8EEC11A81EE801A81EE200A80ED060A57
:1029A00070BD0000504A00205CEFA6436F128341C7
:1029B000333365422DE9F041264E002706F10E041F
:1029C0004FF496750E2223493B2000F06DF83188B4
:1029D000A08A49BA0844A0827188E08A49BA0844AA
:1029E000E082B188208B49BA084420833189608B0A
:1029F00049BA084460837189A08B49BA0844A0830E
:102A0000B189E08B49BA0844E0830520FDF782FFD5
:102A10007F1CAF42D6DBB4F9140090FBF5F0A08226
:102A2000B4F9160090FBF5F0E082B4F9180090FBC1
:102A3000F5F02083B4F91A0090FBF5F000B2608342
:102A400090FBF5F0A083B4F91E0090FBF5F0E08355
:102A5000BDE8F081504A0020F8B5104E044600222F
:102A600040213046FEF759F844F080000C4C3725E1
:102A7000621C20700123511E0A480095FEF7D8FB06
:102A8000621C0123511E07480095FEF7D1FB01226D
:102A900040213046FEF741F86078F8BD001402404E
:102AA0008C000020F0000020F8B5134F15460E46AC
:102AB0000446002240213846FEF72FF80F4944F023
:102AC0008000372408704C31A1F14B0208700123BB
:102AD0004C390B480094FEF7ABFB08492B463246B5
:102AE0004C3107480094FEF7A3FB012240213846F1
:102AF000FEF713F80020F8BD001402408C000020FF
:102B0000F0000020C006010E1C2000F005B8C00631
:102B1000010E1B20AFF30080F8B5114F0E4604469E
:102B2000002240213846FDF7F8FF04F07F000D4CED
:102B30003725621C20700123511E0B480095FEF7BB
:102B400077FB2670621C0123511E07480095FEF793
:102B50006FFB012240213846FDF7DFFF0020F8BD62
:102B6000001402408C000020F000002010B5EFF3AC
:102B7000058149B9EFF3108131B908490968022983
:102B800005D1EFF3118111B16FF0050403E00024CA
:102B900008B100F01DFE204610BD000064000020BA
:102BA000EFF3058058B9EFF3108040B90949086880
:102BB000022801D030B109E0EFF3118030B16FF09D
:102BC0000500704701200860002070474FF0FF307B
:102BD000704700006400002010B5EFF3058060B975
:102BE000EFF3108048B90B490868022802D0012889
:102BF00006D00BE0EFF3118040B16FF0050010BD7F
:102C00000220086000F04CFE002010BD4FF0FF30A5
:102C100010BD000064000020F0B585B04FEA01034C
:102C20004FF00004EFF305810394A1BBEFF3108193
:102C300089BB21490968022902D1EFF3118151BBF7
:102C400048B3802618218DF8104004AD42B31768B0
:102C500007B13D4697691FB139467F1E382F02D212
:102C60001779FF0702D0002005B0F0BD576907B102
:102C7000BE08D2F808C0BCF1000F0DD0D4685C2C9F
:102C800018D312693AB137B18DE806103246294699
:102C900001F09DF903900DE0D7685FB912694AB958
:102CA00003AACDE90012B2B2294601F063F9012866
:102CB00000D003940398D7E7640000202DE9F04189
:102CC000134C0F46054666692068001D00F051FC54
:102CD000681C07D137B12168BDE8F0410D48091DD6
:102CE00000F096BC20683544B5424560216805D2A5
:102CF000A068BDE8F041091D00F072BC6068091DC4
:102D000000F06EFC206B854200D22563BDE8F081A7
:102D100014000020380600202DE9F041054600F09F
:102D200083FC2D4C2069401C206120682B4F10B182
:102D3000E06930B32BE025602069012827D1002607
:102D400006EB860007EB800000F03CFC761C382E7A
:102D5000F6D3234800F036FC2148143000F032FC52
:102D60001F48283000F02EFC1D483C3000F02AFCA3
:102D70001B48503000F026FC194860601430A060F9
:102D800005E02068E96AC06A884200D82560E06AE8
:102D9000401CE0626864E86AA169884200D9A061C9
:102DA00000EB800007EB8000291D00F031FC00F0F3
:102DB0005BFCE06900280CD02068E96AC06A8842A0
:102DC00007D208494FF080500860BFF34F8FBFF320
:102DD0006F8FBDE8F0810000140000208801002002
:102DE000E805002004ED00E038B500F01DFC104CB3
:102DF000A068C8B90F4800F0E5FB0E48143000F099
:102E0000E1FB0C482060143060600A4B002028333E
:102E1000009003F1500210210A2000F04FFEA06044
:102E200010B105A100F09EFCBDE8384000F01CBCCC
:102E3000500000204C060020546D7251000000002C
:102E400030B4026C0B46002A0BD0C1681144C1603B
:102E50004468A14201D30168C16030BC1846FDF747
:102E600052BA30BC70472DE9F041856B17460446D5
:102E70000026026C82B1C7B1E068FDF744FAE16850
:102E8000206C091AE1602268914202D26168081A36
:102E9000E060022F16D017E02068A8B9606801F042
:102EA00039F90646002060600EE0A068FDF72BFAB5
:102EB000216CA0680844A0606168884204D320683F
:102EC000A06001E005B16D1E6D1CA5633046BDE834
:102ED000F08110B5044690F8590058B101280CD083
:102EE00002280FD0502080F31188BFF34F8FBFF31B
:102EF0006F8FFEE7206B00F0CBFB2046BDE8104053
:102F000000F0C6BB10BD000010484FF470514207DE
:102F100006D0C01D0D4920F00700411AC1F57051BF
:102F20000B4A00230144C2E900030839103A21F09A
:102F3000070111604B600B600B1AC0E9001393602E
:102F40004FF000405360D060704700001C0E00201E
:102F500078000020144E154CA6F29C474FF0805884
:102F6000DFF84C9012E000BF00F05EFBF068C5682F
:102F7000281D00F0FEFA2069401E2061E068401E16
:102F8000E06000F071FB2846FFF7A3FFE06800282F
:102F9000EAD138680128F9D9C9F80080BFF34F8F0A
:102FA000BFF36F8FF2E7000024060020140000201A
:102FB00004ED00E070B51D46049C51B1C4F800203A
:102FC000C4E90F010121204600F0ACFD84F84C500B
:102FD00070BD2460F4E72DE9F0470E46DDE9098471
:102FE0001746824691009946089DA522206BFDF761
:102FF0009CF96FF00301206B01EB8701084420F07E
:103000000707780707D0502080F31188BFF34F8F50
:10301000BFF36F8FFEE72218315C82F83410315C09
:1030200011B1401C1028F6D3002684F84360382DD7
:1030300000D33725E562C4E91356201D00F0CDFA10
:1030400004F1180000F0C9FA2461C5F13800646287
:10305000A061666584F858604A465146384600F0DB
:103060003BFA2060B8F1000F01D0C8F80040BDE87D
:10307000F087000030B5114900E011460A6882422D
:10308000FBD34B685C18844203D140681844486005
:10309000084643681C18944209D1084C103C246827
:1030A000A24209D052681A4442600A68126802605B
:1030B000814200D0086030BD0460F9E7780000204C
:1030C00070B5002441600B4D0061914206D8D11AC1
:1030D0008269914206D2011D686807E09A4203D2D4
:1030E000994201D3012403E0011D286800F078FA19
:1030F000204670BD5000002010B5044600F094FA40
:10310000A06B28B15FF0000400F0AEFA204610BDBD
:103110000124F9E730B589B0304D55E00498002816
:1031200006DADDE90601059A9047049800284BDB92
:10313000069C606910B1201D00F01BFA02A800F087
:10314000B9F8024604980A283ED2DFE800F00505E7
:10315000053D263705053D260598A169034601442E
:103160002046FFF7ADFF00B3616A20468847E0695B
:10317000012829D1002000900598A1690023421858
:103180001946204601F0D0F878B9502080F3118814
:10319000BFF34F8FBFF36F8FFEE70598A06128B193
:1031A000811813462046FFF78BFF0DE0502080F377
:1031B0001188BFF34F8FBFF36F8FFEE794F82C0099
:1031C00010B9204600F064FA002204A9A86800F0B3
:1031D000FBFD0028A2D109B030BD00005000002046
:1031E0002DE9FC410F46054600F09EFB01A800F0CA
:1031F00061F80446019818B101F004F8BDE8FC81BB
:10320000224EAFB170680068A8B30027291B3A4668
:10321000B06800F0BBFA00F0F5FF0028EED11C49C1
:103220004FF080500860BFF34F8FBFF36F8FE5E71B
:10323000A542EBD800F0E6FF30682746C068C468B6
:10324000201D00F096F9E069012810D1A0692B46F5
:1032500041193A462046FFF733FF40B100200346AC
:10326000014600902A46204601F05EF820B1616ACE
:1032700020468847C2E707E0502080F31188BFF35B
:103280004F8FBFF36F8FFEE70127BFE7500000208D
:1032900004ED00E006484168096829B14168C96841
:1032A000C9684968016370474FF0FF31FAE70000D1
:1032B0001400002070B5054600F0C2FE064E04461C
:1032C0003069844203D200F009F8012000E00020B8
:1032D00028602046346170BD50000020F8B5194DBB
:1032E0001FE0C068C4680668201D00F042F9616AEA
:1032F00020468847E069012813D1A0693044B042D4
:1033000006D924616060211D286800F069F908E091
:1033100000200346014600903246204601F004F8A2
:1033200038B1286801680029DBD16968C5E9001057
:10333000F8BD502080F31188BFF34F8FBFF36F8F1C
:10334000FEE700005000002008484068401C4FF095
:10335000500080F3118804D0BFF34F8FBFF36F8FFD
:10336000FEE7BFF34F8FBFF36F8FFEE780000020B3
:10337000074C2068016841B1C0680021D0F8000006
:10338000FFF72EFFFFF7C6FEF3E701210020F7E766
:10339000500000202DE9F041044600F045F994F971
:1033A000455004F1240609E0606A48B1304600F057
:1033B000F1FE08B100F03AFA6D1E6DB2002DF3DC9B
:1033C0004FF0FF3684F8456000F04EF900F02CF91C
:1033D00094F9445004F1100709E0206948B13846D7
:1033E00000F0D8FE08B100F021FA6D1E6DB2002D7C
:1033F000F3DC84F84460BDE8F04100F035B900002A
:103400002DE9F0410546002700F08EFA314E306874
:1034100008B9FFF779FDF06805424BD1C5B308350F
:1034200068070ED005F00700C0F1080005446807E2
:1034300007D0502080F31188BFF34F8FBFF36F8FF9
:10344000FEE72DB37068854234D82248103001461B
:103450000C6801E020460C466168A94202D221684E
:103460000029F7D131688C4224D0076821680160B7
:1034700060680837411B10290FD96019420708D02E
:10348000502080F31188BFF34F8FBFF36F8FFEE79B
:1034900010E041606560FFF7EDFD61687068401AFB
:1034A0007060B268904200D2B060F06801430020C2
:1034B000C4E9000100F0A6FE780707D0502080F391
:1034C0001188BFF34F8FBFF36F8FFEE73846BDE81B
:1034D000F08100006800002010B5031F4FF08074D9
:1034E0001C601B1F21F001011960191F044B0B60A8
:1034F00014390A60091F6FF0020244380A6010BDD7
:103500004933000800B52DED048B83B041EC190B55
:10351000FDF787F941EC180B18EE100A18EE901A17
:103520008DED008B002818BF0120084320F00040DB
:10353000C0F17F6000F1E040C00F14D019EE101A06
:1035400019EE900A8DED009B002918BF0121084358
:1035500020F00040C0F17F6000F1E040C00F04BFE8
:103560000120FEF759FE51EC180B03B0BDEC048BA3
:1035700000BDD0E9013201699A60D0E901235A60A7
:103580004A68824201D182684A600022026108686A
:10359000401E086008687047034B036003F15C003D
:1035A000086080201060704764070020044B0360AF
:1035B00003F15C0008604FF48070106070470000F9
:1035C000C009002000F108014FF0FF32C0E90112EC
:1035D000C1600161002101607047002101617047F5
:1035E00030B50B685A1C02D000F1080202E00269F3
:1035F00004E02246546825689D42FAD953684B601E
:1036000099608A60516008610168491C016030BDA1
:1036100042684A6093688B60936859609160086162
:103620000168491C01607047502080F31188BFF386
:103630004F8FBFF36F8F0A494868401C48600128CC
:103640000CD10848006810F0FF0F07D0502080F31D
:103650001188BFF34F8FBFF36F8FFEE770470000F5
:103660008000002004ED00E00849486828B1401EB1
:10367000486001D180F311887047502080F3118891
:10368000BFF34F8FBFF36F8FFEE700008000002075
:1036900070B5002827D0144DA0F108046168E868CF
:1036A000014207D1502080F31188BFF34F8FBFF341
:1036B0006F8FFEE722683AB1502080F31188BFF384
:1036C0004F8FBFF36F8FFEE78143616000F02CF9ED
:1036D00060686968084468602046FFF7CBFCBDE875
:1036E000704000F08FBD70BD680000204FF0E020FA
:1036F00000210161816105494FF47A720968B1FBCB
:10370000F2F1491E4161072101617047E800002084
:1037100010B5FCF7B1FD114910280ED300F1E020DF
:1037200090F8F0030A78904207D2502080F3118875
:10373000BFF34F8FBFF36F8FFEE7094800688968BA
:1037400000F4E060884207D9502080F31188BFF36D
:103750004F8FBFF36F8FFEE710BD00008000002089
:103760000CED00E010B5084B002200BF53F83240CA
:103770001CB1521C082AF9D310BD43F8321003EBD8
:10378000C201486010BD00004801002070B5154618
:103790000E460446FFF748FF94F944100020491CE8
:1037A00001D184F8440094F94510491C01D184F8F2
:1037B0004500FFF759FFA06B28B92A46314604F1AE
:1037C000240000F051F82046BDE87040FFF7E2BD4C
:1037D00010B5020014D00F48806B38B1502080F330
:1037E0001188BFF34F8FBFF36F8FFEE700F09CF897
:1037F00000211046FFF762FA00F004FD002807D10F
:1038000005494FF080500860BFF34F8FBFF36F8FB3
:1038100010BD00001400002004ED00E002498A6A97
:10382000026049694160704714000020014901208D
:10383000486270471400002010B50C4650B1094989
:1038400009681831FFF7CCFE2046BDE81040012181
:10385000FFF734BA502080F31188BFF34F8FBFF3C6
:103860006F8FFEE71400002070B514460D4668B156
:103870000A4909681831FFF7CBFE0CB14FF0FF354C
:1038800021462846BDE87040FFF718BA502080F363
:103890001188BFF34F8FBFF36F8FFEE71400002036
:1038A00030B587B00024039405AA04A903A80494A2
:1038B000FFF772FEDDE903010094CDE9011000235A
:1038C00015A11748059A00F082FB164D0028686381
:1038D0001FD000F0F9FC012809D0401C19D150205C
:1038E00080F31188BFF34F8FBFF36F8FFEE7502037
:1038F00080F31188BFF34F8FBFF36F8F4FF0FF300E
:1039000028630120E8616C6107B0BDE8304000F039
:1039100045B807B030BD000049444C4500000000E8
:10392000552F0008140000200248816B491C816358
:103930007047000014000020164810B5816B11B1CB
:103940000121416210BD002141628169124A01E0FA
:10395000B9B1491E01EB810352F82330002BF7D097
:1039600001EB810302EB830202F1080453685B68F8
:103970005360A34201D15B685360DA6802608161E1
:1039800010BD502080F31188BFF34F8FBFF36F8FAE
:10399000FEE7000014000020880100201CB5374815
:1039A0000168374A914207D1502080F31188BFF354
:1039B0004F8FBFF36F8FFEE700683149491E884281
:1039C00007D1502080F31188BFF34F8FBFF36F8F63
:1039D000FEE72C4908780190FF20087008788DF8E0
:1039E00000009DF800009DF8002000F0F0009042DB
:1039F00007D0502080F31188BFF34F8FBFF36F8F34
:103A0000FEE79DF80000204B00F0500018700720E2
:103A1000986005E09DF8002052008DF80020401EBF
:103A20009DF800201206F5D49860032807D0502096
:103A300080F31188BFF34F8FBFF36F8FFEE74FF412
:103A400040709860019808700C482030016841F47B
:103A500070010160016841F070410160FFF746FEAE
:103A600000205860FCF7D0FB0848016841F0404155
:103A70000160FCF7B5FB00201CBD000000ED00E07C
:103A800071C20F4100E400E08000002034EF00E04C
:103A900010B5502080F31188BFF34F8FBFF36F8FA5
:103AA00000F0D4FA18B104494FF0805008600020AB
:103AB00080F3118810BD000004ED00E038B5049DCE
:103AC00018B153B1CAB181B120E0502080F3118800
:103AD000BFF34F8FBFF36F8FFEE7502080F3118845
:103AE000BFF34F8FBFF36F8FFEE7502080F3118835
:103AF000BFF34F8FBFF36F8FFEE739B1502080F3D4
:103B00001188BFF34F8FBFF36F8FFEE750241C4621
:103B1000012384F846302B460094FFF74BFA2046E9
:103B200038BD000070B50D46040025D0FFF77CFDC0
:103B3000D4E90F20216802FB001161600021A1631C
:103B40002168A1600A46D4E90F01401E00FB012153
:103B5000E16021464FF0FF3001F8440F487004F156
:103B600010008DB1FFF72EFD04F12400FFF72AFDB0
:103B7000FFF77AFD012070BD502080F31188BFF35C
:103B80004F8FBFF36F8FFEE721690029F0D000F05F
:103B900001FB0028ECD004494FF080500860BFF3CF
:103BA0004F8FBFF36F8FE3E704ED00E02DE9FF4790
:103BB00082B01D468A464FF00008040003D0BAF1D7
:103BC000000F08D011E0502080F31188BFF34F8F11
:103BD000BFF36F8FFEE7206C38B1502080F311885F
:103BE000BFF34F8FBFF36F8FFEE7022D0AD1E06B5B
:103BF000012807D0502080F31188BFF34F8FBFF307
:103C00006F8FFEE700F00EFA3F4F4FF000094FF0C4
:103C1000805648B9049838B1502080F31188BFF31A
:103C20004F8FBFF36F8FFEE7FFF7FEFCA06BE16BDA
:103C3000884207D3022D05D00498D0B1B8F1000F07
:103C40001AD01EE02A4651462046FFF70CF9616A59
:103C500019B104F1240000F09DFA20B13E60BFF3D9
:103C60004F8FBFF36F8FFFF7FFFC012006B0BDE859
:103C7000F087FFF7F9FC22E06846FFF7CFFD4FF031
:103C80000108FFF7F1FCFFF74FFEFFF7CDFC94F9B9
:103C90004400401C01D184F8449094F94500401C34
:103CA00001D184F84590FFF7DFFC04A9684600F0D5
:103CB00027F930B12046FFF76DFB00F0A3FA002092
:103CC000D4E7FFF7B1FCA06BE16B884213D1FFF79B
:103CD000CBFC04F110000499FFF7AEFD2046FFF77E
:103CE00059FB00F08FFA00289ED13E60BFF34F8F42
:103CF000BFF36F8F98E7FFF7B7FC2046FFF74AFB4B
:103D000000F080FA90E7000004ED00E02DE9F047B4
:103D10001F4690468946040003D0B9F1000F08D031
:103D200011E0502080F31188BFF34F8FBFF36F8FE6
:103D3000FEE7206C38B1502080F31188BFF34F8F1D
:103D4000BFF36F8FFEE7022F0AD1E06B012807D087
:103D5000502080F31188BFF34F8FBFF36F8FFEE7C2
:103D6000FFF7D6FC5020EFF3118680F31188BFF3E4
:103D70004F8FBFF36F8FA06BE16B884206D3022F8A
:103D800004D0002086F31188BDE8F08794F94550EF
:103D90003A4649462046FFF766F8681C04D06D1C79
:103DA00084F845500120EDE7606A0028FAD004F15C
:103DB000240000F0EFF90028F4D0B8F1000FF1D0A2
:103DC0000121C8F80010EDE72DE9F747002683B080
:103DD0008A46040003D0BAF1000F08D011E0502049
:103DE00080F31188BFF34F8FBFF36F8FFEE7206C16
:103DF00038B1502080F31188BFF34F8FBFF36F8F1E
:103E0000FEE700F00FF9DFF8F4804FF000094FF003
:103E1000805748B9059838B1502080F31188BFF316
:103E20004F8FBFF36F8FFEE7FFF7FEFBA56BC5B1AA
:103E300051462046FFF704F86D1EA563206950B176
:103E400004F1100000F0A6F928B1C8F80070BFF323
:103E50004F8FBFF36F8FFFF707FC012006B0BDE85F
:103E6000F087059808B11EB106E0FFF7FDFB27E0DB
:103E70006846FFF7D3FC0126FFF7F6FBFFF754FD7A
:103E8000FFF7D2FB94F94400401C01D184F8449020
:103E900094F94500401C01D184F84590FFF7E4FBFC
:103EA00005A9684600F02CF8002820460AD0FFF744
:103EB00071FA00F0A7F92046FFF71EF90028B3D0E9
:103EC0000020CBE7FFF718F990B104F12400059921
:103ED000FFF7B2FC2046FFF75DFA00F093F90028E7
:103EE000A2D1C8F80070BFF34F8FBFF36F8F9BE76D
:103EF0002046FFF74FFA00F085F995E704ED00E062
:103F00002DE9F0410C46050011D0C4B1FFF78CFB40
:103F1000174B5A696E682068911B471C17D02F6891
:103F20009B6A9F4219D0964217D8012410E0502076
:103F300080F31188BFF34F8FBFF36F8FFEE75020E0
:103F400080F31188BFF34F8FBFF36F8FFEE700241C
:103F5000FFF78AFB2046BDE8F081884205D9401A68
:103F600020602846FFF75AFCF1E700202060DCE7DC
:103F7000140000202DE9FF5F8346DDE90E87994696
:103F800016468A469000FFF73BFA05001CD05C20DD
:103F9000FFF736FA040014D00020256384F8590096
:103FA000CDE90240CDE900874B463246514658469E
:103FB000FFF711F82046FEF7AFFE012004B0BDE880
:103FC000F09F2846FFF764FB4FF0FF30F6E7F0B5AF
:103FD00085B0DDE90B640A9DA6B1DCB15C270097D2
:103FE0002663022684F85960002604AFCDE9024614
:103FF000CDE90057FEF7EFFF2046FEF78DFE04984F
:1040000005B0F0BD502080F31188BFF34F8FBFF390
:104010006F8FFEE7502080F31188BFF34F8FBFF3FF
:104020006F8FFEE70548C16919B1806B18B1002098
:1040300070470120704702207047000014000020E4
:104040000148406970470000140000202DE9F0414C
:104050002E4C0027A06B40B1206A401C2062606A91
:1040600000B101273846BDE8F0816669761C6661BB
:1040700013D16068006838B1502080F31188BFF315
:104080004F8FBFF36F8FFEE76068A1686160A0602B
:10409000A06A401CA062FFF7FDF8206BDFF870807B
:1040A000864209D36068006880B16068C068C568EE
:1040B000686886420DD220632068C06A00EB8001E8
:1040C00058F821000128CAD90127C8E74FF0FF306E
:1040D000F1E7281DFFF74DFAA86A18B105F118009D
:1040E000FFF747FAE86AA169884200D9A06100EBAE
:1040F000800108EB8100291DFFF78AFAE86A216830
:10410000C96A8842CED30127CCE700001400002002
:104110008801002070B504004FF0000133D01B4D22
:104120002868844207D0502080F31188BFF34F8F56
:10413000BFF36F8FFEE7206D38B1401E2065E36C42
:10414000E26A9A421FD040B11DE0502080F31188EE
:10415000BFF34F8FBFF36F8FFEE7201DFFF709FA04
:10416000E06CE062C0F13800A061E06AA9698842B1
:1041700000D9A861064900EB800001EB8000211DF9
:10418000FFF746FA0121084670BD00001400002028
:104190008801002070B5C068C46854B104F11800EB
:1041A0000646FFF7E6F9144DA86B50B131461348A7
:1041B00015E0502080F31188BFF34F8FBFF36F8F4E
:1041C000FEE7201DFFF7D5F9E06AA969884200D90A
:1041D000A8610B4900EB800001EB8000211DFFF777
:1041E00017FAE06A2968C96A884202D90120686220
:1041F00070BD002070BD00001400002010060020DB
:10420000880100202DE9F0472C4D00242746A86B9B
:1042100038B1FFF709FAA86B401EA863A86B40B13C
:1042200046E0502080F31188BFF34F8FBFF36F8FAC
:10423000FEE72969224E0120D1B3A6F59169804697
:104240003068E0B1F068C46804F11800FFF791F934
:10425000201DFFF78EF9E06AA969884200D9A8619C
:1042600000EB800109EB8100211DFFF7D1F9E06A25
:104270002968C96A8842E3D3C5F82480E0E70CB115
:10428000FFF708F82C6A4CB14FEA0806FFF7DEFE8C
:1042900000B16E62641EF9D100202862686A38B1EC
:1042A0000849012738070860BFF34F8FBFF36F8FAE
:1042B000FFF7DAF93846BDE8F08700001400002067
:1042C0001006002004ED00E010B586B0FEF78CFD6E
:1042D000114CA068B8B100200390049005AA04A96D
:1042E00003A8FFF763F9DDE9032102208DE8070049
:1042F00000230AA10B48059AFFF769FEE06010B1A0
:1043000006B0012010BD502080F31188BFF34F8FFD
:10431000BFF36F8FFEE7000050000020546D722045
:1043200053766300713300082DE9FF411E461346A2
:1043300002000A9D4FF0000016D0144CA768002F11
:104340000FD0CDE900130292062917DAFFF76AFEB3
:1043500002284FF000030FD000226946A068FFF743
:1043600025FC04B0BDE8F081502080F31188BFF334
:104370004F8FBFF36F8FFEE72A46EEE700233246EA
:1043800069463846FFF7C2FCEBE70000500000200A
:10439000F8440008000000000000000000000000D9
:1043A0000000000080000000180000000000000075
:1043B00000000000F04400080000000000000000C1
:1043C00000000000000000000001000018000000D4
:1043D00000000000000000006B806B036C001A04FA
:1043E0001B181C101D026A200000000000000000C5
:1043F0000000000001020304060708090000000095
:10440000555555555555C53F7D6FEB0312D6D4BF55
:104410005544880E55C1C93F3B8F68B52882A4BF5B
:1044200088B20175E0EF493F09F7FD0DE13D023F1C
:104430004B2D8A1C273A03C0C88A599CE52A0040A4
:1044400059018D1B6C06E6BF82922EB1C5B8B33FF1
:104450004FBB610567ACDD3F182D4454FB21E93F9C
:104460009BF681D20B73EF3F182D4454FB21F93F8B
:10447000E2652F227F2B7A3C075C143326A6813C11
:10448000BDCBF07A8807703C075C143326A6913CBC
:10449000C4EB98999999C9BF711623FEC671BCBF28
:1044A0006D9A74AFF2B0B3BF9AFDDE522DDEADBF90
:1044B0002F6C6A2C44B4A2BF0D5555555555D53FA8
:1044C000FF8300922449C23F6E204CC5CD45B73FC3
:1044D000513DD0A0660DB13FEB0D76244B7BA93F3B
:1044E00011DA22E33AAD903F000000000000000026
:1044F0004D5055363530300064656661756C7454C6
:1045000061736B002445000800000020F0000000EB
:10451000F821000814460008F0000020904D00002B
:104520000822000800000000000000000100000058
:10453000100000000000000000000000000000006B
:10454000000000000000000000000000000000006B
:10455000000000000000000000000000000000005B
:10456000000000000000000000000000000000004B
:10457000000000000000000000000000000000003B
:10458000000000000000000000000000000000002B
:10459000000000000000000000000000000000001B
:1045A0000000000000000000AAAAAAAA0000000063
:1045B000000000000000803F00000000000000003C
:1045C00000000000000000000000000000000000EB
:1045D00000000000000000000000000000000000DB
:1045E00000000000000000000000000000000000CB
:1045F000000000000000000000000000FF000000BC
:104600000000000000000000000000000024F40092
:0446100000000000A6
:04000005080001AD41
:00000001FF
